{"abi":[{"type":"constructor","inputs":[{"name":"_implementation","type":"address","internalType":"address"}],"stateMutability":"nonpayable"},{"type":"function","name":"MAX_BLOCK_AGE","inputs":[],"outputs":[{"name":"","type":"uint256","internalType":"uint256"}],"stateMutability":"view"},{"type":"function","name":"accounts","inputs":[{"name":"","type":"bytes32","internalType":"bytes32"}],"outputs":[{"name":"","type":"address","internalType":"address"}],"stateMutability":"view"},{"type":"function","name":"computeAccountAddress","inputs":[{"name":"controller","type":"address","internalType":"address"},{"name":"programId","type":"string","internalType":"string"},{"name":"accountRequestId","type":"uint64","internalType":"uint64"},{"name":"accountType","type":"uint8","internalType":"uint8"},{"name":"historicalBlockNumber","type":"uint256","internalType":"uint256"}],"outputs":[{"name":"","type":"address","internalType":"address"}],"stateMutability":"view"},{"type":"function","name":"createAccount","inputs":[{"name":"controller","type":"address","internalType":"address"},{"name":"programId","type":"string","internalType":"string"},{"name":"accountRequestId","type":"uint64","internalType":"uint64"},{"name":"accountType","type":"uint8","internalType":"uint8"},{"name":"historicalBlockNumber","type":"uint256","internalType":"uint256"}],"outputs":[{"name":"","type":"address","internalType":"address"}],"stateMutability":"nonpayable"},{"type":"function","name":"getMaxBlockAge","inputs":[],"outputs":[{"name":"","type":"uint256","internalType":"uint256"}],"stateMutability":"pure"},{"type":"function","name":"implementation","inputs":[],"outputs":[{"name":"","type":"address","internalType":"address"}],"stateMutability":"view"},{"type":"function","name":"isAccountRequestIdUsed","inputs":[{"name":"controller","type":"address","internalType":"address"},{"name":"accountRequestId","type":"uint64","internalType":"uint64"}],"outputs":[{"name":"","type":"bool","internalType":"bool"}],"stateMutability":"view"},{"type":"function","name":"usedAccountRequestIds","inputs":[{"name":"","type":"address","internalType":"address"},{"name":"","type":"uint64","internalType":"uint64"}],"outputs":[{"name":"","type":"bool","internalType":"bool"}],"stateMutability":"view"},{"type":"event","name":"AccountCreated","inputs":[{"name":"account","type":"address","indexed":true,"internalType":"address"},{"name":"controller","type":"address","indexed":true,"internalType":"address"},{"name":"programId","type":"string","indexed":false,"internalType":"string"},{"name":"accountRequestId","type":"uint64","indexed":false,"internalType":"uint64"},{"name":"historicalBlock","type":"uint256","indexed":false,"internalType":"uint256"}],"anonymous":false},{"type":"error","name":"AccountCreationFailed","inputs":[]},{"type":"error","name":"AccountRequestIdAlreadyUsed","inputs":[{"name":"controller","type":"address","internalType":"address"},{"name":"accountRequestId","type":"uint64","internalType":"uint64"}]},{"type":"error","name":"HistoricalBlockNotAvailable","inputs":[{"name":"blockNumber","type":"uint256","internalType":"uint256"}]},{"type":"error","name":"HistoricalBlockTooOld","inputs":[{"name":"currentBlock","type":"uint256","internalType":"uint256"},{"name":"historicalBlock","type":"uint256","internalType":"uint256"}]}],"bytecode":{"object":"0x608034606f57601f61096638819003918201601f19168301916001600160401b03831184841017607357808492602094604052833981010312606f57516001600160a01b03811690819003606f575f80546001600160a01b0319169190911790556040516108de90816100888239f35b5f80fd5b634e487b7160e01b5f52604160045260245ffdfe60806040526004361015610011575f80fd5b5f3560e01c80631ac6efde1461008f57806358dc0c841461008a5780635c60da1b146100855780638289f78614610080578063a032704e1461007b578063b20761231461007b578063bc529c43146100765763d6f6a22314610071575f80fd5b610410565b6103de565b610380565b61023d565b6100c9565b6100ae565b346100aa575f3660031901126100aa5760c860805260206080f35b5f80fd5b346100aa575f3660031901126100aa57602060405160c88152f35b346100aa575f3660031901126100aa575f546040516001600160a01b039091168152602090f35b600435906001600160a01b03821682036100aa57565b35906001600160a01b03821682036100aa57565b634e487b7160e01b5f52604160045260245ffd5b90601f8019910116810190811067ffffffffffffffff82111761015057604052565b61011a565b90610163604051928361012e565b565b6024359067ffffffffffffffff821682036100aa57565b359067ffffffffffffffff821682036100aa57565b359060ff821682036100aa57565b9060a06003198301126100aa576101b66004610106565b9160243567ffffffffffffffff81116100aa57816023820112156100aa5780600401359067ffffffffffffffff82116101505760405192610201601f8401601f19166020018561012e565b828452602483830101116100aa57815f9260246020930183860137830101529061022b604461017c565b906102366064610191565b9060843590565b346100aa5761037c61036261035661028a61028a61034761029861028a6102ff6102663661019f565b998a610278839c9994939596996106e8565b60405195869460208601988c8a610626565b03601f19810183528261012e565b519020956102e5610180946102af60208701610155565b958087526107296020880139604080516001600160a01b03909216602083015260ff90931692810192909252816060810161028a565b6040519283916102f9602084018097610614565b90610614565b5190206040516001600160f81b0319602082019081523060601b6bffffffffffffffffffffffff19166021830152603582019590955260558101919091529182906075820190565b5190206001600160a01b031690565b6001600160a01b031690565b6040516001600160a01b0390911681529081906020820190565b0390f35b346100aa5760403660031901126100aa57602060ff6103d26103a06100f0565b6103a8610165565b9060018060a01b03165f526002845260405f209067ffffffffffffffff165f5260205260405f2090565b54166040519015158152f35b346100aa5760203660031901126100aa576004355f526001602052602060018060a01b0360405f205416604051908152f35b346100aa5761041e3661019f565b60c86104308296939695949543610683565b116105fe5761047461046d856104568560018060a01b03165f52600260205260405f2090565b9067ffffffffffffffff165f5260205260405f2090565b5460ff1690565b6105d457610481816106e8565b60405161049b8161028a8560208301958b8b8b8b8a610626565b519020809561028a6104ee61028a6102e5610180946104bc60208701610155565b958087526107296020880139604080516001600160a01b038b16602082015260ff909216908201529182906060820190565b51905ff5936001600160a01b0385169283156105c5576105a87fbc19e1703b33496e78482111bbdf912f2e7a8795ba2618e32b60c1d806c4a2f49361058f8861057061037c9b610562610555896104568a60018060a01b03165f52600260205260405f2090565b805460ff19166001179055565b5f52600160205260405f2090565b80546001600160a01b0319166001600160a01b03909216919091179055565b6040516001600160a01b039093169692938493846106a4565b0390a36040516001600160a01b0390911681529081906020820190565b6320188a5960e01b5f5260045ffd5b63faef3d8b60e01b5f526001600160a01b03821660045267ffffffffffffffff841660245260445ffd5b6384b2ee1d60e01b5f524360045260245260445ffd5b805191908290602001825e015f815290565b9160146049979593610651939795976bffffffffffffffffffffffff199060601b1681520190610614565b60c09490941b6001600160c01b031916845260f81b6001600160f81b0319166008840152600983015260298201520190565b9190820391821161069057565b634e487b7160e01b5f52601160045260245ffd5b67ffffffffffffffff6080602060409497969597606085528051918291826060880152018386015e5f828286010152601f8019910116830101951660208201520152565b804090811561071657604051906020820192835260408201526040815261071060608261012e565b51902090565b639eb0a65960e01b5f5260045260245ffdfe608034608557601f61018038819003918201601f19168301916001600160401b03831184841017608957808492604094855283398101031260855780516001600160a01b0381169190829003608557602001519060ff821682036085575f549160ff60a01b9060a01b169160018060a81b03191617175f5560405160e2908161009e8239f35b5f80fd5b634e487b7160e01b5f52604160045260245ffdfe60808060405260043610156011575f80fd5b5f3560e01c9081633018205f14608c5750806352d6a0a314606c57806395eec3c914606c5763f77c4791146043575f80fd5b346068575f3660031901126068575f546040516001600160a01b039091168152602090f35b5f80fd5b346068575f366003190112606857602060ff5f5460a01c16604051908152f35b346068575f3660031901126068575f546001600160a01b03168152602090f3fea2646970667358221220d3e9bb6ec846496c7528a56258d0df0edee55b4569c922f4bd1e87693f8df33364736f6c634300081d0033a2646970667358221220c631a2b76afa8d39cf897beac9dcdc8b27afe61fbd115edeb188def5bd9b09e564736f6c634300081d0033","linkReferences":{}},"methodIdentifiers":{"MAX_BLOCK_AGE()":"58dc0c84","accounts(bytes32)":"bc529c43","computeAccountAddress(address,string,uint64,uint8,uint256)":"8289f786","createAccount(address,string,uint64,uint8,uint256)":"d6f6a223","getMaxBlockAge()":"1ac6efde","implementation()":"5c60da1b","isAccountRequestIdUsed(address,uint64)":"b2076123","usedAccountRequestIds(address,uint64)":"a032704e"},"id":0}