{"abi":[{"type":"constructor","inputs":[{"name":"_controller","type":"address","internalType":"address"},{"name":"_accountType","type":"uint8","internalType":"uint8"}],"stateMutability":"nonpayable"},{"type":"function","name":"accountType","inputs":[],"outputs":[{"name":"","type":"uint8","internalType":"uint8"}],"stateMutability":"view"},{"type":"function","name":"controller","inputs":[],"outputs":[{"name":"","type":"address","internalType":"address"}],"stateMutability":"view"},{"type":"function","name":"getAccountType","inputs":[],"outputs":[{"name":"","type":"uint8","internalType":"uint8"}],"stateMutability":"view"},{"type":"function","name":"getController","inputs":[],"outputs":[{"name":"","type":"address","internalType":"address"}],"stateMutability":"view"}],"bytecode":{"object":"0x608034608557601f61018038819003918201601f19168301916001600160401b03831184841017608957808492604094855283398101031260855780516001600160a01b0381169190829003608557602001519060ff821682036085575f549160ff60a01b9060a01b169160018060a81b03191617175f5560405160e2908161009e8239f35b5f80fd5b634e487b7160e01b5f52604160045260245ffdfe60808060405260043610156011575f80fd5b5f3560e01c9081633018205f14608c5750806352d6a0a314606c57806395eec3c914606c5763f77c4791146043575f80fd5b346068575f3660031901126068575f546040516001600160a01b039091168152602090f35b5f80fd5b346068575f366003190112606857602060ff5f5460a01c16604051908152f35b346068575f3660031901126068575f546001600160a01b03168152602090f3fea2646970667358221220d3e9bb6ec846496c7528a56258d0df0edee55b4569c922f4bd1e87693f8df33364736f6c634300081d0033","linkReferences":{}},"methodIdentifiers":{"accountType()":"95eec3c9","controller()":"f77c4791","getAccountType()":"52d6a0a3","getController()":"3018205f"},"id":1}