{"abi":[{"type":"constructor","inputs":[{"name":"_localDomain","type":"uint32","internalType":"uint32"}],"stateMutability":"nonpayable"},{"type":"function","name":"PACKAGE_VERSION","inputs":[],"outputs":[{"name":"","type":"string","internalType":"string"}],"stateMutability":"view"},{"type":"function","name":"VERSION","inputs":[],"outputs":[{"name":"","type":"uint8","internalType":"uint8"}],"stateMutability":"view"},{"type":"function","name":"defaultHook","inputs":[],"outputs":[{"name":"","type":"address","internalType":"contract IPostDispatchHook"}],"stateMutability":"view"},{"type":"function","name":"defaultIsm","inputs":[],"outputs":[{"name":"","type":"address","internalType":"contract IInterchainSecurityModule"}],"stateMutability":"view"},{"type":"function","name":"delivered","inputs":[{"name":"_id","type":"bytes32","internalType":"bytes32"}],"outputs":[{"name":"","type":"bool","internalType":"bool"}],"stateMutability":"view"},{"type":"function","name":"deployedBlock","inputs":[],"outputs":[{"name":"","type":"uint256","internalType":"uint256"}],"stateMutability":"view"},{"type":"function","name":"dispatch","inputs":[{"name":"destinationDomain","type":"uint32","internalType":"uint32"},{"name":"recipientAddress","type":"bytes32","internalType":"bytes32"},{"name":"messageBody","type":"bytes","internalType":"bytes"},{"name":"metadata","type":"bytes","internalType":"bytes"},{"name":"hook","type":"address","internalType":"contract IPostDispatchHook"}],"outputs":[{"name":"","type":"bytes32","internalType":"bytes32"}],"stateMutability":"payable"},{"type":"function","name":"dispatch","inputs":[{"name":"destinationDomain","type":"uint32","internalType":"uint32"},{"name":"recipientAddress","type":"bytes32","internalType":"bytes32"},{"name":"messageBody","type":"bytes","internalType":"bytes"},{"name":"hookMetadata","type":"bytes","internalType":"bytes"}],"outputs":[{"name":"","type":"bytes32","internalType":"bytes32"}],"stateMutability":"payable"},{"type":"function","name":"dispatch","inputs":[{"name":"_destinationDomain","type":"uint32","internalType":"uint32"},{"name":"_recipientAddress","type":"bytes32","internalType":"bytes32"},{"name":"_messageBody","type":"bytes","internalType":"bytes"}],"outputs":[{"name":"","type":"bytes32","internalType":"bytes32"}],"stateMutability":"payable"},{"type":"function","name":"initialize","inputs":[{"name":"_owner","type":"address","internalType":"address"},{"name":"_defaultIsm","type":"address","internalType":"address"},{"name":"_defaultHook","type":"address","internalType":"address"},{"name":"_requiredHook","type":"address","internalType":"address"}],"outputs":[],"stateMutability":"nonpayable"},{"type":"function","name":"latestDispatchedId","inputs":[],"outputs":[{"name":"","type":"bytes32","internalType":"bytes32"}],"stateMutability":"view"},{"type":"function","name":"localDomain","inputs":[],"outputs":[{"name":"","type":"uint32","internalType":"uint32"}],"stateMutability":"view"},{"type":"function","name":"nonce","inputs":[],"outputs":[{"name":"","type":"uint32","internalType":"uint32"}],"stateMutability":"view"},{"type":"function","name":"owner","inputs":[],"outputs":[{"name":"","type":"address","internalType":"address"}],"stateMutability":"view"},{"type":"function","name":"process","inputs":[{"name":"_metadata","type":"bytes","internalType":"bytes"},{"name":"_message","type":"bytes","internalType":"bytes"}],"outputs":[],"stateMutability":"payable"},{"type":"function","name":"processedAt","inputs":[{"name":"_id","type":"bytes32","internalType":"bytes32"}],"outputs":[{"name":"","type":"uint48","internalType":"uint48"}],"stateMutability":"view"},{"type":"function","name":"processor","inputs":[{"name":"_id","type":"bytes32","internalType":"bytes32"}],"outputs":[{"name":"","type":"address","internalType":"address"}],"stateMutability":"view"},{"type":"function","name":"quoteDispatch","inputs":[{"name":"destinationDomain","type":"uint32","internalType":"uint32"},{"name":"recipientAddress","type":"bytes32","internalType":"bytes32"},{"name":"messageBody","type":"bytes","internalType":"bytes"},{"name":"metadata","type":"bytes","internalType":"bytes"},{"name":"hook","type":"address","internalType":"contract IPostDispatchHook"}],"outputs":[{"name":"fee","type":"uint256","internalType":"uint256"}],"stateMutability":"view"},{"type":"function","name":"quoteDispatch","inputs":[{"name":"destinationDomain","type":"uint32","internalType":"uint32"},{"name":"recipientAddress","type":"bytes32","internalType":"bytes32"},{"name":"messageBody","type":"bytes","internalType":"bytes"}],"outputs":[{"name":"fee","type":"uint256","internalType":"uint256"}],"stateMutability":"view"},{"type":"function","name":"quoteDispatch","inputs":[{"name":"destinationDomain","type":"uint32","internalType":"uint32"},{"name":"recipientAddress","type":"bytes32","internalType":"bytes32"},{"name":"messageBody","type":"bytes","internalType":"bytes"},{"name":"defaultHookMetadata","type":"bytes","internalType":"bytes"}],"outputs":[{"name":"fee","type":"uint256","internalType":"uint256"}],"stateMutability":"view"},{"type":"function","name":"recipientIsm","inputs":[{"name":"_recipient","type":"address","internalType":"address"}],"outputs":[{"name":"","type":"address","internalType":"contract IInterchainSecurityModule"}],"stateMutability":"view"},{"type":"function","name":"renounceOwnership","inputs":[],"outputs":[],"stateMutability":"nonpayable"},{"type":"function","name":"requiredHook","inputs":[],"outputs":[{"name":"","type":"address","internalType":"contract IPostDispatchHook"}],"stateMutability":"view"},{"type":"function","name":"setDefaultHook","inputs":[{"name":"_hook","type":"address","internalType":"address"}],"outputs":[],"stateMutability":"nonpayable"},{"type":"function","name":"setDefaultIsm","inputs":[{"name":"_module","type":"address","internalType":"address"}],"outputs":[],"stateMutability":"nonpayable"},{"type":"function","name":"setRequiredHook","inputs":[{"name":"_hook","type":"address","internalType":"address"}],"outputs":[],"stateMutability":"nonpayable"},{"type":"function","name":"transferOwnership","inputs":[{"name":"newOwner","type":"address","internalType":"address"}],"outputs":[],"stateMutability":"nonpayable"},{"type":"event","name":"DefaultHookSet","inputs":[{"name":"hook","type":"address","indexed":true,"internalType":"address"}],"anonymous":false},{"type":"event","name":"DefaultIsmSet","inputs":[{"name":"module","type":"address","indexed":true,"internalType":"address"}],"anonymous":false},{"type":"event","name":"Dispatch","inputs":[{"name":"sender","type":"address","indexed":true,"internalType":"address"},{"name":"destination","type":"uint32","indexed":true,"internalType":"uint32"},{"name":"recipient","type":"bytes32","indexed":true,"internalType":"bytes32"},{"name":"message","type":"bytes","indexed":false,"internalType":"bytes"}],"anonymous":false},{"type":"event","name":"DispatchId","inputs":[{"name":"messageId","type":"bytes32","indexed":true,"internalType":"bytes32"}],"anonymous":false},{"type":"event","name":"Initialized","inputs":[{"name":"version","type":"uint8","indexed":false,"internalType":"uint8"}],"anonymous":false},{"type":"event","name":"OwnershipTransferred","inputs":[{"name":"previousOwner","type":"address","indexed":true,"internalType":"address"},{"name":"newOwner","type":"address","indexed":true,"internalType":"address"}],"anonymous":false},{"type":"event","name":"Process","inputs":[{"name":"origin","type":"uint32","indexed":true,"internalType":"uint32"},{"name":"sender","type":"bytes32","indexed":true,"internalType":"bytes32"},{"name":"recipient","type":"address","indexed":true,"internalType":"address"}],"anonymous":false},{"type":"event","name":"ProcessId","inputs":[{"name":"messageId","type":"bytes32","indexed":true,"internalType":"bytes32"}],"anonymous":false},{"type":"event","name":"RequiredHookSet","inputs":[{"name":"hook","type":"address","indexed":true,"internalType":"address"}],"anonymous":false}],"bytecode":{"object":"0x60c060405234801561001057600080fd5b50604051620022f3380380620022f383398101604081905261003191610043565b4360805263ffffffff1660a052610070565b60006020828403121561005557600080fd5b815163ffffffff8116811461006957600080fd5b9392505050565b60805160a05161224f620000a4600039600081816103d601528181610b0f0152611761015260006103a2015261224f6000f3fe6080604052600436106101ac5760003560e01c80638da5cb5b116100ec578063e70f48ac1161008a578063f7ccd32111610064578063f7ccd321146105d7578063f8c8765e146105f7578063fa31de0114610617578063ffa1ad741461062a57600080fd5b8063e70f48ac14610577578063f2fde38b14610597578063f794687a146105b757600080fd5b80639c42bd18116100c65780639c42bd18146104ae578063affed0e0146104ce578063d6d08a09146104eb578063e495f1d41461051857600080fd5b80638da5cb5b1461040d57806393c448471461043857806399b048091461048e57600080fd5b80635d1fe5a9116101595780637c39d130116101335780637c39d1301461035d57806381d2ea951461037057806382ea7bfe146103905780638d3638f4146103c457600080fd5b80635d1fe5a9146102d85780636e5f516e1461031b578063715018a61461034857600080fd5b80631426b7f41161018a5780631426b7f4146102515780633d1250b71461027357806348aee8d4146102c557600080fd5b806307a2fda1146101b157806310b83dc01461021a578063134fbb4f1461023b575b600080fd5b3480156101bd57600080fd5b506101fe6101cc366004611b6a565b6000908152606a602052604090205474010000000000000000000000000000000000000000900465ffffffffffff1690565b60405165ffffffffffff90911681526020015b60405180910390f35b61022d610228366004611c00565b610651565b604051908152602001610211565b34801561024757600080fd5b5061022d60665481565b34801561025d57600080fd5b5061027161026c366004611c9e565b610925565b005b34801561027f57600080fd5b506068546102a09073ffffffffffffffffffffffffffffffffffffffff1681565b60405173ffffffffffffffffffffffffffffffffffffffff9091168152602001610211565b61022d6102d3366004611cbb565b610a45565b3480156102e457600080fd5b506102a06102f3366004611b6a565b6000908152606a602052604090205473ffffffffffffffffffffffffffffffffffffffff1690565b34801561032757600080fd5b506067546102a09073ffffffffffffffffffffffffffffffffffffffff1681565b34801561035457600080fd5b50610271610a83565b61027161036b366004611d45565b610a97565b34801561037c57600080fd5b5061022d61038b366004611c00565b610f39565b34801561039c57600080fd5b5061022d7f000000000000000000000000000000000000000000000000000000000000000081565b3480156103d057600080fd5b506103f87f000000000000000000000000000000000000000000000000000000000000000081565b60405163ffffffff9091168152602001610211565b34801561041957600080fd5b5060335473ffffffffffffffffffffffffffffffffffffffff166102a0565b34801561044457600080fd5b506104816040518060400160405280600581526020017f352e382e3200000000000000000000000000000000000000000000000000000081525081565b6040516102119190611e1f565b34801561049a57600080fd5b506102716104a9366004611c9e565b6110cc565b3480156104ba57600080fd5b5061022d6104c9366004611e32565b6111e7565b3480156104da57600080fd5b506065546103f89063ffffffff1681565b3480156104f757600080fd5b506069546102a09073ffffffffffffffffffffffffffffffffffffffff1681565b34801561052457600080fd5b50610567610533366004611b6a565b6000908152606a602052604090205474010000000000000000000000000000000000000000900465ffffffffffff16151590565b6040519015158152602001610211565b34801561058357600080fd5b506102a0610592366004611c9e565b611223565b3480156105a357600080fd5b506102716105b2366004611c9e565b61135a565b3480156105c357600080fd5b506102716105d2366004611c9e565b611411565b3480156105e357600080fd5b5061022d6105f2366004611cbb565b61152c565b34801561060357600080fd5b50610271610612366004611e80565b61155f565b61022d610625366004611e32565b611719565b34801561063657600080fd5b5061063f600381565b60405160ff9091168152602001610211565b600073ffffffffffffffffffffffffffffffffffffffff821661068a5760685473ffffffffffffffffffffffffffffffffffffffff1691505b60006106988989898961174c565b805160208201206066819055606580549293509091600191906000906106c590849063ffffffff16611f0b565b92506101000a81548163ffffffff021916908363ffffffff160217905550888a63ffffffff163373ffffffffffffffffffffffffffffffffffffffff167f769f711d20c679153d382254f59892613b58a97cc876b249134ac25c80f9c814856040516107319190611e1f565b60405180910390a460405181907f788dbc1b7152732178210e7f4d9d010ef016f9eafbe66786bd7169f56e0c353a90600090a26069546040517faaccd23000000000000000000000000000000000000000000000000000000000815260009173ffffffffffffffffffffffffffffffffffffffff169063aaccd230906107bf908a908a908890600401611f78565b602060405180830381865afa1580156107dc573d6000803e3d6000fd5b505050506040513d601f19601f820116820180604052508101906108009190611fa8565b90508034101561080d5750345b6069546040517f086011b900000000000000000000000000000000000000000000000000000000815273ffffffffffffffffffffffffffffffffffffffff9091169063086011b9908390610869908b908b908990600401611f78565b6000604051808303818588803b15801561088257600080fd5b505af1158015610896573d6000803e3d6000fd5b50505050508473ffffffffffffffffffffffffffffffffffffffff1663086011b982346108c39190611fc1565b8989876040518563ffffffff1660e01b81526004016108e493929190611f78565b6000604051808303818588803b1580156108fd57600080fd5b505af1158015610911573d6000803e3d6000fd5b50949e9d5050505050505050505050505050565b61092d611795565b73ffffffffffffffffffffffffffffffffffffffff81163b6109d6576040517f08c379a000000000000000000000000000000000000000000000000000000000815260206004820152602360248201527f4d61696c626f783a20726571756972656420686f6f6b206e6f7420636f6e747260448201527f616374000000000000000000000000000000000000000000000000000000000060648201526084015b60405180910390fd5b606980547fffffffffffffffffffffffff00000000000000000000000000000000000000001673ffffffffffffffffffffffffffffffffffffffff83169081179091556040517f329ec8e2438a73828ecf31a6568d7a91d7b1d79e342b0692914fd053d1a002b190600090a250565b6000610a78878787878787606860009054906101000a900473ffffffffffffffffffffffffffffffffffffffff16610651565b979650505050505050565b610a8b611795565b610a956000611816565b565b6003610aa3838361188d565b60ff1614610b0d576040517f08c379a000000000000000000000000000000000000000000000000000000000815260206004820152601460248201527f4d61696c626f783a206261642076657273696f6e00000000000000000000000060448201526064016109cd565b7f000000000000000000000000000000000000000000000000000000000000000063ffffffff16610b3e83836118b1565b63ffffffff1614610bab576040517f08c379a000000000000000000000000000000000000000000000000000000000815260206004820152601f60248201527f4d61696c626f783a20756e65787065637465642064657374696e6174696f6e0060448201526064016109cd565b6000610bec83838080601f01602080910402602001604051908101604052809392919081815260200183838082843760009201919091525061178a92505050565b6000818152606a602052604090205490915074010000000000000000000000000000000000000000900465ffffffffffff1615610c85576040517f08c379a000000000000000000000000000000000000000000000000000000000815260206004820152601a60248201527f4d61696c626f783a20616c72656164792064656c69766572656400000000000060448201526064016109cd565b6000610c9184846118d4565b90506000610c9e82611223565b60408051808201825233815265ffffffffffff43811660208084019182526000898152606a9091529390932091518254935190911674010000000000000000000000000000000000000000027fffffffffffff000000000000000000000000000000000000000000000000000090931673ffffffffffffffffffffffffffffffffffffffff918216179290921790559091508216610d3c86866118ef565b610d468787611908565b63ffffffff167f0d381c2a574ae8f04e213db7cfb4df8df712cdbd427d9868ffef380660ca657460405160405180910390a460405183907f1cae38cdd3d3919489272725a5ae62a4f48b2989b0dae843d3c279fee18073a990600090a26040517ff7e83aee00000000000000000000000000000000000000000000000000000000815273ffffffffffffffffffffffffffffffffffffffff82169063f7e83aee90610dfb908a908a908a908a90600401611fd4565b6020604051808303816000875af1158015610e1a573d6000803e3d6000fd5b505050506040513d601f19601f82011682018060405250810190610e3e9190611ffb565b610ea4576040517f08c379a000000000000000000000000000000000000000000000000000000000815260206004820181905260248201527f4d61696c626f783a2049534d20766572696669636174696f6e206661696c656460448201526064016109cd565b8173ffffffffffffffffffffffffffffffffffffffff166356d5d47534610ecb8888611908565b610ed589896118ef565b610edf8a8a611918565b6040518663ffffffff1660e01b8152600401610efe949392919061201d565b6000604051808303818588803b158015610f1757600080fd5b505af1158015610f2b573d6000803e3d6000fd5b505050505050505050505050565b600073ffffffffffffffffffffffffffffffffffffffff8216610f725760685473ffffffffffffffffffffffffffffffffffffffff1691505b6000610f808989898961174c565b6040517faaccd23000000000000000000000000000000000000000000000000000000000815290915073ffffffffffffffffffffffffffffffffffffffff84169063aaccd23090610fd990889088908690600401611f78565b602060405180830381865afa158015610ff6573d6000803e3d6000fd5b505050506040513d601f19601f8201168201806040525081019061101a9190611fa8565b6069546040517faaccd23000000000000000000000000000000000000000000000000000000000815273ffffffffffffffffffffffffffffffffffffffff9091169063aaccd2309061107490899089908790600401611f78565b602060405180830381865afa158015611091573d6000803e3d6000fd5b505050506040513d601f19601f820116820180604052508101906110b59190611fa8565b6110bf9190612043565b9998505050505050505050565b6110d4611795565b73ffffffffffffffffffffffffffffffffffffffff81163b611178576040517f08c379a000000000000000000000000000000000000000000000000000000000815260206004820152602260248201527f4d61696c626f783a2064656661756c7420686f6f6b206e6f7420636f6e74726160448201527f637400000000000000000000000000000000000000000000000000000000000060648201526084016109cd565b606880547fffffffffffffffffffffffff00000000000000000000000000000000000000001673ffffffffffffffffffffffffffffffffffffffff83169081179091556040517f65a63e5066ee2fcdf9d32a7f1bf7ce71c76066f19d0609dddccd334ab87237d790600090a250565b600061121a858585856111fc86808385612056565b60685473ffffffffffffffffffffffffffffffffffffffff16610f39565b95945050505050565b60408051600481526024810182526020810180517bffffffffffffffffffffffffffffffffffffffffffffffffffffffff167fde523cf30000000000000000000000000000000000000000000000000000000017905290516000918291829173ffffffffffffffffffffffffffffffffffffffff8616916112a49190612080565b600060405180830381855afa9150503d80600081146112df576040519150601f19603f3d011682016040523d82523d6000602084013e6112e4565b606091505b50915091508180156112f65750805115155b1561133957600081806020019051810190611311919061209c565b905073ffffffffffffffffffffffffffffffffffffffff81161561133757949350505050565b505b505060675473ffffffffffffffffffffffffffffffffffffffff1692915050565b611362611795565b73ffffffffffffffffffffffffffffffffffffffff8116611405576040517f08c379a000000000000000000000000000000000000000000000000000000000815260206004820152602660248201527f4f776e61626c653a206e6577206f776e657220697320746865207a65726f206160448201527f646472657373000000000000000000000000000000000000000000000000000060648201526084016109cd565b61140e81611816565b50565b611419611795565b73ffffffffffffffffffffffffffffffffffffffff81163b6114bd576040517f08c379a000000000000000000000000000000000000000000000000000000000815260206004820152602160248201527f4d61696c626f783a2064656661756c742049534d206e6f7420636f6e7472616360448201527f740000000000000000000000000000000000000000000000000000000000000060648201526084016109cd565b606780547fffffffffffffffffffffffff00000000000000000000000000000000000000001673ffffffffffffffffffffffffffffffffffffffff83169081179091556040517fa76ad0adbf45318f8633aa0210f711273d50fbb6fef76ed95bbae97082c75daa90600090a250565b6000610a78878787878787606860009054906101000a900473ffffffffffffffffffffffffffffffffffffffff16610f39565b600054610100900460ff161580801561157f5750600054600160ff909116105b806115995750303b158015611599575060005460ff166001145b611625576040517f08c379a000000000000000000000000000000000000000000000000000000000815260206004820152602e60248201527f496e697469616c697a61626c653a20636f6e747261637420697320616c72656160448201527f647920696e697469616c697a656400000000000000000000000000000000000060648201526084016109cd565b600080547fffffffffffffffffffffffffffffffffffffffffffffffffffffffffffffff00166001179055801561168357600080547fffffffffffffffffffffffffffffffffffffffffffffffffffffffffffff00ff166101001790555b61168b611934565b61169484611411565b61169d836110cc565b6116a682610925565b6116af8561135a565b801561171257600080547fffffffffffffffffffffffffffffffffffffffffffffffffffffffffffff00ff169055604051600181527f7f26b83ff96e1f2b6a682f133852f6798a09c465da95921460cefb38474024989060200160405180910390a15b5050505050565b600061121a8585858561172e86808385612056565b60685473ffffffffffffffffffffffffffffffffffffffff16610651565b60655460609061121a9060039063ffffffff167f000000000000000000000000000000000000000000000000000000000000000033898989896119d3565b805160209091012090565b60335473ffffffffffffffffffffffffffffffffffffffff163314610a95576040517f08c379a000000000000000000000000000000000000000000000000000000000815260206004820181905260248201527f4f776e61626c653a2063616c6c6572206973206e6f7420746865206f776e657260448201526064016109cd565b6033805473ffffffffffffffffffffffffffffffffffffffff8381167fffffffffffffffffffffffff0000000000000000000000000000000000000000831681179093556040519116919082907f8be0079c531659141344cd1fd0a4f28419497f9722a3daafe3b4186f6b6457e090600090a35050565b600061189c6001828486612056565b6118a5916120b9565b60f81c90505b92915050565b60006118c1602d60298486612056565b6118ca91612101565b60e01c9392505050565b60006118e86118e38484611a11565b611a21565b9392505050565b60006118ff602960098486612056565b6118e891612147565b60006118c1600960058486612056565b36600061192883604d8187612056565b915091505b9250929050565b600054610100900460ff166119cb576040517f08c379a000000000000000000000000000000000000000000000000000000000815260206004820152602b60248201527f496e697469616c697a61626c653a20636f6e7472616374206973206e6f74206960448201527f6e697469616c697a696e6700000000000000000000000000000000000000000060648201526084016109cd565b610a95611aca565b606088888888888888886040516020016119f4989796959493929190612183565b604051602081830303815290604052905098975050505050505050565b60006118ff604d602d8486612056565b600073ffffffffffffffffffffffffffffffffffffffff821115611ac6576040517f08c379a0000000000000000000000000000000000000000000000000000000008152602060048201526024808201527f5479706543617374733a2062797465733332546f41646472657373206f76657260448201527f666c6f770000000000000000000000000000000000000000000000000000000060648201526084016109cd565b5090565b600054610100900460ff16611b61576040517f08c379a000000000000000000000000000000000000000000000000000000000815260206004820152602b60248201527f496e697469616c697a61626c653a20636f6e7472616374206973206e6f74206960448201527f6e697469616c697a696e6700000000000000000000000000000000000000000060648201526084016109cd565b610a9533611816565b600060208284031215611b7c57600080fd5b5035919050565b803563ffffffff81168114611b9757600080fd5b919050565b60008083601f840112611bae57600080fd5b50813567ffffffffffffffff811115611bc657600080fd5b60208301915083602082850101111561192d57600080fd5b73ffffffffffffffffffffffffffffffffffffffff8116811461140e57600080fd5b600080600080600080600060a0888a031215611c1b57600080fd5b611c2488611b83565b965060208801359550604088013567ffffffffffffffff80821115611c4857600080fd5b611c548b838c01611b9c565b909750955060608a0135915080821115611c6d57600080fd5b50611c7a8a828b01611b9c565b9094509250506080880135611c8e81611bde565b8091505092959891949750929550565b600060208284031215611cb057600080fd5b81356118e881611bde565b60008060008060008060808789031215611cd457600080fd5b611cdd87611b83565b955060208701359450604087013567ffffffffffffffff80821115611d0157600080fd5b611d0d8a838b01611b9c565b90965094506060890135915080821115611d2657600080fd5b50611d3389828a01611b9c565b979a9699509497509295939492505050565b60008060008060408587031215611d5b57600080fd5b843567ffffffffffffffff80821115611d7357600080fd5b611d7f88838901611b9c565b90965094506020870135915080821115611d9857600080fd5b50611da587828801611b9c565b95989497509550505050565b60005b83811015611dcc578181015183820152602001611db4565b50506000910152565b60008151808452611ded816020860160208601611db1565b601f017fffffffffffffffffffffffffffffffffffffffffffffffffffffffffffffffe0169290920160200192915050565b6020815260006118e86020830184611dd5565b60008060008060608587031215611e4857600080fd5b611e5185611b83565b935060208501359250604085013567ffffffffffffffff811115611e7457600080fd5b611da587828801611b9c565b60008060008060808587031215611e9657600080fd5b8435611ea181611bde565b93506020850135611eb181611bde565b92506040850135611ec181611bde565b91506060850135611ed181611bde565b939692955090935050565b7f4e487b7100000000000000000000000000000000000000000000000000000000600052601160045260246000fd5b63ffffffff818116838216019080821115611f2857611f28611edc565b5092915050565b8183528181602085013750600060208284010152600060207fffffffffffffffffffffffffffffffffffffffffffffffffffffffffffffffe0601f840116840101905092915050565b604081526000611f8c604083018587611f2f565b8281036020840152611f9e8185611dd5565b9695505050505050565b600060208284031215611fba57600080fd5b5051919050565b818103818111156118ab576118ab611edc565b604081526000611fe8604083018688611f2f565b8281036020840152610a78818587611f2f565b60006020828403121561200d57600080fd5b815180151581146118e857600080fd5b63ffffffff85168152836020820152606060408201526000611f9e606083018486611f2f565b808201808211156118ab576118ab611edc565b6000808585111561206657600080fd5b8386111561207357600080fd5b5050820193919092039150565b60008251612092818460208701611db1565b9190910192915050565b6000602082840312156120ae57600080fd5b81516118e881611bde565b7fff0000000000000000000000000000000000000000000000000000000000000081358181169160018510156120f95780818660010360031b1b83161692505b505092915050565b7fffffffff0000000000000000000000000000000000000000000000000000000081358181169160048510156120f95760049490940360031b84901b1690921692915050565b803560208310156118ab577fffffffffffffffffffffffffffffffffffffffffffffffffffffffffffffffff602084900360031b1b1692915050565b7fff000000000000000000000000000000000000000000000000000000000000008960f81b16815260007fffffffff00000000000000000000000000000000000000000000000000000000808a60e01b166001840152808960e01b166005840152876009840152808760e01b1660298401525084602d8301528284604d8401375060009101604d0190815297965050505050505056fea264697066735822122089e343c3c76c3bb5d51bcd427a98d13ad83b5dc08fd999b74290eefaa032339c64736f6c63430008160033","linkReferences":{}},"methodIdentifiers":{"PACKAGE_VERSION()":"93c44847","VERSION()":"ffa1ad74","defaultHook()":"3d1250b7","defaultIsm()":"6e5f516e","delivered(bytes32)":"e495f1d4","deployedBlock()":"82ea7bfe","dispatch(uint32,bytes32,bytes)":"fa31de01","dispatch(uint32,bytes32,bytes,bytes)":"48aee8d4","dispatch(uint32,bytes32,bytes,bytes,address)":"10b83dc0","initialize(address,address,address,address)":"f8c8765e","latestDispatchedId()":"134fbb4f","localDomain()":"8d3638f4","nonce()":"affed0e0","owner()":"8da5cb5b","process(bytes,bytes)":"7c39d130","processedAt(bytes32)":"07a2fda1","processor(bytes32)":"5d1fe5a9","quoteDispatch(uint32,bytes32,bytes)":"9c42bd18","quoteDispatch(uint32,bytes32,bytes,bytes)":"f7ccd321","quoteDispatch(uint32,bytes32,bytes,bytes,address)":"81d2ea95","recipientIsm(address)":"e70f48ac","renounceOwnership()":"715018a6","requiredHook()":"d6d08a09","setDefaultHook(address)":"99b04809","setDefaultIsm(address)":"f794687a","setRequiredHook(address)":"1426b7f4","transferOwnership(address)":"f2fde38b"},"id":212}