{"abi":[{"type":"constructor","inputs":[{"name":"_mailbox","type":"address","internalType":"address"}],"stateMutability":"nonpayable"},{"type":"function","name":"PACKAGE_VERSION","inputs":[],"outputs":[{"name":"","type":"string","internalType":"string"}],"stateMutability":"view"},{"type":"function","name":"count","inputs":[],"outputs":[{"name":"","type":"uint32","internalType":"uint32"}],"stateMutability":"view"},{"type":"function","name":"deployedBlock","inputs":[],"outputs":[{"name":"","type":"uint256","internalType":"uint256"}],"stateMutability":"view"},{"type":"function","name":"hook","inputs":[],"outputs":[{"name":"","type":"address","internalType":"contract IPostDispatchHook"}],"stateMutability":"view"},{"type":"function","name":"hookType","inputs":[],"outputs":[{"name":"","type":"uint8","internalType":"uint8"}],"stateMutability":"pure"},{"type":"function","name":"interchainSecurityModule","inputs":[],"outputs":[{"name":"","type":"address","internalType":"contract IInterchainSecurityModule"}],"stateMutability":"view"},{"type":"function","name":"latestCheckpoint","inputs":[],"outputs":[{"name":"","type":"bytes32","internalType":"bytes32"},{"name":"","type":"uint32","internalType":"uint32"}],"stateMutability":"view"},{"type":"function","name":"localDomain","inputs":[],"outputs":[{"name":"","type":"uint32","internalType":"uint32"}],"stateMutability":"view"},{"type":"function","name":"mailbox","inputs":[],"outputs":[{"name":"","type":"address","internalType":"contract IMailbox"}],"stateMutability":"view"},{"type":"function","name":"owner","inputs":[],"outputs":[{"name":"","type":"address","internalType":"address"}],"stateMutability":"view"},{"type":"function","name":"postDispatch","inputs":[{"name":"metadata","type":"bytes","internalType":"bytes"},{"name":"message","type":"bytes","internalType":"bytes"}],"outputs":[],"stateMutability":"payable"},{"type":"function","name":"quoteDispatch","inputs":[{"name":"metadata","type":"bytes","internalType":"bytes"},{"name":"message","type":"bytes","internalType":"bytes"}],"outputs":[{"name":"","type":"uint256","internalType":"uint256"}],"stateMutability":"view"},{"type":"function","name":"renounceOwnership","inputs":[],"outputs":[],"stateMutability":"nonpayable"},{"type":"function","name":"root","inputs":[],"outputs":[{"name":"","type":"bytes32","internalType":"bytes32"}],"stateMutability":"view"},{"type":"function","name":"setHook","inputs":[{"name":"_hook","type":"address","internalType":"address"}],"outputs":[],"stateMutability":"nonpayable"},{"type":"function","name":"setInterchainSecurityModule","inputs":[{"name":"_module","type":"address","internalType":"address"}],"outputs":[],"stateMutability":"nonpayable"},{"type":"function","name":"supportsMetadata","inputs":[{"name":"metadata","type":"bytes","internalType":"bytes"}],"outputs":[{"name":"","type":"bool","internalType":"bool"}],"stateMutability":"pure"},{"type":"function","name":"transferOwnership","inputs":[{"name":"newOwner","type":"address","internalType":"address"}],"outputs":[],"stateMutability":"nonpayable"},{"type":"function","name":"tree","inputs":[],"outputs":[{"name":"","type":"tuple","internalType":"struct MerkleLib.Tree","components":[{"name":"branch","type":"bytes32[32]","internalType":"bytes32[32]"},{"name":"count","type":"uint256","internalType":"uint256"}]}],"stateMutability":"view"},{"type":"event","name":"HookSet","inputs":[{"name":"_hook","type":"address","indexed":false,"internalType":"address"}],"anonymous":false},{"type":"event","name":"Initialized","inputs":[{"name":"version","type":"uint8","indexed":false,"internalType":"uint8"}],"anonymous":false},{"type":"event","name":"InsertedIntoTree","inputs":[{"name":"messageId","type":"bytes32","indexed":false,"internalType":"bytes32"},{"name":"index","type":"uint32","indexed":false,"internalType":"uint32"}],"anonymous":false},{"type":"event","name":"IsmSet","inputs":[{"name":"_ism","type":"address","indexed":false,"internalType":"address"}],"anonymous":false},{"type":"event","name":"OwnershipTransferred","inputs":[{"name":"previousOwner","type":"address","indexed":true,"internalType":"address"},{"name":"newOwner","type":"address","indexed":true,"internalType":"address"}],"anonymous":false}],"bytecode":{"object":"0x60e06040523480156200001157600080fd5b5060405162001b7c38038062001b7c833981016040819052620000349162000176565b80806001600160a01b0381163b620000925760405162461bcd60e51b815260206004820152601e60248201527f4d61696c626f78436c69656e743a20696e76616c6964206d61696c626f780000604482015260640160405180910390fd5b6001600160a01b03821660808190526040805163234d8e3d60e21b81529051638d3638f4916004808201926020929091908290030181865afa158015620000dd573d6000803e3d6000fd5b505050506040513d601f19601f82011682018060405250810190620001039190620001a8565b63ffffffff1660a052620001173362000124565b50504360c05250620001d0565b603380546001600160a01b038381166001600160a01b0319831681179093556040519116919082907f8be0079c531659141344cd1fd0a4f28419497f9722a3daafe3b4186f6b6457e090600090a35050565b6000602082840312156200018957600080fd5b81516001600160a01b0381168114620001a157600080fd5b9392505050565b600060208284031215620001bb57600080fd5b815163ffffffff81168114620001a157600080fd5b60805160a05160c051611975620002076000396000610242015260006102840152600081816103880152610ce601526119756000f3fe6080604052600436106101445760003560e01c8063907c0f92116100c0578063e445e7dd11610074578063ebf0c71711610059578063ebf0c7171461042e578063f2fde38b14610443578063fd54b2281461046357600080fd5b8063e445e7dd146103d7578063e5320bb9146103fe57600080fd5b8063aaccd230116100a5578063aaccd23014610356578063d5438eae14610376578063de523cf3146103aa57600080fd5b8063907c0f92146102d157806393c448471461030057600080fd5b8063715018a61161011757806382ea7bfe116100fc57806382ea7bfe146102305780638d3638f4146102725780638da5cb5b146102a657600080fd5b8063715018a6146101c95780637f5a7c7b146101de57600080fd5b806306661abd14610149578063086011b9146101745780630e72cc06146101895780633dfd3873146101a9575b600080fd5b34801561015557600080fd5b5060b7545b60405163ffffffff90911681526020015b60405180910390f35b6101876101823660046114c4565b610485565b005b34801561019557600080fd5b506101876101a4366004611530565b610532565b3480156101b557600080fd5b506101876101c4366004611530565b61067b565b3480156101d557600080fd5b506101876107bc565b3480156101ea57600080fd5b5060655461020b9073ffffffffffffffffffffffffffffffffffffffff1681565b60405173ffffffffffffffffffffffffffffffffffffffff909116815260200161016b565b34801561023c57600080fd5b506102647f000000000000000000000000000000000000000000000000000000000000000081565b60405190815260200161016b565b34801561027e57600080fd5b5061015a7f000000000000000000000000000000000000000000000000000000000000000081565b3480156102b257600080fd5b5060335473ffffffffffffffffffffffffffffffffffffffff1661020b565b3480156102dd57600080fd5b506102e66107d0565b6040805192835263ffffffff90911660208301520161016b565b34801561030c57600080fd5b506103496040518060400160405280600581526020017f352e382e3200000000000000000000000000000000000000000000000000000081525081565b60405161016b919061156d565b34801561036257600080fd5b506102646103713660046114c4565b6107f8565b34801561038257600080fd5b5061020b7f000000000000000000000000000000000000000000000000000000000000000081565b3480156103b657600080fd5b5060665461020b9073ffffffffffffffffffffffffffffffffffffffff1681565b3480156103e357600080fd5b506103ec61089b565b60405160ff909116815260200161016b565b34801561040a57600080fd5b5061041e6104193660046115da565b6108a5565b604051901515815260200161016b565b34801561043a57600080fd5b506102646108ca565b34801561044f57600080fd5b5061018761045e366004611530565b6108d6565b34801561046f57600080fd5b5061047861098d565b60405161016b919061161c565b61048f84846108a5565b610520576040517f08c379a000000000000000000000000000000000000000000000000000000000815260206004820152603260248201527f4162737472616374506f73744469737061746368486f6f6b3a20696e76616c6960448201527f64206d657461646174612076617269616e74000000000000000000000000000060648201526084015b60405180910390fd5b61052c848484846109dc565b50505050565b8073ffffffffffffffffffffffffffffffffffffffff81163b15158061056c575073ffffffffffffffffffffffffffffffffffffffff8116155b6105f8576040517f08c379a000000000000000000000000000000000000000000000000000000000815260206004820152602760248201527f4d61696c626f78436c69656e743a20696e76616c696420636f6e74726163742060448201527f73657474696e67000000000000000000000000000000000000000000000000006064820152608401610517565b610600610b7a565b606680547fffffffffffffffffffffffff00000000000000000000000000000000000000001673ffffffffffffffffffffffffffffffffffffffff84169081179091556040519081527fc47cbcc588c67679e52261c45cc315e56562f8d0ccaba16facb9093ff9498799906020015b60405180910390a15050565b8073ffffffffffffffffffffffffffffffffffffffff81163b1515806106b5575073ffffffffffffffffffffffffffffffffffffffff8116155b610741576040517f08c379a000000000000000000000000000000000000000000000000000000000815260206004820152602760248201527f4d61696c626f78436c69656e743a20696e76616c696420636f6e74726163742060448201527f73657474696e67000000000000000000000000000000000000000000000000006064820152608401610517565b610749610b7a565b606580547fffffffffffffffffffffffff00000000000000000000000000000000000000001673ffffffffffffffffffffffffffffffffffffffff84169081179091556040519081527f4eab7b127c764308788622363ad3e9532de3dfba7845bd4f84c125a22544255a9060200161066f565b6107c4610b7a565b6107ce6000610bfb565b565b6000806107db6108ca565b60016107e660b75490565b6107f0919061168e565b915091509091565b600061080485856108a5565b610890576040517f08c379a000000000000000000000000000000000000000000000000000000000815260206004820152603260248201527f4162737472616374506f73744469737061746368486f6f6b3a20696e76616c6960448201527f64206d657461646174612076617269616e7400000000000000000000000000006064820152608401610517565b600095945050505050565b600060035b905090565b60008115806108c1575060016108bb8484610c72565b61ffff16145b90505b92915050565b60006108a06097610cc3565b6108de610b7a565b73ffffffffffffffffffffffffffffffffffffffff8116610981576040517f08c379a000000000000000000000000000000000000000000000000000000000815260206004820152602660248201527f4f776e61626c653a206e6577206f776e657220697320746865207a65726f206160448201527f64647265737300000000000000000000000000000000000000000000000000006064820152608401610517565b61098a81610bfb565b50565b61099561143c565b60408051610440810180835290916097918391820190839060209082845b8154815260200190600101908083116109b3575050509183525050602091820154910152919050565b3415610a6a576040517f08c379a000000000000000000000000000000000000000000000000000000000815260206004820152602160248201527f4d65726b6c6554726565486f6f6b3a206e6f2076616c7565206578706563746560448201527f64000000000000000000000000000000000000000000000000000000000000006064820152608401610517565b6000610aab83838080601f016020809104026020016040519081016040528093929190818152602001838380828437600092019190915250610cd692505050565b9050610ab681610ce1565b610b1c576040517f08c379a000000000000000000000000000000000000000000000000000000000815260206004820152601760248201527f6d657373616765206e6f74206469737061746368696e670000000000000000006044820152606401610517565b6000610b2760b75490565b9050610b34609783610d7a565b6040805183815263ffffffff831660208201527f253a3a04cab70d47c1504809242d9350cd81627b4f1d50753e159cf8cd76ed33910160405180910390a1505050505050565b60335473ffffffffffffffffffffffffffffffffffffffff1633146107ce576040517f08c379a000000000000000000000000000000000000000000000000000000000815260206004820181905260248201527f4f776e61626c653a2063616c6c6572206973206e6f7420746865206f776e65726044820152606401610517565b6033805473ffffffffffffffffffffffffffffffffffffffff8381167fffffffffffffffffffffffff0000000000000000000000000000000000000000831681179093556040519116919082907f8be0079c531659141344cd1fd0a4f28419497f9722a3daafe3b4186f6b6457e090600090a35050565b6000610c7f8160026116b2565b60ff16821015610c91575060006108c4565b82600083610ca08260026116b2565b60ff1692610cb0939291906116cb565b610cb9916116f5565b60f01c9392505050565b60006108c482610cd1610eb4565b611375565b805160209091012090565b6000817f000000000000000000000000000000000000000000000000000000000000000073ffffffffffffffffffffffffffffffffffffffff1663134fbb4f6040518163ffffffff1660e01b8152600401602060405180830381865afa158015610d4f573d6000803e3d6000fd5b505050506040513d601f19601f82011682018060405250810190610d73919061173b565b1492915050565b6001610d8860206002611874565b610d929190611880565b826020015410610dfe576040517f08c379a000000000000000000000000000000000000000000000000000000000815260206004820152601060248201527f6d65726b6c6520747265652066756c6c000000000000000000000000000000006044820152606401610517565b6001826020016000828254610e139190611893565b9091555050602082015460005b6020811015610ea65781600116600103610e4f5782848260208110610e4757610e476118a6565b015550505050565b838160208110610e6157610e616118a6565b01546040805160208101929092528101849052606001604051602081830303815290604052805190602001209250600282610e9c91906118d5565b9150600101610e20565b50610eaf611910565b505050565b610ebc61145c565b600081527fad3228b676f7d3cd4284a5443f17f1962b36e491b30a40b2405849e597ba5fb560208201527fb4c11951957c6f8f642c4af61cd6b24640fec6dc7fc607ee8206a99e92410d3060408201527f21ddb9a356815c3fac1026b6dec5df3124afbadb485c9ba5a3e3398a04b7ba8560608201527fe58769b32a1beaf1ea27375a44095a0d1fb664ce2dd358e7fcbfb78c26a1934460808201527f0eb01ebfc9ed27500cd4dfc979272d1f0913cc9f66540d7e8005811109e1cf2d60a08201527f887c22bd8750d34016ac3c66b5ff102dacdd73f6b014e710b51e8022af9a196860c08201527fffd70157e48063fc33c97a050f7f640233bf646cc98d9524c6b92bcf3ab56f8360e08201527f9867cc5f7f196b93bae1e27e6320742445d290f2263827498b54fec539f756af6101008201527fcefad4e508c098b9a7e1d8feb19955fb02ba9675585078710969d3440f5054e06101208201527ff9dc3e7fe016e050eff260334f18a5d4fe391d82092319f5964f2e2eb7c1c3a56101408201527ff8b13a49e282f609c317a833fb8d976d11517c571d1221a265d25af778ecf8926101608201527f3490c6ceeb450aecdc82e28293031d10c7d73bf85e57bf041a97360aa2c5d99c6101808201527fc1df82d9c4b87413eae2ef048f94b4d3554cea73d92b0f7af96e0271c691e2bb6101a08201527f5c67add7c6caf302256adedf7ab114da0acfe870d449a3a489f781d659e8becc6101c08201527fda7bce9f4e8618b6bd2f4132ce798cdc7a60e7e1460a7299e3c6342a579626d26101e08201527f2733e50f526ec2fa19a22b31e8ed50f23cd1fdf94c9154ed3a7609a2f1ff981f6102008201527fe1d3b5c807b281e4683cc6d6315cf95b9ade8641defcb32372f1c126e398ef7a6102208201527f5a2dce0a8a7f68bb74560f8f71837c2c2ebbcbf7fffb42ae1896f13f7c7479a06102408201527fb46a28b6f55540f89444f63de0378e3d121be09e06cc9ded1c20e65876d36aa06102608201527fc65e9645644786b620e2dd2ad648ddfcbf4a7e5b1a3a4ecfe7f64667a3f0b7e26102808201527ff4418588ed35a2458cffeb39b93d26f18d2ab13bdce6aee58e7b99359ec2dfd96102a08201527f5a9c16dc00d6ef18b7933a6f8dc65ccb55667138776f7dea101070dc8796e3776102c08201527f4df84f40ae0c8229d0d6069e5c8f39a7c299677a09d367fc7b05e3bc380ee6526102e08201527fcdc72595f74c7b1043d0e1ffbab734648c838dfb0527d971b602bc216c9619ef6103008201527f0abf5ac974a1ed57f4050aa510dd9c74f508277b39d7973bb2dfccc5eeb0618d6103208201527fb8cd74046ff337f0a7bf2c8e03e10f642c1886798d71806ab1e888d9e5ee87d06103408201527f838c5655cb21c6cb83313b5a631175dff4963772cce9108188b34ac87c81c41e6103608201527f662ee4dd2dd7b2bc707961b1e646c4047669dcb6584f0d8d770daf5d7e7deb2e6103808201527f388ab20e2573d171a88108e79d820e98f26c0b84aa8b2f4aa4968dbb818ea3226103a08201527f93237c50ba75ee485f4c22adf2f741400bdf8d6a9cc7df7ecae576221665d7356103c08201527f8448818bb4ae4562849e949e17ac16e0be16688e156b5cf15e098c627c0056a96103e082015290565b6020820154600090815b602081101561143457600182821c1660008683602081106113a2576113a26118a6565b01549050816001036113df57604080516020810183905290810186905260600160405160208183030381529060405280519060200120945061142a565b848684602081106113f2576113f26118a6565b6020020151604051602001611411929190918252602082015260400190565b6040516020818303038152906040528051906020012094505b505060010161137f565b505092915050565b604051806040016040528061144f61145c565b8152602001600081525090565b6040518061040001604052806020906020820280368337509192915050565b60008083601f84011261148d57600080fd5b50813567ffffffffffffffff8111156114a557600080fd5b6020830191508360208285010111156114bd57600080fd5b9250929050565b600080600080604085870312156114da57600080fd5b843567ffffffffffffffff808211156114f257600080fd5b6114fe8883890161147b565b9096509450602087013591508082111561151757600080fd5b506115248782880161147b565b95989497509550505050565b60006020828403121561154257600080fd5b813573ffffffffffffffffffffffffffffffffffffffff8116811461156657600080fd5b9392505050565b60006020808352835180602085015260005b8181101561159b5785810183015185820160400152820161157f565b5060006040828601015260407fffffffffffffffffffffffffffffffffffffffffffffffffffffffffffffffe0601f8301168501019250505092915050565b600080602083850312156115ed57600080fd5b823567ffffffffffffffff81111561160457600080fd5b6116108582860161147b565b90969095509350505050565b81516104208201908260005b6020808210611637575061164b565b835183529283019290910190600101611628565b505050602083015161040083015292915050565b7f4e487b7100000000000000000000000000000000000000000000000000000000600052601160045260246000fd5b63ffffffff8281168282160390808211156116ab576116ab61165f565b5092915050565b60ff81811683821601908111156108c4576108c461165f565b600080858511156116db57600080fd5b838611156116e857600080fd5b5050820193919092039150565b7fffff00000000000000000000000000000000000000000000000000000000000081358181169160028510156114345760029490940360031b84901b1690921692915050565b60006020828403121561174d57600080fd5b5051919050565b600181815b808511156117ad57817fffffffffffffffffffffffffffffffffffffffffffffffffffffffffffffffff048211156117935761179361165f565b808516156117a057918102915b93841c9390800290611759565b509250929050565b6000826117c4575060016108c4565b816117d1575060006108c4565b81600181146117e757600281146117f15761180d565b60019150506108c4565b60ff8411156118025761180261165f565b50506001821b6108c4565b5060208310610133831016604e8410600b8410161715611830575081810a6108c4565b61183a8383611754565b807fffffffffffffffffffffffffffffffffffffffffffffffffffffffffffffffff0482111561186c5761186c61165f565b029392505050565b60006108c183836117b5565b818103818111156108c4576108c461165f565b808201808211156108c4576108c461165f565b7f4e487b7100000000000000000000000000000000000000000000000000000000600052603260045260246000fd5b60008261190b577f4e487b7100000000000000000000000000000000000000000000000000000000600052601260045260246000fd5b500490565b7f4e487b7100000000000000000000000000000000000000000000000000000000600052600160045260246000fdfea2646970667358221220eaf204abf93b45a14e3d2e17a4acf89a188c3a839bd93849082d958e637d157164736f6c63430008160033","linkReferences":{}},"methodIdentifiers":{"PACKAGE_VERSION()":"93c44847","count()":"06661abd","deployedBlock()":"82ea7bfe","hook()":"7f5a7c7b","hookType()":"e445e7dd","interchainSecurityModule()":"de523cf3","latestCheckpoint()":"907c0f92","localDomain()":"8d3638f4","mailbox()":"d5438eae","owner()":"8da5cb5b","postDispatch(bytes,bytes)":"086011b9","quoteDispatch(bytes,bytes)":"aaccd230","renounceOwnership()":"715018a6","root()":"ebf0c717","setHook(address)":"3dfd3873","setInterchainSecurityModule(address)":"0e72cc06","supportsMetadata(bytes)":"e5320bb9","transferOwnership(address)":"f2fde38b","tree()":"fd54b228"},"id":222}