{"abi":[{"type":"constructor","inputs":[{"name":"owner","type":"address","internalType":"address"}],"stateMutability":"nonpayable"},{"type":"function","name":"PACKAGE_VERSION","inputs":[],"outputs":[{"name":"","type":"string","internalType":"string"}],"stateMutability":"view"},{"type":"function","name":"moduleType","inputs":[],"outputs":[{"name":"","type":"uint8","internalType":"uint8"}],"stateMutability":"view"},{"type":"function","name":"owner","inputs":[],"outputs":[{"name":"","type":"address","internalType":"address"}],"stateMutability":"view"},{"type":"function","name":"pause","inputs":[],"outputs":[],"stateMutability":"nonpayable"},{"type":"function","name":"paused","inputs":[],"outputs":[{"name":"","type":"bool","internalType":"bool"}],"stateMutability":"view"},{"type":"function","name":"renounceOwnership","inputs":[],"outputs":[],"stateMutability":"nonpayable"},{"type":"function","name":"transferOwnership","inputs":[{"name":"newOwner","type":"address","internalType":"address"}],"outputs":[],"stateMutability":"nonpayable"},{"type":"function","name":"unpause","inputs":[],"outputs":[],"stateMutability":"nonpayable"},{"type":"function","name":"verify","inputs":[{"name":"","type":"bytes","internalType":"bytes"},{"name":"","type":"bytes","internalType":"bytes"}],"outputs":[{"name":"","type":"bool","internalType":"bool"}],"stateMutability":"view"},{"type":"event","name":"OwnershipTransferred","inputs":[{"name":"previousOwner","type":"address","indexed":true,"internalType":"address"},{"name":"newOwner","type":"address","indexed":true,"internalType":"address"}],"anonymous":false},{"type":"event","name":"Paused","inputs":[{"name":"account","type":"address","indexed":false,"internalType":"address"}],"anonymous":false},{"type":"event","name":"Unpaused","inputs":[{"name":"account","type":"address","indexed":false,"internalType":"address"}],"anonymous":false}],"bytecode":{"object":"0x608060405234801561001057600080fd5b5060405161080f38038061080f83398101604081905261002f916100a4565b61003833610054565b6000805460ff60a01b1916905561004e81610054565b506100d4565b600080546001600160a01b038381166001600160a01b0319831681178455604051919092169283917f8be0079c531659141344cd1fd0a4f28419497f9722a3daafe3b4186f6b6457e09190a35050565b6000602082840312156100b657600080fd5b81516001600160a01b03811681146100cd57600080fd5b9392505050565b61072c806100e36000396000f3fe608060405234801561001057600080fd5b50600436106100a35760003560e01c80638456cb591161007657806393c448471161005b57806393c4484714610138578063f2fde38b14610181578063f7e83aee1461019457600080fd5b80638456cb59146101085780638da5cb5b1461011057600080fd5b80633f4ba83a146100a85780635c975abb146100b25780636465e69f146100e6578063715018a614610100575b600080fd5b6100b06101a7565b005b60005474010000000000000000000000000000000000000000900460ff165b60405190151581526020015b60405180910390f35b6100ee600681565b60405160ff90911681526020016100dd565b6100b06101b9565b6100b06101cb565b60005460405173ffffffffffffffffffffffffffffffffffffffff90911681526020016100dd565b6101746040518060400160405280600581526020017f352e382e3200000000000000000000000000000000000000000000000000000081525081565b6040516100dd9190610597565b6100b061018f366004610604565b6101db565b6100d16101a236600461068a565b610297565b6101af6102ac565b6101b761032d565b565b6101c16102ac565b6101b760006103aa565b6101d36102ac565b6101b761041f565b6101e36102ac565b73ffffffffffffffffffffffffffffffffffffffff811661028b576040517f08c379a000000000000000000000000000000000000000000000000000000000815260206004820152602660248201527f4f776e61626c653a206e6577206f776e657220697320746865207a65726f206160448201527f646472657373000000000000000000000000000000000000000000000000000060648201526084015b60405180910390fd5b610294816103aa565b50565b60006102a161048e565b506001949350505050565b60005473ffffffffffffffffffffffffffffffffffffffff1633146101b7576040517f08c379a000000000000000000000000000000000000000000000000000000000815260206004820181905260248201527f4f776e61626c653a2063616c6c6572206973206e6f7420746865206f776e65726044820152606401610282565b610335610513565b600080547fffffffffffffffffffffff00ffffffffffffffffffffffffffffffffffffffff1690557f5db9ee0a495bf2e6ff9c91a7834c1ba4fdd244a5e8aa4e537bd38aeae4b073aa335b60405173ffffffffffffffffffffffffffffffffffffffff909116815260200160405180910390a1565b6000805473ffffffffffffffffffffffffffffffffffffffff8381167fffffffffffffffffffffffff0000000000000000000000000000000000000000831681178455604051919092169283917f8be0079c531659141344cd1fd0a4f28419497f9722a3daafe3b4186f6b6457e09190a35050565b61042761048e565b600080547fffffffffffffffffffffff00ffffffffffffffffffffffffffffffffffffffff16740100000000000000000000000000000000000000001790557f62e78cea01bee320cd4e420270b5ea74000d11b0c9f74754ebdbfc544b05a2586103803390565b60005474010000000000000000000000000000000000000000900460ff16156101b7576040517f08c379a000000000000000000000000000000000000000000000000000000000815260206004820152601060248201527f5061757361626c653a20706175736564000000000000000000000000000000006044820152606401610282565b60005474010000000000000000000000000000000000000000900460ff166101b7576040517f08c379a000000000000000000000000000000000000000000000000000000000815260206004820152601460248201527f5061757361626c653a206e6f74207061757365640000000000000000000000006044820152606401610282565b60006020808352835180602085015260005b818110156105c5578581018301518582016040015282016105a9565b5060006040828601015260407fffffffffffffffffffffffffffffffffffffffffffffffffffffffffffffffe0601f8301168501019250505092915050565b60006020828403121561061657600080fd5b813573ffffffffffffffffffffffffffffffffffffffff8116811461063a57600080fd5b9392505050565b60008083601f84011261065357600080fd5b50813567ffffffffffffffff81111561066b57600080fd5b60208301915083602082850101111561068357600080fd5b9250929050565b600080600080604085870312156106a057600080fd5b843567ffffffffffffffff808211156106b857600080fd5b6106c488838901610641565b909650945060208701359150808211156106dd57600080fd5b506106ea87828801610641565b9598949750955050505056fea264697066735822122037eab3f2b2343a1526907ac34659ccf8d2e7345c9aa6b779d44eb446a56e812b64736f6c63430008160033","linkReferences":{}},"methodIdentifiers":{"PACKAGE_VERSION()":"93c44847","moduleType()":"6465e69f","owner()":"8da5cb5b","pause()":"8456cb59","paused()":"5c975abb","renounceOwnership()":"715018a6","transferOwnership(address)":"f2fde38b","unpause()":"3f4ba83a","verify(bytes,bytes)":"f7e83aee"},"id":272}