{
    "contractName": "BaseAccount",
    "abi": [
        {
            "inputs": [
                {
                    "internalType": "address",
                    "name": "_owner",
                    "type": "address"
                },
                {
                    "internalType": "address[]",
                    "name": "_libraries",
                    "type": "address[]"
                }
            ],
            "stateMutability": "nonpayable",
            "type": "constructor"
        },
        {
            "inputs": [
                {
                    "internalType": "address",
                    "name": "_sender",
                    "type": "address"
                }
            ],
            "name": "NotOwnerOrLibrary",
            "type": "error"
        },
        {
            "inputs": [
                {
                    "internalType": "address",
                    "name": "owner",
                    "type": "address"
                }
            ],
            "name": "OwnableInvalidOwner",
            "type": "error"
        },
        {
            "inputs": [
                {
                    "internalType": "address",
                    "name": "account",
                    "type": "address"
                }
            ],
            "name": "OwnableUnauthorizedAccount",
            "type": "error"
        },
        {
            "anonymous": false,
            "inputs": [
                {
                    "indexed": true,
                    "internalType": "address",
                    "name": "previousOwner",
                    "type": "address"
                },
                {
                    "indexed": true,
                    "internalType": "address",
                    "name": "newOwner",
                    "type": "address"
                }
            ],
            "name": "OwnershipTransferred",
            "type": "event"
        },
        {
            "inputs": [
                {
                    "internalType": "address",
                    "name": "_library",
                    "type": "address"
                }
            ],
            "name": "approveLibrary",
            "outputs": [],
            "stateMutability": "nonpayable",
            "type": "function"
        },
        {
            "inputs": [
                {
                    "internalType": "address",
                    "name": "",
                    "type": "address"
                }
            ],
            "name": "approvedLibraries",
            "outputs": [
                {
                    "internalType": "bool",
                    "name": "",
                    "type": "bool"
                }
            ],
            "stateMutability": "view",
            "type": "function"
        },
        {
            "inputs": [
                {
                    "internalType": "address",
                    "name": "_target",
                    "type": "address"
                },
                {
                    "internalType": "uint256",
                    "name": "_value",
                    "type": "uint256"
                },
                {
                    "internalType": "bytes",
                    "name": "_data",
                    "type": "bytes"
                }
            ],
            "name": "execute",
            "outputs": [
                {
                    "internalType": "bytes",
                    "name": "result",
                    "type": "bytes"
                }
            ],
            "stateMutability": "nonpayable",
            "type": "function"
        },
        {
            "inputs": [],
            "name": "owner",
            "outputs": [
                {
                    "internalType": "address",
                    "name": "",
                    "type": "address"
                }
            ],
            "stateMutability": "view",
            "type": "function"
        },
        {
            "inputs": [
                {
                    "internalType": "address",
                    "name": "_library",
                    "type": "address"
                }
            ],
            "name": "removeLibrary",
            "outputs": [],
            "stateMutability": "nonpayable",
            "type": "function"
        },
        {
            "inputs": [],
            "name": "renounceOwnership",
            "outputs": [],
            "stateMutability": "nonpayable",
            "type": "function"
        },
        {
            "inputs": [
                {
                    "internalType": "address",
                    "name": "newOwner",
                    "type": "address"
                }
            ],
            "name": "transferOwnership",
            "outputs": [],
            "stateMutability": "nonpayable",
            "type": "function"
        },
        {
            "stateMutability": "payable",
            "type": "receive"
        }
    ],
    "bytecode": "608060405234610181576106348038038061001981610199565b92833981019060408183031261018157610032816101be565b602082015190916001600160401b03821161018157019180601f84011215610181578251926001600160401b038411610185578360051b90602080610078818501610199565b80978152019282010192831161018157602001905b828210610169575050506001600160a01b03168015610156575f80546001600160a01b03198116831782556001600160a01b0316907f8be0079c531659141344cd1fd0a4f28419497f9722a3daafe3b4186f6b6457e09080a35f5b815160ff821610156101475760ff9060018060a01b036020611fe08360051b1685010151165f52600160205260405f20600183198254161790551660ff8114610133576001016100e8565b634e487b7160e01b5f52601160045260245ffd5b60405161046190816101d38239f35b631e4fbdf760e01b5f525f60045260245ffd5b60208091610176846101be565b81520191019061008d565b5f80fd5b634e487b7160e01b5f52604160045260245ffd5b6040519190601f01601f191682016001600160401b0381118382101761018557604052565b51906001600160a01b03821682036101815756fe6080604052600436101561001a575b3615610018575f80fd5b005b5f3560e01c8063715018a6146100895780638da5cb5b146100845780639c6d1e9b1461007f578063b61d27f61461007a578063f2fde38b14610075578063f3a4b323146100705763fe59a6160361000e57610292565b610251565b6101cc565b610151565b6100ea565b6100ad565b346100a9575f3660031901126100a9576100a16103c6565b6100186103ec565b5f80fd5b346100a9575f3660031901126100a9575f546040516001600160a01b039091168152602090f35b600435906001600160a01b03821682036100a957565b346100a95760203660031901126100a9576001600160a01b0361010b6100d4565b165f526001602052602060ff60405f2054166040519015158152f35b602060409281835280519182918282860152018484015e5f828201840152601f01601f1916010190565b346100a95760603660031901126100a95761016a6100d4565b60443567ffffffffffffffff81116100a957366023820112156100a957806004013567ffffffffffffffff81116100a95736602482840101116100a9576101c89260246101bc93019060243590610350565b60405191829182610127565b0390f35b346100a95760203660031901126100a9576101e56100d4565b6101ed6103c6565b6001600160a01b0316801561023e575f80546001600160a01b03198116831782556001600160a01b0316907f8be0079c531659141344cd1fd0a4f28419497f9722a3daafe3b4186f6b6457e09080a3005b631e4fbdf760e01b5f525f60045260245ffd5b346100a95760203660031901126100a95761026a6100d4565b6102726103c6565b6001600160a01b03165f908152600160205260409020805460ff19169055005b346100a95760203660031901126100a9576102ab6100d4565b6102b36103c6565b6001600160a01b03165f908152600160208190526040909120805460ff19169091179055005b908092918237015f815290565b634e487b7160e01b5f52604160045260245ffd5b3d1561034b573d9067ffffffffffffffff82116103465760405191601f8101601f19908116603f0116830167ffffffffffffffff8111848210176103465760405282523d5f602084013e565b6102e6565b606090565b9092335f52600160205260ff60405f20541615806103b2575b61039d575f938493610380604051809481936102d9565b03925af161038c6102fa565b90156103955790565b805190602001fd5b6312cf89a760e31b5f90815233600452602490fd5b505f546001600160a01b0316331415610369565b5f546001600160a01b031633036103d957565b63118cdaa760e01b5f523360045260245ffd5b5f80546001600160a01b0319811682556001600160a01b03167f8be0079c531659141344cd1fd0a4f28419497f9722a3daafe3b4186f6b6457e08280a356fea264697066735822122070735be52b9109f7211729ab300de1555e74a1b222b9d0d9fd53cfcd8e25bcd864736f6c634300081c0033",
    "sourcePath": "/mnt/extra/Projects/timewave/valence-workflow/solidity/src/accounts/BaseAccount.sol",
    "compiler": {
        "name": "solc",
        "version": "0.8.28+commit.7893614a"
    },
    "functionHashes": {
        "approveLibrary(address)": "fe59a616",
        "approvedLibraries(address)": "9c6d1e9b",
        "execute(address,uint256,bytes)": "b61d27f6",
        "owner()": "8da5cb5b",
        "removeLibrary(address)": "f3a4b323",
        "renounceOwnership()": "715018a6",
        "transferOwnership(address)": "f2fde38b"
    },
    "gasEstimates": {
        "creation": {
            "codeDepositCost": "224200",
            "executionCost": "infinite",
            "totalCost": "infinite"
        },
        "external": {
            "approveLibrary(address)": "26816",
            "approvedLibraries(address)": "2466",
            "execute(address,uint256,bytes)": "infinite",
            "owner()": "2305",
            "removeLibrary(address)": "26780",
            "renounceOwnership()": "28066",
            "transferOwnership(address)": "28262"
        }
    }
}