{
    "contractName": "LiteProcessor",
    "abi": [
        {
            "inputs": [
                {
                    "internalType": "bytes32",
                    "name": "_authorizationContract",
                    "type": "bytes32"
                },
                {
                    "internalType": "address",
                    "name": "_mailbox",
                    "type": "address"
                },
                {
                    "internalType": "uint32",
                    "name": "_originDomain",
                    "type": "uint32"
                },
                {
                    "internalType": "address[]",
                    "name": "_authorizedAddresses",
                    "type": "address[]"
                }
            ],
            "stateMutability": "nonpayable",
            "type": "constructor"
        },
        {
            "inputs": [],
            "name": "InvalidAddress",
            "type": "error"
        },
        {
            "inputs": [],
            "name": "InvalidOriginDomain",
            "type": "error"
        },
        {
            "inputs": [],
            "name": "NotAuthorizationContract",
            "type": "error"
        },
        {
            "inputs": [],
            "name": "ProcessorPaused",
            "type": "error"
        },
        {
            "inputs": [],
            "name": "UnauthorizedAccess",
            "type": "error"
        },
        {
            "inputs": [],
            "name": "UnsupportedOperation",
            "type": "error"
        },
        {
            "anonymous": false,
            "inputs": [
                {
                    "indexed": true,
                    "internalType": "uint64",
                    "name": "executionId",
                    "type": "uint64"
                },
                {
                    "indexed": false,
                    "internalType": "enum IProcessor.ExecutionResult",
                    "name": "result",
                    "type": "uint8"
                },
                {
                    "indexed": false,
                    "internalType": "uint256",
                    "name": "executedCount",
                    "type": "uint256"
                }
            ],
            "name": "CallbackSent",
            "type": "event"
        },
        {
            "anonymous": false,
            "inputs": [],
            "name": "ProcessorPaused",
            "type": "event"
        },
        {
            "anonymous": false,
            "inputs": [],
            "name": "ProcessorResumed",
            "type": "event"
        },
        {
            "inputs": [
                {
                    "components": [
                        {
                            "components": [
                                {
                                    "internalType": "address",
                                    "name": "contractAddress",
                                    "type": "address"
                                }
                            ],
                            "internalType": "struct IProcessorMessageTypes.AtomicFunction[]",
                            "name": "functions",
                            "type": "tuple[]"
                        },
                        {
                            "components": [
                                {
                                    "components": [
                                        {
                                            "internalType": "enum IProcessorMessageTypes.RetryTimesType",
                                            "name": "retryType",
                                            "type": "uint8"
                                        },
                                        {
                                            "internalType": "uint64",
                                            "name": "amount",
                                            "type": "uint64"
                                        }
                                    ],
                                    "internalType": "struct IProcessorMessageTypes.RetryTimes",
                                    "name": "times",
                                    "type": "tuple"
                                },
                                {
                                    "components": [
                                        {
                                            "internalType": "enum IProcessorMessageTypes.DurationType",
                                            "name": "durationType",
                                            "type": "uint8"
                                        },
                                        {
                                            "internalType": "uint64",
                                            "name": "value",
                                            "type": "uint64"
                                        }
                                    ],
                                    "internalType": "struct IProcessorMessageTypes.Duration",
                                    "name": "interval",
                                    "type": "tuple"
                                }
                            ],
                            "internalType": "struct IProcessorMessageTypes.RetryLogic",
                            "name": "retryLogic",
                            "type": "tuple"
                        }
                    ],
                    "internalType": "struct IProcessorMessageTypes.AtomicSubroutine",
                    "name": "atomicSubroutine",
                    "type": "tuple"
                },
                {
                    "internalType": "bytes[]",
                    "name": "messages",
                    "type": "bytes[]"
                }
            ],
            "name": "_executeAtomicSubroutine",
            "outputs": [
                {
                    "internalType": "uint256",
                    "name": "",
                    "type": "uint256"
                }
            ],
            "stateMutability": "nonpayable",
            "type": "function"
        },
        {
            "inputs": [],
            "name": "authorizationContract",
            "outputs": [
                {
                    "internalType": "bytes32",
                    "name": "",
                    "type": "bytes32"
                }
            ],
            "stateMutability": "view",
            "type": "function"
        },
        {
            "inputs": [
                {
                    "internalType": "address",
                    "name": "",
                    "type": "address"
                }
            ],
            "name": "authorizedAddresses",
            "outputs": [
                {
                    "internalType": "bool",
                    "name": "",
                    "type": "bool"
                }
            ],
            "stateMutability": "view",
            "type": "function"
        },
        {
            "inputs": [
                {
                    "internalType": "bytes",
                    "name": "_body",
                    "type": "bytes"
                }
            ],
            "name": "execute",
            "outputs": [],
            "stateMutability": "payable",
            "type": "function"
        },
        {
            "inputs": [
                {
                    "internalType": "uint32",
                    "name": "_origin",
                    "type": "uint32"
                },
                {
                    "internalType": "bytes32",
                    "name": "_sender",
                    "type": "bytes32"
                },
                {
                    "internalType": "bytes",
                    "name": "_body",
                    "type": "bytes"
                }
            ],
            "name": "handle",
            "outputs": [],
            "stateMutability": "payable",
            "type": "function"
        },
        {
            "inputs": [],
            "name": "mailbox",
            "outputs": [
                {
                    "internalType": "contract IMailbox",
                    "name": "",
                    "type": "address"
                }
            ],
            "stateMutability": "view",
            "type": "function"
        },
        {
            "inputs": [],
            "name": "originDomain",
            "outputs": [
                {
                    "internalType": "uint32",
                    "name": "",
                    "type": "uint32"
                }
            ],
            "stateMutability": "view",
            "type": "function"
        },
        {
            "inputs": [],
            "name": "paused",
            "outputs": [
                {
                    "internalType": "bool",
                    "name": "",
                    "type": "bool"
                }
            ],
            "stateMutability": "view",
            "type": "function"
        }
    ],
    "bytecode": "60e0604052346101a25761169680380380610019816101ba565b9283398101906080818303126101a2578051610037602083016101df565b60408301519263ffffffff841684036101a2576060810151906001600160401b0382116101a257019380601f860112156101a2578451946001600160401b0386116101a6578560051b9060208061008f8185016101ba565b8099815201928201019283116101a257602001905b82821061018a575050506001600160a01b031690811561017b5760805260a05260c0525f5b815160ff821610156101275760ff9060018060a01b036020611fe08360051b1685010151165f525f60205260405f20600183198254161790551660ff8114610113576001016100c9565b634e487b7160e01b5f52601160045260245ffd5b6040516114a290816101f482396080518181816101cd0152818161068d0152611351015260a051818181610171015281816106470152611307015260c0518181816101a60152818161060e01526113720152f35b63e6c4247b60e01b5f5260045ffd5b60208091610197846101df565b8152019101906100a4565b5f80fd5b634e487b7160e01b5f52604160045260245ffd5b6040519190601f01601f191682016001600160401b038111838210176101a657604052565b51906001600160a01b03821682036101a25756fe60806040526004361015610011575f80fd5b5f3560e01c806309c5eabe1461009457806356d5d4751461008f5780635c975abb1461008a578063612b9ca014610085578063cee85d7e14610080578063d5438eae1461007b578063d7b4aa11146100765763f19e207e14610071575f80fd5b6106b0565b610676565b610632565b6105f2565b6104ca565b610224565b610132565b6020366003190112610101576004356001600160401b038111610101576100bf903690600401610105565b90335f525f60205260ff60405f205416156100f2576100e66100eb916100f0933691610405565b610841565b6108f2565b005b631a27eac360e11b5f5260045ffd5b5f80fd5b9181601f84011215610101578235916001600160401b038311610101576020838186019501011161010157565b60603660031901126101015760043563ffffffff8116809103610101576044356001600160401b0381116101015761016e903690600401610105565b917f00000000000000000000000000000000000000000000000000000000000000006001600160a01b031633036100f25763ffffffff7f00000000000000000000000000000000000000000000000000000000000000001603610215577f000000000000000000000000000000000000000000000000000000000000000060243503610206576100e66100eb916100f0933691610405565b630cd0b2e560e11b5f5260045ffd5b63f120db3360e01b5f5260045ffd5b34610101575f36600319011261010157602060ff600154166040519015158152f35b634e487b7160e01b5f52604160045260245ffd5b604081019081106001600160401b0382111761027557604052565b610246565b602081019081106001600160401b0382111761027557604052565b608081019081106001600160401b0382111761027557604052565b606081019081106001600160401b0382111761027557604052565b90601f801991011681019081106001600160401b0382111761027557604052565b604051906102fb6060836102cb565b565b604051906102fb6080836102cb565b6001600160401b0381116102755760051b60200190565b6001600160a01b0381160361010157565b6003111561010157565b6001600160401b0381160361010157565b6002111561010157565b809291039160808312610101576040516103728161025a565b80936040811261010157604090815161038a8161025a565b843561039581610334565b815260208501356103a58161033e565b60208201528352603f190112610101576020906060604051936103c78561025a565b60408101356103d58161034f565b855201356103e28161033e565b828401520152565b6001600160401b03811161027557601f01601f191660200190565b929192610411826103ea565b9161041f60405193846102cb565b829481845281830111610101578281602093845f960137010152565b81601f82011215610101578035906104528261030c565b9261046060405194856102cb565b82845260208085019360051b830101918183116101015760208101935b83851061048c57505050505090565b84356001600160401b03811161010157820183603f82011215610101576020916104bf8583604086809601359101610405565b81520194019361047d565b34610101576040366003190112610101576004356001600160401b0381116101015760a06003198236030112610101576040516105068161025a565b81600401356001600160401b0381116101015782019136602384011215610101576004830135926105368461030c565b9061054460405192836102cb565b848252602060048184019660051b830101019036821161010157602401945b8186106105c0578285528461057b3660248701610359565b60208201526024356001600160401b038111610101576105bc916105a66105ac92369060040161043b565b90610784565b6040519081529081906020820190565b0390f35b60208636031261010157602080916040516105da8161027a565b88356105e581610323565b8152815201950194610563565b34610101575f36600319011261010157602060405163ffffffff7f0000000000000000000000000000000000000000000000000000000000000000168152f35b34610101575f366003190112610101576040517f00000000000000000000000000000000000000000000000000000000000000006001600160a01b03168152602090f35b34610101575f3660031901126101015760206040517f00000000000000000000000000000000000000000000000000000000000000008152f35b34610101576020366003190112610101576004356106cd81610323565b60018060a01b03165f525f602052602060ff60405f2054166040519015158152f35b634e487b7160e01b5f52601160045260245ffd5b60ff1660ff81146107145760010190565b6106ef565b805182101561072d5760209160051b010190565b634e487b7160e01b5f52603260045260245ffd5b604051906107506020836102cb565b5f8252565b3d1561077f573d90610766826103ea565b9161077460405193846102cb565b82523d5f602084013e565b606090565b3033036100f2575f5b815180519060ff8316918210156107f157816107c06107ae5f948594610719565b51516001600160a01b03169187610719565b519082602083519301915af16107d4610755565b90156107e957506107e490610703565b61078d565b602081519101fd5b5050509050515190565b81601f8201121561010157805190610812826103ea565b9261082060405194856102cb565b8284526020838301011161010157815f9260208093018386015e8301015290565b606060206040516108518161025a565b5f815201528051810190602081830312610101576020810151906001600160401b03821161010157019060408282031261010157604051916108928361025a565b602081015160058110156101015783526040810151916001600160401b038311610101576108c79260208092019201016107fb565b602082015290565b634e487b7160e01b5f52602160045260245ffd5b600511156108ed57565b6108cf565b805160058110156108ed57610906816108e3565b61091357506102fb610ea1565b60018151610920816108e3565b610929816108e3565b0361093757506102fb610e71565b60038151610944816108e3565b61094d816108e3565b03610a1b5760015460ff16610a0c57602061097391015160208082518301019101610aa8565b61097b610b83565b506040810161098a8151610bac565b61099381610ba2565b6109e1576109b260206109bd9251015160208082518301019101610da0565b6060830151906110f5565b333b6109c7575050565b6109db6102fb92516001600160401b031690565b336111a9565b6109fc6020610a079251015160208082518301019101610c42565b606083015190610eea565b6109bd565b635d96658d60e01b5f5260045ffd5b639ba6061b60e01b5f5260045ffd5b9080601f83011215610101578151610a418161030c565b92610a4f60405194856102cb565b81845260208085019260051b820101918383116101015760208201905b838210610a7b57505050505090565b81516001600160401b03811161010157602091610a9d878480948801016107fb565b815201910190610a6c565b602081830312610101578051906001600160401b03821161010157016080818303126101015760405191610adb83610295565b8151610ae68161033e565b83526020820151610af68161034f565b602084015260408201516001600160401b0381116101015782016040818303126101015760405190610b278261025a565b8051610b328161034f565b82526020810151906001600160401b03821161010157610b54918491016107fb565b6020820152604084015260608201516001600160401b03811161010157610b7b9201610a2a565b606082015290565b60405190610b90826102b0565b60606040835f81525f60208201520152565b600211156108ed57565b51610bb681610ba2565b90565b80929103916080831261010157604051610bd28161025a565b809360408112610101576040908151610bea8161025a565b8451610bf581610334565b81526020850151610c058161033e565b60208201528352603f19011261010157602090606060405193610c278561025a565b6040810151610c358161034f565b855201516103e28161033e565b602081830312610101578051906001600160401b0382116101015701906020828203126101015760405191610c768361027a565b8051906001600160401b03821161010157019080601f8301121561010157815191610ca08361030c565b92610cae60405194856102cb565b80845260208085019160051b830101918383116101015760208101915b838310610cdc575050505050815290565b82516001600160401b0381116101015782019060c0828703601f1901126101015760405191610d0a836102b0565b6020810151610d1881610323565b8352610d278760408301610bb9565b602084015260c08101516001600160401b038111610101576020910101906040828803126101015760405192610d5c8461025a565b8251610d6781610323565b84526020830151936001600160401b03851161010157610d8c896020968796016107fb565b848201526040820152815201920191610ccb565b602081830312610101578051906001600160401b03821161010157019060a0828203126101015760405191610dd48361025a565b80516001600160401b03811161010157810182601f82011215610101578051610dfc8161030c565b91610e0a60405193846102cb565b81835260208084019260051b8201019085821161010157602001915b818310610e3f5750505083526108c79190602001610bb9565b6020838703126101015760208091604051610e598161027a565b8551610e6481610323565b8152815201920191610e26565b60ff19600154166001557fc35b6a410dc984c3f841f64e429d3ba027a3322387f11f5385a8af2f2ccd62265f80a1565b600160ff19815416176001557f5d96658d2cfcd5708b43dfce1c2ad2804dce006538335a41feb4fa6231a178d75f80a1565b63ffffffff1663ffffffff81146107145760010190565b9091610ef4610b83565b505f9260606001855b855180519060ff891691821015610f9a5781610f36610f2f610f215f958695610719565b51516001600160a01b031690565b9188610719565b519082602083519301915af1610f4a610755565b9015610f695750610f5d610f6391610ed3565b96610703565b95610efd565b955093955050505063ffffffff5f92915b610f8c610f856102ec565b9415158552565b166020830152604082015290565b505091939550935063ffffffff9150610f7a565b90816020910312610101575190565b600311156108ed57565b805180835260209291819084018484015e5f828201840152601f01601f1916010190565b9080602083519182815201916020808360051b8301019401925f915b83831061101657505050505090565b9091929394602080611034600193601f198682030187528951610fc7565b97019301930191939290611007565b9092916040825260e082019184519260a060408301528351809152602061010083019401905f5b8181106110ca575050506001600160401b0360208080610bb69798015183828251805161109681610fbd565b60608901520151166080860152015180516110b081610ba2565b60a085015201511660c08201526020818403910152610feb565b8251516001600160a01b031686526020958601959092019160010161106a565b6040513d5f823e3d90fd5b61112091602091611104610b83565b506040516303095ce560e51b8152938492839260048401611043565b03815f305af15f9181611178575b50611156575061113c610755565b6111446102ec565b905f82525f6020830152604082015290565b61115e6102ec565b60018152906020820152611170610741565b604082015290565b61119b91925060203d6020116111a2575b61119381836102cb565b810190610fae565b905f61112e565b503d611189565b6102fb926060806040516111bc81610295565b5f81525f60208201525f604082015201526111d78151151590565b1561121f575f905b61121060406020830151920151926112076111f86102fd565b6001600160401b039097168752565b60208601611238565b604084015260608301526112d9565b6020810151611230576001906111df565b6002906111df565b61124182610fbd565b52565b60a06060610bb693602084526001600160401b038151166020850152602081015161126e81610fbd565b60408501526040810151828501520151916080808201520190610fc7565b906020610bb6928181520190610fc7565b610bb6939263ffffffff60609316825260208201528160408201520190610fc7565b60408101939291602091906112d381610fbd565b81520152565b5f906040516112fd816112ef8660208301611244565b03601f1981018352826102cb565b6001600160a01b037f000000000000000000000000000000000000000000000000000000000000000081169290811683148414611432575060209161139a9160405194858094819363fa31de0160e01b83527f00000000000000000000000000000000000000000000000000000000000000007f00000000000000000000000000000000000000000000000000000000000000006004850161129d565b03925af1801561142d5761140e575b505b7fbf094c62e2005d837b96c60fc68289cca59fce1a2a21891e84805b81359f3ecc6001600160401b036113e583516001600160401b031690565b61140960406020860151956113f987610fbd565b01516040519384931695836112bf565b0390a2565b6114269060203d6020116111a25761119381836102cb565b505f6113a9565b6110ea565b9083809350604051611459816112ef6020820195631c00ff7d60e21b87526024830161128c565b51925af150611466610755565b506113ab56fea2646970667358221220f3745fc9d92556ae0f53191c6c3c9b898cc6aa8ad143a0d1b643ecf93a874a6864736f6c634300081c0033",
    "sourcePath": "/mnt/extra/Projects/timewave/valence-workflow/solidity/src/processor/LiteProcessor.sol",
    "compiler": {
        "name": "solc",
        "version": "0.8.28+commit.7893614a"
    },
    "functionHashes": {
        "_executeAtomicSubroutine(((address)[],((uint8,uint64),(uint8,uint64))),bytes[])": "612b9ca0",
        "authorizationContract()": "d7b4aa11",
        "authorizedAddresses(address)": "f19e207e",
        "execute(bytes)": "09c5eabe",
        "handle(uint32,bytes32,bytes)": "56d5d475",
        "mailbox()": "d5438eae",
        "originDomain()": "cee85d7e",
        "paused()": "5c975abb"
    },
    "gasEstimates": {
        "creation": {
            "codeDepositCost": "1056400",
            "executionCost": "infinite",
            "totalCost": "infinite"
        },
        "external": {
            "_executeAtomicSubroutine(((address)[],((uint8,uint64),(uint8,uint64))),bytes[])": "infinite",
            "authorizationContract()": "infinite",
            "authorizedAddresses(address)": "2569",
            "execute(bytes)": "infinite",
            "handle(uint32,bytes32,bytes)": "infinite",
            "mailbox()": "infinite",
            "originDomain()": "infinite",
            "paused()": "2316"
        },
        "internal": {
            "_handleMessageType(struct IProcessorMessageTypes.ProcessorMessage memory)": "infinite",
            "_handleSendMsgs(struct IProcessorMessageTypes.ProcessorMessage memory)": "infinite"
        }
    }
}