{
    "contractName": "Processor",
    "abi": [
        {
            "inputs": [
                {
                    "internalType": "bytes32",
                    "name": "_authorizationContract",
                    "type": "bytes32"
                },
                {
                    "internalType": "address",
                    "name": "_mailbox",
                    "type": "address"
                },
                {
                    "internalType": "uint32",
                    "name": "_originDomain",
                    "type": "uint32"
                },
                {
                    "internalType": "address[]",
                    "name": "_authorizedAddresses",
                    "type": "address[]"
                }
            ],
            "stateMutability": "nonpayable",
            "type": "constructor"
        },
        {
            "inputs": [],
            "name": "InvalidAddress",
            "type": "error"
        },
        {
            "inputs": [],
            "name": "InvalidOriginDomain",
            "type": "error"
        },
        {
            "inputs": [],
            "name": "NotAuthorizationContract",
            "type": "error"
        },
        {
            "inputs": [],
            "name": "UnauthorizedAccess",
            "type": "error"
        },
        {
            "inputs": [
                {
                    "components": [
                        {
                            "components": [
                                {
                                    "internalType": "address",
                                    "name": "contractAddress",
                                    "type": "address"
                                }
                            ],
                            "internalType": "struct IProcessorMessageTypes.AtomicFunction[]",
                            "name": "functions",
                            "type": "tuple[]"
                        },
                        {
                            "components": [
                                {
                                    "components": [
                                        {
                                            "internalType": "enum IProcessorMessageTypes.RetryTimesType",
                                            "name": "retryType",
                                            "type": "uint8"
                                        },
                                        {
                                            "internalType": "uint64",
                                            "name": "amount",
                                            "type": "uint64"
                                        }
                                    ],
                                    "internalType": "struct IProcessorMessageTypes.RetryTimes",
                                    "name": "times",
                                    "type": "tuple"
                                },
                                {
                                    "components": [
                                        {
                                            "internalType": "enum IProcessorMessageTypes.DurationType",
                                            "name": "durationType",
                                            "type": "uint8"
                                        },
                                        {
                                            "internalType": "uint64",
                                            "name": "value",
                                            "type": "uint64"
                                        }
                                    ],
                                    "internalType": "struct IProcessorMessageTypes.Duration",
                                    "name": "interval",
                                    "type": "tuple"
                                }
                            ],
                            "internalType": "struct IProcessorMessageTypes.RetryLogic",
                            "name": "retryLogic",
                            "type": "tuple"
                        }
                    ],
                    "internalType": "struct IProcessorMessageTypes.AtomicSubroutine",
                    "name": "atomicSubroutine",
                    "type": "tuple"
                },
                {
                    "internalType": "bytes[]",
                    "name": "messages",
                    "type": "bytes[]"
                }
            ],
            "name": "_executeAtomicSubroutine",
            "outputs": [
                {
                    "internalType": "uint256",
                    "name": "",
                    "type": "uint256"
                }
            ],
            "stateMutability": "nonpayable",
            "type": "function"
        },
        {
            "inputs": [],
            "name": "authorizationContract",
            "outputs": [
                {
                    "internalType": "bytes32",
                    "name": "",
                    "type": "bytes32"
                }
            ],
            "stateMutability": "view",
            "type": "function"
        },
        {
            "inputs": [
                {
                    "internalType": "address",
                    "name": "",
                    "type": "address"
                }
            ],
            "name": "authorizedAddresses",
            "outputs": [
                {
                    "internalType": "bool",
                    "name": "",
                    "type": "bool"
                }
            ],
            "stateMutability": "view",
            "type": "function"
        },
        {
            "inputs": [
                {
                    "internalType": "bytes",
                    "name": "_body",
                    "type": "bytes"
                }
            ],
            "name": "execute",
            "outputs": [],
            "stateMutability": "payable",
            "type": "function"
        },
        {
            "inputs": [
                {
                    "internalType": "uint32",
                    "name": "_origin",
                    "type": "uint32"
                },
                {
                    "internalType": "bytes32",
                    "name": "_sender",
                    "type": "bytes32"
                },
                {
                    "internalType": "bytes",
                    "name": "",
                    "type": "bytes"
                }
            ],
            "name": "handle",
            "outputs": [],
            "stateMutability": "payable",
            "type": "function"
        },
        {
            "inputs": [],
            "name": "mailbox",
            "outputs": [
                {
                    "internalType": "contract IMailbox",
                    "name": "",
                    "type": "address"
                }
            ],
            "stateMutability": "view",
            "type": "function"
        },
        {
            "inputs": [],
            "name": "originDomain",
            "outputs": [
                {
                    "internalType": "uint32",
                    "name": "",
                    "type": "uint32"
                }
            ],
            "stateMutability": "view",
            "type": "function"
        },
        {
            "inputs": [],
            "name": "paused",
            "outputs": [
                {
                    "internalType": "bool",
                    "name": "",
                    "type": "bool"
                }
            ],
            "stateMutability": "view",
            "type": "function"
        }
    ],
    "bytecode": "60e0806040523461020557610a0b803803809161001c8285610238565b83398101906080818303126102055780516100396020830161025b565b60408301519263ffffffff84168403610205576060810151906001600160401b03821161020557019380601f86011215610205578451946001600160401b038611610209578560051b90604051966100946020840189610238565b875260208088019282010192831161020557602001905b8282106101ed575050506001600160a01b03169081156101de5760805260a05260c0525f5b815160ff8216101561012e5760ff9060018060a01b036020611fe08360051b1685010151165f525f60205260405f20600183198254161790551660ff811461011a576001016100d0565b634e487b7160e01b5f52601160045260245ffd5b6040610154815161013f8382610238565b600381526213515160ea1b602082015261026f565b805160055560208101516006550151600755604061018d81516101778382610238565b6004815263090928e960e31b602082015261026f565b80516002556020810151600355015160045560405161073590816102d6823960805181818161018e01526105b9015260a0518181816101320152610573015260c051818181610167015261053a0152f35b63e6c4247b60e01b5f5260045ffd5b602080916101fa8461025b565b8152019101906100ab565b5f80fd5b634e487b7160e01b5f52604160045260245ffd5b606081019081106001600160401b0382111761020957604052565b601f909101601f19168101906001600160401b0382119082101761020957604052565b51906001600160a01b038216820361020557565b5f6040805161027d8161021d565b82815282602082015201526040516102b46020828180820195805191829101875e81015f838201520301601f198101835282610238565b519020604051906102c48261021d565b81525f60208201525f60408201529056fe60806040526004361015610011575f80fd5b5f3560e01c806309c5eabe1461009457806356d5d4751461008f5780635c975abb1461008a578063612b9ca014610085578063cee85d7e14610080578063d5438eae1461007b578063d7b4aa11146100765763f19e207e14610071575f80fd5b6105dc565b6105a2565b61055e565b61051e565b61040a565b6101e4565b6100f2565b60203660031901126100c1576004356001600160401b0381116100c1576100bf9036906004016100c5565b005b5f80fd5b9181601f840112156100c1578235916001600160401b0383116100c157602083818601950101116100c157565b60603660031901126100c15760043563ffffffff81168091036100c1576044356001600160401b0381116100c15761012e9036906004016100c5565b50507f00000000000000000000000000000000000000000000000000000000000000006001600160a01b031633036101d55763ffffffff7f000000000000000000000000000000000000000000000000000000000000000016036101c6577f0000000000000000000000000000000000000000000000000000000000000000602435036101b757005b630cd0b2e560e11b5f5260045ffd5b63f120db3360e01b5f5260045ffd5b631a27eac360e11b5f5260045ffd5b346100c1575f3660031901126100c157602060ff600154166040519015158152f35b634e487b7160e01b5f52604160045260245ffd5b60405190604082018281106001600160401b0382111761023957604052565b610206565b60405190602082018281106001600160401b0382111761023957604052565b6040519190601f01601f191682016001600160401b0381118382101761023957604052565b6001600160401b0381116102395760051b60200190565b35906001600160a01b03821682036100c157565b35906001600160401b03821682036100c157565b8092910391608083126100c1576102d661021a565b92604081126100c1576102e761021a565b9082359160038310156100c1576040928152610305602085016102ad565b60208201528552603f1901126100c15761031d61021a565b90604081013560028110156100c157825261033a906060016102ad565b60208201526020830152565b6001600160401b03811161023957601f01601f191660200190565b9080601f830112156100c15781359161038161037c84610282565b61025d565b9260208085838152019160051b830101918383116100c15760208101915b8383106103ae57505050505090565b82356001600160401b0381116100c157820185603f820112156100c1576020810135916103dd61037c84610346565b83815260408385010188106100c1575f60208581966040839701838601378301015281520192019161039f565b346100c15760403660031901126100c1576004356001600160401b0381116100c15760a060031982360301126100c15761044261021a565b81600401356001600160401b0381116100c157820191366023840112156100c15760048301359261047561037c85610282565b90602060048184888152019660051b83010101903682116100c157602401945b8186106104f257828552846104ad36602487016102c1565b60208201526024356001600160401b0381116100c1576104ee916104d86104de923690600401610361565b90610669565b6040519081529081906020820190565b0390f35b6020863603126100c1576020809161050861023e565b61051189610299565b8152815201950194610495565b346100c1575f3660031901126100c157602060405163ffffffff7f0000000000000000000000000000000000000000000000000000000000000000168152f35b346100c1575f3660031901126100c1576040517f00000000000000000000000000000000000000000000000000000000000000006001600160a01b03168152602090f35b346100c1575f3660031901126100c15760206040517f00000000000000000000000000000000000000000000000000000000000000008152f35b346100c15760203660031901126100c1576004356001600160a01b038116908190036100c1575f525f602052602060ff60405f2054166040519015158152f35b80518210156106305760209160051b010190565b634e487b7160e01b5f52603260045260245ffd5b3d15610664573d9061065861037c83610346565b9182523d5f602084013e565b606090565b3033036101d5575f5b815180519060ff8316918210156106f557816106ab6106a46106965f95869561061c565b51516001600160a01b031690565b918761061c565b519082602083519301915af16106bf610644565b90156106ed575060ff1660ff81146106d957600101610672565b634e487b7160e01b5f52601160045260245ffd5b602081519101fd5b505050905051519056fea2646970667358221220ad7fea8c8b69167cbe520f4b038f592cf20eb622d6f4325fc4da10d5159a7d0c64736f6c634300081c0033",
    "sourcePath": "/mnt/extra/Projects/timewave/valence-workflow/solidity/src/processor/Processor.sol",
    "compiler": {
        "name": "solc",
        "version": "0.8.28+commit.7893614a"
    },
    "functionHashes": {
        "_executeAtomicSubroutine(((address)[],((uint8,uint64),(uint8,uint64))),bytes[])": "612b9ca0",
        "authorizationContract()": "d7b4aa11",
        "authorizedAddresses(address)": "f19e207e",
        "execute(bytes)": "09c5eabe",
        "handle(uint32,bytes32,bytes)": "56d5d475",
        "mailbox()": "d5438eae",
        "originDomain()": "cee85d7e",
        "paused()": "5c975abb"
    },
    "gasEstimates": {
        "creation": {
            "codeDepositCost": "369000",
            "executionCost": "infinite",
            "totalCost": "infinite"
        },
        "external": {
            "_executeAtomicSubroutine(((address)[],((uint8,uint64),(uint8,uint64))),bytes[])": "infinite",
            "authorizationContract()": "infinite",
            "authorizedAddresses(address)": "2533",
            "execute(bytes)": "302",
            "handle(uint32,bytes32,bytes)": "infinite",
            "mailbox()": "infinite",
            "originDomain()": "infinite",
            "paused()": "2316"
        }
    }
}