{
    "contractName": "Forwarder",
    "abi": [
        {
            "inputs": [
                {
                    "internalType": "address",
                    "name": "_owner",
                    "type": "address"
                },
                {
                    "internalType": "address",
                    "name": "_processor",
                    "type": "address"
                },
                {
                    "internalType": "bytes",
                    "name": "_config",
                    "type": "bytes"
                }
            ],
            "stateMutability": "nonpayable",
            "type": "constructor"
        },
        {
            "inputs": [
                {
                    "internalType": "address",
                    "name": "owner",
                    "type": "address"
                }
            ],
            "name": "OwnableInvalidOwner",
            "type": "error"
        },
        {
            "inputs": [
                {
                    "internalType": "address",
                    "name": "account",
                    "type": "address"
                }
            ],
            "name": "OwnableUnauthorizedAccount",
            "type": "error"
        },
        {
            "anonymous": false,
            "inputs": [
                {
                    "indexed": true,
                    "internalType": "address",
                    "name": "previousOwner",
                    "type": "address"
                },
                {
                    "indexed": true,
                    "internalType": "address",
                    "name": "newOwner",
                    "type": "address"
                }
            ],
            "name": "OwnershipTransferred",
            "type": "event"
        },
        {
            "inputs": [],
            "name": "config",
            "outputs": [
                {
                    "internalType": "contract Account",
                    "name": "inputAccount",
                    "type": "address"
                },
                {
                    "internalType": "contract Account",
                    "name": "outputAccount",
                    "type": "address"
                },
                {
                    "internalType": "enum Forwarder.IntervalType",
                    "name": "intervalType",
                    "type": "uint8"
                },
                {
                    "internalType": "uint64",
                    "name": "minInterval",
                    "type": "uint64"
                }
            ],
            "stateMutability": "view",
            "type": "function"
        },
        {
            "inputs": [],
            "name": "forward",
            "outputs": [],
            "stateMutability": "nonpayable",
            "type": "function"
        },
        {
            "inputs": [],
            "name": "lastExecution",
            "outputs": [
                {
                    "internalType": "uint64",
                    "name": "blockHeight",
                    "type": "uint64"
                },
                {
                    "internalType": "uint64",
                    "name": "timestamp",
                    "type": "uint64"
                }
            ],
            "stateMutability": "view",
            "type": "function"
        },
        {
            "inputs": [],
            "name": "owner",
            "outputs": [
                {
                    "internalType": "address",
                    "name": "",
                    "type": "address"
                }
            ],
            "stateMutability": "view",
            "type": "function"
        },
        {
            "inputs": [],
            "name": "processor",
            "outputs": [
                {
                    "internalType": "address",
                    "name": "",
                    "type": "address"
                }
            ],
            "stateMutability": "view",
            "type": "function"
        },
        {
            "inputs": [],
            "name": "renounceOwnership",
            "outputs": [],
            "stateMutability": "nonpayable",
            "type": "function"
        },
        {
            "inputs": [
                {
                    "internalType": "address",
                    "name": "newOwner",
                    "type": "address"
                }
            ],
            "name": "transferOwnership",
            "outputs": [],
            "stateMutability": "nonpayable",
            "type": "function"
        },
        {
            "inputs": [
                {
                    "internalType": "bytes",
                    "name": "_config",
                    "type": "bytes"
                }
            ],
            "name": "updateConfig",
            "outputs": [],
            "stateMutability": "nonpayable",
            "type": "function"
        },
        {
            "inputs": [
                {
                    "internalType": "address",
                    "name": "_processor",
                    "type": "address"
                }
            ],
            "name": "updateProcessor",
            "outputs": [],
            "stateMutability": "nonpayable",
            "type": "function"
        }
    ],
    "bytecode": "6080604052346104f4576112f2803803806100198161059d565b92833981016060828203126104f457610031826105c2565b9161003e602082016105c2565b604082015190916001600160401b0382116104f457019282601f850112156104f45783516001600160401b03811161049b57610083601f8201601f191660200161059d565b948186526020860194602083830101116104f457815f926020809301875e860101526001600160a01b031690811561056b575f80546001600160a01b031981168417825583916001600160a01b03909116907f8be0079c531659141344cd1fd0a4f28419497f9722a3daafe3b4186f6b6457e09080a3600180546001600160a01b0319166001600160a01b03929092169190911790553303610558575f608061012a61057e565b828152826020820152606060408201528260608201520152815182019160208301916020828503126104f45751906001600160401b0382116104f457019060a0828403126104f45761017a61057e565b91610187602082016105c2565b8352610195604082016105c2565b6020840190815260608201519094906001600160401b0381116104f4576020908301019280601f850112156104f4578351916001600160401b03831161049b576101e460208460051b0161059d565b9460208087868152019460061b8201019283116104f457602001925b8284106104f85750505050604083019180835260808201519160028310156104f4576060850192835260a00151906001600160401b03821682036104f45760808501918252519182156104af57935f95915f19840184811191825b61031a5760ff8916978289101561032e576001808060a01b0361027f8b8b516105e7565b515116990160ff811161031a575b60ff8116888110156102fb5789516001600160a01b03916102ad916105e7565b5151168a146102c4576102bf906105d6565b61028d565b60405162461bcd60e51b815260206004820152600f60248201526e223ab83634b1b0ba32903a37b5b2b760891b6044820152606490fd5b50509391975093919761030d906105d6565b979193829791939761025b565b634e487b7160e01b5f52601160045260245ffd5b8451600380546001600160a01b039283166001600160a01b031991821617909155875160048054919093169116179055875180519068010000000000000000821161049b5760055482600555808310610448575b5060200160055f5260205f205f915b8383106103ed5784518660028210156103d95760ff60065491610100600160481b03905160081b1692169060018060481b0319161717600655604051610ce290816106108239f35b634e487b7160e01b5f52602160045260245ffd5b8051805183546001600160a01b0319166001600160a01b0391909116178355602090810151600184810180546001600160801b0319166001600160801b03939093169290921790915593909301926002929092019101610391565b6001600160ff1b038116810361031a576001600160ff1b038316830361031a5760055f5260205f209060011b8101908360011b015b81811061048a5750610382565b5f808255600182015560020161047d565b634e487b7160e01b5f52604160045260245ffd5b60405162461bcd60e51b815260206004820152601560248201527f4e6f20666f7277617264696e6720636f6e6669677300000000000000000000006044820152606490fd5b5f80fd5b6040602085840301126104f45760408051919082016001600160401b0381118382101761049b5760405261052b856105c2565b82526020850151906001600160801b03821682036104f45782602092836040950152815201930192610200565b63118cdaa760e01b5f523360045260245ffd5b631e4fbdf760e01b5f525f60045260245ffd5b6040519060a082016001600160401b0381118382101761049b57604052565b6040519190601f01601f191682016001600160401b0381118382101761049b57604052565b51906001600160a01b03821682036104f457565b60ff1660ff811461031a5760010190565b80518210156105fb5760209160051b010190565b634e487b7160e01b5f52603260045260245ffdfe60806040526004361015610011575f80fd5b5f3560e01c8063715018a61461094057806379502c55146108e55780638cc6acce146104645780638da5cb5b1461043d5780638e8c6848146103f3578063b7fc3e51146103c4578063ce1b1d431461039c578063d264e05e146101095763f2fde38b1461007c575f80fd5b34610105576020366003190112610105576004356001600160a01b03811690819003610105576100aa610a1a565b80156100f2575f80546001600160a01b03198116831782556001600160a01b0316907f8be0079c531659141344cd1fd0a4f28419497f9722a3daafe3b4186f6b6457e09080a3005b631e4fbdf760e01b5f525f60045260245ffd5b5f80fd5b34610105575f366003190112610105576001546001600160a01b031633036103455760065460ff81166002811015610331576102cb576001600160401b036101588160025460401c1642610a54565b9160081c1611610286575b6001600160401b034316604051610179816109b2565b81815260206001600160401b034216910152600254906fffffffffffffffff00000000000000004260401b16916001600160801b031916171760025560018060a01b036003541660018060a01b0360045416905f5b6005548060ff83161015610284578110156102705761026b9060055f5261026684848360011b6001600160801b037f036b6384b5eca791c62761152d0c79bb0604c104a5fb6f4eb0703f3154bb3db16040519261022a846109b2565b7f036b6384b5eca791c62761152d0c79bb0604c104a5fb6f4eb0703f3154bb3db08101546001600160a01b031684520154166020820152610a75565b610a09565b6101ce565b634e487b7160e01b5f52603260045260245ffd5b005b60405162461bcd60e51b815260206004820152601860248201527f54696d6520696e74657276616c206e6f742070617373656400000000000000006044820152606490fd5b6001600160401b036102e1816002541643610a54565b9160081c1611156101635760405162461bcd60e51b815260206004820152601960248201527f426c6f636b20696e74657276616c206e6f7420706173736564000000000000006044820152606490fd5b634e487b7160e01b5f52602160045260245ffd5b60405162461bcd60e51b815260206004820152602960248201527f4f6e6c79207468652070726f636573736f722063616e2063616c6c207468697360448201526810333ab731ba34b7b760b91b6064820152608490fd5b34610105575f366003190112610105576001546040516001600160a01b039091168152602090f35b34610105575f3660031901126101055760406002546001600160401b038251918181168352831c166020820152f35b34610105576020366003190112610105576004356001600160a01b0381169081900361010557610421610a1a565b6bffffffffffffffffffffffff60a01b60015416176001555f80f35b34610105575f366003190112610105575f546040516001600160a01b039091168152602090f35b34610105576020366003190112610105576004356001600160401b0381116101055736602382011215610105578060040135906104a0826109ee565b916104ae60405193846109cd565b8083526020830191366024838301011161010557815f926024602093018537840101526104d9610a1a565b5f60806040516104e881610997565b828152826020820152606060408201528260608201520152815182019160208301916020828503126101055751906001600160401b03821161010557019060a082840312610105576040519161053d83610997565b61054960208201610a40565b835261055760408201610a40565b936020840194855260608201516001600160401b038111610105576020908301019280601f85011215610105578351916001600160401b03831161083b57604051946105a960208560051b01876109cd565b83865260208087019460061b82010192831161010557602001925b82841061088c575050505060408301918083526080820151916002831015610105576060850192835260a00151906001600160401b038216820361010557608085019182525191821561084f57935f95915f19840184811191825b6106de5760ff891697828910156106f2576001808060a01b036106438b8b51610a61565b515116990160ff81116106de575b60ff8116888110156106bf5789516001600160a01b039161067191610a61565b5151168a146106885761068390610a09565b610651565b60405162461bcd60e51b815260206004820152600f60248201526e223ab83634b1b0ba32903a37b5b2b760891b6044820152606490fd5b5050939197509391976106d190610a09565b979193829791939761061f565b634e487b7160e01b5f52601160045260245ffd5b8451600380546001600160a01b039283166001600160a01b031991821617909155875160048054919093169116179055875180519068010000000000000000821161083b57600554826005558083106107e8575b5060200160055f5260205f205f915b8383106107955784518660028210156103315760ff68ffffffffffffffff00600654925160081b1692169068ffffffffffffffffff191617176006555f80f35b600260208260019351848060a01b038151166bffffffffffffffffffffffff60a01b8754161786556001600160801b0383868801920151166001600160801b031982541617905501920192019190610755565b6001600160ff1b03811681036106de576001600160ff1b03831683036106de5760055f5260205f209060011b8101908360011b015b81811061082a5750610746565b5f808255600182015560020161081d565b634e487b7160e01b5f52604160045260245ffd5b60405162461bcd60e51b81526020600482015260156024820152744e6f20666f7277617264696e6720636f6e6669677360581b6044820152606490fd5b60406020858403011261010557604051906108a6826109b2565b84516001600160a01b03811681036101055782526020850151906001600160801b038216820361010557826020928360409501528152019301926105c4565b34610105575f366003190112610105576003546004546006546040516001600160a01b03938416815291909216602082015260ff82166002811015610331576080926001600160401b0391604084015260081c166060820152f35b34610105575f36600319011261010557610958610a1a565b5f80546001600160a01b0319811682556001600160a01b03167f8be0079c531659141344cd1fd0a4f28419497f9722a3daafe3b4186f6b6457e08280a3005b60a081019081106001600160401b0382111761083b57604052565b604081019081106001600160401b0382111761083b57604052565b90601f801991011681019081106001600160401b0382111761083b57604052565b6001600160401b03811161083b57601f01601f191660200190565b60ff1660ff81146106de5760010190565b5f546001600160a01b03163303610a2d57565b63118cdaa760e01b5f523360045260245ffd5b51906001600160a01b038216820361010557565b919082039182116106de57565b80518210156102705760209160051b010190565b80516001600160a01b031680159392908415610c3d57506001600160a01b038116315b60208301516001600160801b031680821015610c355750935b8415610c2e576020945f948215610bf557604051610acf88826109cd565b868152945b838714610be357506001600160a01b0316915b8514610bd85760848591925b60405197889687958693635b0e93fb60e11b855260018060a01b031660048501526024840152606060448401528051918291826064860152018484015e8181018301849052601f01601f191681010301926001600160a01b03165af18015610bcd57610b5c5750565b3d805f833e610b6b81836109cd565b810190602081830312610105578051906001600160401b038211610105570181601f82011215610105578051610ba0816109ee565b92610bae60405194856109cd565b81845260208284010111610105575f928160208094018483015e010152565b6040513d5f823e3d90fd5b508360848192610af3565b516001600160a01b0316929050610ae7565b60405163a9059cbb60e01b888201526001600160a01b038216602482015260448082018490528152610c286064826109cd565b94610ad4565b5050505050565b905093610ab1565b6040516370a0823160e01b81526001600160a01b038316600482015290602090829060249082905afa908115610bcd575f91610c7a575b50610a98565b90506020813d602011610ca4575b81610c95602093836109cd565b8101031261010557515f610c74565b3d9150610c8856fea2646970667358221220e6263a427ae06c0b419b82feec0ed7cd0d0f47f7c4c25dbe714b305d234b532964736f6c634300081c0033",
    "sourcePath": "/mnt/extra/Projects/timewave/valence-workflow/solidity/src/libraries/Forwarder.sol",
    "compiler": {
        "name": "solc",
        "version": "0.8.28+commit.7893614a"
    },
    "functionHashes": {
        "config()": "79502c55",
        "forward()": "d264e05e",
        "lastExecution()": "b7fc3e51",
        "owner()": "8da5cb5b",
        "processor()": "ce1b1d43",
        "renounceOwnership()": "715018a6",
        "transferOwnership(address)": "f2fde38b",
        "updateConfig(bytes)": "8cc6acce",
        "updateProcessor(address)": "8e8c6848"
    },
    "gasEstimates": {
        "creation": {
            "codeDepositCost": "659600",
            "executionCost": "infinite",
            "totalCost": "infinite"
        },
        "external": {
            "config()": "6618",
            "forward()": "infinite",
            "lastExecution()": "2406",
            "owner()": "2337",
            "processor()": "2404",
            "renounceOwnership()": "28042",
            "transferOwnership(address)": "28296",
            "updateConfig(bytes)": "infinite",
            "updateProcessor(address)": "26650"
        },
        "internal": {
            "_checkInterval()": "infinite",
            "_forwardToken(struct Forwarder.ForwardingConfig memory,contract Account,contract Account)": "infinite",
            "_isNativeCoin(address)": "infinite",
            "_updateLastExecution()": "infinite",
            "validateConfig(bytes memory)": "infinite"
        }
    }
}