{
    "contractName": "ValenceVault",
    "abi": [
        {
            "inputs": [
                {
                    "internalType": "address",
                    "name": "_owner",
                    "type": "address"
                },
                {
                    "internalType": "address",
                    "name": "_processor",
                    "type": "address"
                },
                {
                    "internalType": "address",
                    "name": "_strategist",
                    "type": "address"
                },
                {
                    "internalType": "bytes",
                    "name": "_config",
                    "type": "bytes"
                },
                {
                    "internalType": "address",
                    "name": "underlying",
                    "type": "address"
                },
                {
                    "internalType": "string",
                    "name": "vaultTokenName",
                    "type": "string"
                },
                {
                    "internalType": "string",
                    "name": "vaultTokenSymbol",
                    "type": "string"
                }
            ],
            "stateMutability": "nonpayable",
            "type": "constructor"
        },
        {
            "inputs": [
                {
                    "internalType": "address",
                    "name": "spender",
                    "type": "address"
                },
                {
                    "internalType": "uint256",
                    "name": "allowance",
                    "type": "uint256"
                },
                {
                    "internalType": "uint256",
                    "name": "needed",
                    "type": "uint256"
                }
            ],
            "name": "ERC20InsufficientAllowance",
            "type": "error"
        },
        {
            "inputs": [
                {
                    "internalType": "address",
                    "name": "sender",
                    "type": "address"
                },
                {
                    "internalType": "uint256",
                    "name": "balance",
                    "type": "uint256"
                },
                {
                    "internalType": "uint256",
                    "name": "needed",
                    "type": "uint256"
                }
            ],
            "name": "ERC20InsufficientBalance",
            "type": "error"
        },
        {
            "inputs": [
                {
                    "internalType": "address",
                    "name": "approver",
                    "type": "address"
                }
            ],
            "name": "ERC20InvalidApprover",
            "type": "error"
        },
        {
            "inputs": [
                {
                    "internalType": "address",
                    "name": "receiver",
                    "type": "address"
                }
            ],
            "name": "ERC20InvalidReceiver",
            "type": "error"
        },
        {
            "inputs": [
                {
                    "internalType": "address",
                    "name": "sender",
                    "type": "address"
                }
            ],
            "name": "ERC20InvalidSender",
            "type": "error"
        },
        {
            "inputs": [
                {
                    "internalType": "address",
                    "name": "spender",
                    "type": "address"
                }
            ],
            "name": "ERC20InvalidSpender",
            "type": "error"
        },
        {
            "inputs": [
                {
                    "internalType": "address",
                    "name": "receiver",
                    "type": "address"
                },
                {
                    "internalType": "uint256",
                    "name": "assets",
                    "type": "uint256"
                },
                {
                    "internalType": "uint256",
                    "name": "max",
                    "type": "uint256"
                }
            ],
            "name": "ERC4626ExceededMaxDeposit",
            "type": "error"
        },
        {
            "inputs": [
                {
                    "internalType": "address",
                    "name": "receiver",
                    "type": "address"
                },
                {
                    "internalType": "uint256",
                    "name": "shares",
                    "type": "uint256"
                },
                {
                    "internalType": "uint256",
                    "name": "max",
                    "type": "uint256"
                }
            ],
            "name": "ERC4626ExceededMaxMint",
            "type": "error"
        },
        {
            "inputs": [
                {
                    "internalType": "address",
                    "name": "owner",
                    "type": "address"
                },
                {
                    "internalType": "uint256",
                    "name": "shares",
                    "type": "uint256"
                },
                {
                    "internalType": "uint256",
                    "name": "max",
                    "type": "uint256"
                }
            ],
            "name": "ERC4626ExceededMaxRedeem",
            "type": "error"
        },
        {
            "inputs": [
                {
                    "internalType": "address",
                    "name": "owner",
                    "type": "address"
                },
                {
                    "internalType": "uint256",
                    "name": "assets",
                    "type": "uint256"
                },
                {
                    "internalType": "uint256",
                    "name": "max",
                    "type": "uint256"
                }
            ],
            "name": "ERC4626ExceededMaxWithdraw",
            "type": "error"
        },
        {
            "inputs": [
                {
                    "internalType": "address",
                    "name": "owner",
                    "type": "address"
                }
            ],
            "name": "OwnableInvalidOwner",
            "type": "error"
        },
        {
            "inputs": [
                {
                    "internalType": "address",
                    "name": "account",
                    "type": "address"
                }
            ],
            "name": "OwnableUnauthorizedAccount",
            "type": "error"
        },
        {
            "inputs": [
                {
                    "internalType": "address",
                    "name": "token",
                    "type": "address"
                }
            ],
            "name": "SafeERC20FailedOperation",
            "type": "error"
        },
        {
            "anonymous": false,
            "inputs": [
                {
                    "indexed": true,
                    "internalType": "address",
                    "name": "owner",
                    "type": "address"
                },
                {
                    "indexed": true,
                    "internalType": "address",
                    "name": "spender",
                    "type": "address"
                },
                {
                    "indexed": false,
                    "internalType": "uint256",
                    "name": "value",
                    "type": "uint256"
                }
            ],
            "name": "Approval",
            "type": "event"
        },
        {
            "anonymous": false,
            "inputs": [
                {
                    "indexed": true,
                    "internalType": "address",
                    "name": "sender",
                    "type": "address"
                },
                {
                    "indexed": true,
                    "internalType": "address",
                    "name": "owner",
                    "type": "address"
                },
                {
                    "indexed": false,
                    "internalType": "uint256",
                    "name": "assets",
                    "type": "uint256"
                },
                {
                    "indexed": false,
                    "internalType": "uint256",
                    "name": "shares",
                    "type": "uint256"
                }
            ],
            "name": "Deposit",
            "type": "event"
        },
        {
            "anonymous": false,
            "inputs": [
                {
                    "indexed": true,
                    "internalType": "address",
                    "name": "previousOwner",
                    "type": "address"
                },
                {
                    "indexed": true,
                    "internalType": "address",
                    "name": "newOwner",
                    "type": "address"
                }
            ],
            "name": "OwnershipTransferred",
            "type": "event"
        },
        {
            "anonymous": false,
            "inputs": [
                {
                    "indexed": true,
                    "internalType": "address",
                    "name": "from",
                    "type": "address"
                },
                {
                    "indexed": true,
                    "internalType": "address",
                    "name": "to",
                    "type": "address"
                },
                {
                    "indexed": false,
                    "internalType": "uint256",
                    "name": "value",
                    "type": "uint256"
                }
            ],
            "name": "Transfer",
            "type": "event"
        },
        {
            "anonymous": false,
            "inputs": [
                {
                    "indexed": true,
                    "internalType": "address",
                    "name": "sender",
                    "type": "address"
                },
                {
                    "indexed": true,
                    "internalType": "address",
                    "name": "receiver",
                    "type": "address"
                },
                {
                    "indexed": true,
                    "internalType": "address",
                    "name": "owner",
                    "type": "address"
                },
                {
                    "indexed": false,
                    "internalType": "uint256",
                    "name": "assets",
                    "type": "uint256"
                },
                {
                    "indexed": false,
                    "internalType": "uint256",
                    "name": "shares",
                    "type": "uint256"
                }
            ],
            "name": "Withdraw",
            "type": "event"
        },
        {
            "inputs": [
                {
                    "internalType": "address",
                    "name": "owner",
                    "type": "address"
                },
                {
                    "internalType": "address",
                    "name": "spender",
                    "type": "address"
                }
            ],
            "name": "allowance",
            "outputs": [
                {
                    "internalType": "uint256",
                    "name": "",
                    "type": "uint256"
                }
            ],
            "stateMutability": "view",
            "type": "function"
        },
        {
            "inputs": [
                {
                    "internalType": "address",
                    "name": "spender",
                    "type": "address"
                },
                {
                    "internalType": "uint256",
                    "name": "value",
                    "type": "uint256"
                }
            ],
            "name": "approve",
            "outputs": [
                {
                    "internalType": "bool",
                    "name": "",
                    "type": "bool"
                }
            ],
            "stateMutability": "nonpayable",
            "type": "function"
        },
        {
            "inputs": [],
            "name": "asset",
            "outputs": [
                {
                    "internalType": "address",
                    "name": "",
                    "type": "address"
                }
            ],
            "stateMutability": "view",
            "type": "function"
        },
        {
            "inputs": [],
            "name": "assetsInPosition",
            "outputs": [
                {
                    "internalType": "uint256",
                    "name": "",
                    "type": "uint256"
                }
            ],
            "stateMutability": "view",
            "type": "function"
        },
        {
            "inputs": [
                {
                    "internalType": "address",
                    "name": "account",
                    "type": "address"
                }
            ],
            "name": "balanceOf",
            "outputs": [
                {
                    "internalType": "uint256",
                    "name": "",
                    "type": "uint256"
                }
            ],
            "stateMutability": "view",
            "type": "function"
        },
        {
            "inputs": [],
            "name": "config",
            "outputs": [
                {
                    "internalType": "contract BaseAccount",
                    "name": "DepositAccount",
                    "type": "address"
                },
                {
                    "internalType": "contract BaseAccount",
                    "name": "WithdrawAccount",
                    "type": "address"
                }
            ],
            "stateMutability": "view",
            "type": "function"
        },
        {
            "inputs": [
                {
                    "internalType": "uint256",
                    "name": "shares",
                    "type": "uint256"
                }
            ],
            "name": "convertToAssets",
            "outputs": [
                {
                    "internalType": "uint256",
                    "name": "",
                    "type": "uint256"
                }
            ],
            "stateMutability": "view",
            "type": "function"
        },
        {
            "inputs": [
                {
                    "internalType": "uint256",
                    "name": "assets",
                    "type": "uint256"
                }
            ],
            "name": "convertToShares",
            "outputs": [
                {
                    "internalType": "uint256",
                    "name": "",
                    "type": "uint256"
                }
            ],
            "stateMutability": "view",
            "type": "function"
        },
        {
            "inputs": [],
            "name": "decimals",
            "outputs": [
                {
                    "internalType": "uint8",
                    "name": "",
                    "type": "uint8"
                }
            ],
            "stateMutability": "view",
            "type": "function"
        },
        {
            "inputs": [
                {
                    "internalType": "uint256",
                    "name": "assets",
                    "type": "uint256"
                },
                {
                    "internalType": "address",
                    "name": "receiver",
                    "type": "address"
                }
            ],
            "name": "deposit",
            "outputs": [
                {
                    "internalType": "uint256",
                    "name": "",
                    "type": "uint256"
                }
            ],
            "stateMutability": "nonpayable",
            "type": "function"
        },
        {
            "inputs": [
                {
                    "internalType": "address",
                    "name": "",
                    "type": "address"
                }
            ],
            "name": "maxDeposit",
            "outputs": [
                {
                    "internalType": "uint256",
                    "name": "",
                    "type": "uint256"
                }
            ],
            "stateMutability": "view",
            "type": "function"
        },
        {
            "inputs": [
                {
                    "internalType": "address",
                    "name": "",
                    "type": "address"
                }
            ],
            "name": "maxMint",
            "outputs": [
                {
                    "internalType": "uint256",
                    "name": "",
                    "type": "uint256"
                }
            ],
            "stateMutability": "view",
            "type": "function"
        },
        {
            "inputs": [
                {
                    "internalType": "address",
                    "name": "owner",
                    "type": "address"
                }
            ],
            "name": "maxRedeem",
            "outputs": [
                {
                    "internalType": "uint256",
                    "name": "",
                    "type": "uint256"
                }
            ],
            "stateMutability": "view",
            "type": "function"
        },
        {
            "inputs": [
                {
                    "internalType": "address",
                    "name": "owner",
                    "type": "address"
                }
            ],
            "name": "maxWithdraw",
            "outputs": [
                {
                    "internalType": "uint256",
                    "name": "",
                    "type": "uint256"
                }
            ],
            "stateMutability": "view",
            "type": "function"
        },
        {
            "inputs": [
                {
                    "internalType": "uint256",
                    "name": "shares",
                    "type": "uint256"
                },
                {
                    "internalType": "address",
                    "name": "receiver",
                    "type": "address"
                }
            ],
            "name": "mint",
            "outputs": [
                {
                    "internalType": "uint256",
                    "name": "",
                    "type": "uint256"
                }
            ],
            "stateMutability": "nonpayable",
            "type": "function"
        },
        {
            "inputs": [],
            "name": "name",
            "outputs": [
                {
                    "internalType": "string",
                    "name": "",
                    "type": "string"
                }
            ],
            "stateMutability": "view",
            "type": "function"
        },
        {
            "inputs": [],
            "name": "owner",
            "outputs": [
                {
                    "internalType": "address",
                    "name": "",
                    "type": "address"
                }
            ],
            "stateMutability": "view",
            "type": "function"
        },
        {
            "inputs": [
                {
                    "internalType": "uint256",
                    "name": "assets",
                    "type": "uint256"
                }
            ],
            "name": "previewDeposit",
            "outputs": [
                {
                    "internalType": "uint256",
                    "name": "",
                    "type": "uint256"
                }
            ],
            "stateMutability": "view",
            "type": "function"
        },
        {
            "inputs": [
                {
                    "internalType": "uint256",
                    "name": "shares",
                    "type": "uint256"
                }
            ],
            "name": "previewMint",
            "outputs": [
                {
                    "internalType": "uint256",
                    "name": "",
                    "type": "uint256"
                }
            ],
            "stateMutability": "view",
            "type": "function"
        },
        {
            "inputs": [
                {
                    "internalType": "uint256",
                    "name": "shares",
                    "type": "uint256"
                }
            ],
            "name": "previewRedeem",
            "outputs": [
                {
                    "internalType": "uint256",
                    "name": "",
                    "type": "uint256"
                }
            ],
            "stateMutability": "view",
            "type": "function"
        },
        {
            "inputs": [
                {
                    "internalType": "uint256",
                    "name": "assets",
                    "type": "uint256"
                }
            ],
            "name": "previewWithdraw",
            "outputs": [
                {
                    "internalType": "uint256",
                    "name": "",
                    "type": "uint256"
                }
            ],
            "stateMutability": "view",
            "type": "function"
        },
        {
            "inputs": [],
            "name": "processor",
            "outputs": [
                {
                    "internalType": "address",
                    "name": "",
                    "type": "address"
                }
            ],
            "stateMutability": "view",
            "type": "function"
        },
        {
            "inputs": [
                {
                    "internalType": "uint256",
                    "name": "shares",
                    "type": "uint256"
                },
                {
                    "internalType": "address",
                    "name": "receiver",
                    "type": "address"
                },
                {
                    "internalType": "address",
                    "name": "owner",
                    "type": "address"
                }
            ],
            "name": "redeem",
            "outputs": [
                {
                    "internalType": "uint256",
                    "name": "",
                    "type": "uint256"
                }
            ],
            "stateMutability": "nonpayable",
            "type": "function"
        },
        {
            "inputs": [],
            "name": "renounceOwnership",
            "outputs": [],
            "stateMutability": "nonpayable",
            "type": "function"
        },
        {
            "inputs": [],
            "name": "strategist",
            "outputs": [
                {
                    "internalType": "address",
                    "name": "",
                    "type": "address"
                }
            ],
            "stateMutability": "view",
            "type": "function"
        },
        {
            "inputs": [],
            "name": "symbol",
            "outputs": [
                {
                    "internalType": "string",
                    "name": "",
                    "type": "string"
                }
            ],
            "stateMutability": "view",
            "type": "function"
        },
        {
            "inputs": [],
            "name": "totalAssets",
            "outputs": [
                {
                    "internalType": "uint256",
                    "name": "",
                    "type": "uint256"
                }
            ],
            "stateMutability": "view",
            "type": "function"
        },
        {
            "inputs": [],
            "name": "totalSupply",
            "outputs": [
                {
                    "internalType": "uint256",
                    "name": "",
                    "type": "uint256"
                }
            ],
            "stateMutability": "view",
            "type": "function"
        },
        {
            "inputs": [
                {
                    "internalType": "address",
                    "name": "to",
                    "type": "address"
                },
                {
                    "internalType": "uint256",
                    "name": "value",
                    "type": "uint256"
                }
            ],
            "name": "transfer",
            "outputs": [
                {
                    "internalType": "bool",
                    "name": "",
                    "type": "bool"
                }
            ],
            "stateMutability": "nonpayable",
            "type": "function"
        },
        {
            "inputs": [
                {
                    "internalType": "address",
                    "name": "from",
                    "type": "address"
                },
                {
                    "internalType": "address",
                    "name": "to",
                    "type": "address"
                },
                {
                    "internalType": "uint256",
                    "name": "value",
                    "type": "uint256"
                }
            ],
            "name": "transferFrom",
            "outputs": [
                {
                    "internalType": "bool",
                    "name": "",
                    "type": "bool"
                }
            ],
            "stateMutability": "nonpayable",
            "type": "function"
        },
        {
            "inputs": [
                {
                    "internalType": "address",
                    "name": "newOwner",
                    "type": "address"
                }
            ],
            "name": "transferOwnership",
            "outputs": [],
            "stateMutability": "nonpayable",
            "type": "function"
        },
        {
            "inputs": [
                {
                    "internalType": "bytes",
                    "name": "_config",
                    "type": "bytes"
                }
            ],
            "name": "updateConfig",
            "outputs": [],
            "stateMutability": "nonpayable",
            "type": "function"
        },
        {
            "inputs": [
                {
                    "internalType": "address",
                    "name": "_processor",
                    "type": "address"
                }
            ],
            "name": "updateProcessor",
            "outputs": [],
            "stateMutability": "nonpayable",
            "type": "function"
        },
        {
            "inputs": [
                {
                    "internalType": "uint256",
                    "name": "assets",
                    "type": "uint256"
                },
                {
                    "internalType": "address",
                    "name": "receiver",
                    "type": "address"
                },
                {
                    "internalType": "address",
                    "name": "owner",
                    "type": "address"
                }
            ],
            "name": "withdraw",
            "outputs": [
                {
                    "internalType": "uint256",
                    "name": "",
                    "type": "uint256"
                }
            ],
            "stateMutability": "nonpayable",
            "type": "function"
        }
    ],
    "bytecode": "60c080604052346104b757611853803803809161001c82856104e1565b833981019060e0818303126104b75761003481610504565b61004060208301610504565b9061004d60408401610504565b60608401519092906001600160401b0381116104b757840185601f820112156104b7578581602061008093519101610533565b61008c60808601610504565b60a08601519095906001600160401b0381116104b757876100ae918301610569565b60c08201519097906001600160401b0381116104b7576100ce9201610569565b946001600160a01b03908116931680156104ce575f80546001600160a01b0319811683178255604051949183916001600160a01b0316907f8be0079c531659141344cd1fd0a4f28419497f9722a3daafe3b4186f6b6457e09080a3600180546001600160a01b0319166001600160a01b039290921691909117905533036104bb576040818051810103126104b75760408201916001600160401b038311818410176103e5576020926040526101936040610189858501610504565b9384845201610504565b9201829052600780546001600160a01b039283166001600160a01b0319918216179091556008805492909316911617905583516001600160401b0381116103e557600554600181811c911680156104ad575b60208210146103c757601f8111610467575b50602094601f8211600114610404579481929394955f926103f9575b50508160011b915f199060031b1c1916176005555b82516001600160401b0381116103e557600654600181811c911680156103db575b60208210146103c757601f8111610364575b506020601f821160011461030157819293945f926102f6575b50508160011b915f199060031b1c1916176006555b61029281610586565b90156102ee575b60a052608052600980546001600160a01b0319166001600160a01b0392909216919091179055604051611229908161062a82396080518181816107b701528181610b870152610e9f015260a051816107fa0152f35b506012610299565b015190505f80610274565b601f1982169060065f52805f20915f5b81811061034c57509583600195969710610334575b505050811b01600655610289565b01515f1960f88460031b161c191690555f8080610326565b9192602060018192868b015181550194019201610311565b60065f527ff652222313e28459528d920b65115c16c04f3efc82aaedc97be59f3f377c0d3f601f830160051c810191602084106103bd575b601f0160051c01905b8181106103b2575061025b565b5f81556001016103a5565b909150819061039c565b634e487b7160e01b5f52602260045260245ffd5b90607f1690610249565b634e487b7160e01b5f52604160045260245ffd5b015190505f80610213565b601f1982169560055f52805f20915f5b88811061044f57508360019596979810610437575b505050811b01600555610228565b01515f1960f88460031b161c191690555f8080610429565b91926020600181928685015181550194019201610414565b60055f5260205f20601f830160051c810191602084106104a3575b601f0160051c01905b81811061049857506101f7565b5f815560010161048b565b9091508190610482565b90607f16906101e5565b5f80fd5b63118cdaa760e01b5f523360045260245ffd5b631e4fbdf760e01b5f525f60045260245ffd5b601f909101601f19168101906001600160401b038211908210176103e557604052565b51906001600160a01b03821682036104b757565b6001600160401b0381116103e557601f01601f191660200190565b92919261053f82610518565b9161054d60405193846104e1565b8294818452818301116104b7578281602093845f96015e010152565b9080601f830112156104b757815161058392602001610533565b90565b5f8091604051602081019063313ce56760e01b8252600481526105aa6024826104e1565b51916001600160a01b03165afa3d15610621573d906105c882610518565b916105d660405193846104e1565b82523d5f602084013e5b80610615575b6105f2575b505f905f90565b6020818051810103126104b7576020015160ff81116105eb579060ff6001921690565b506020815110156105e6565b6060906105e056fe60806040526004361015610011575f80fd5b5f3560e01c806301e1d11414610a3f57806306fdde031461098457806307a2d13a14610780578063095ea7b3146108dc5780630a28a477146108be57806318160ddd146108a15780631fe4a6861461087957806323b872dd14610841578063313ce567146107e657806338d52e0f146107a25780633b524cb214610785578063402d267d146102f85780634cdad506146107805780636e553f651461074d57806370a082311461026d578063715018a6146106f657806379502c55146106c45780638cc6acce146105b45780638da5cb5b1461058d5780638e8c68481461054a57806394bf804d1461051757806395d89b4114610413578063a9059cbb146103e2578063b3d7f6b9146103c4578063b460af9414610369578063ba087652146102fd578063c63d75b6146102f8578063c6e6f59214610218578063ce1b1d43146102d0578063ce96cb77146102ad578063d905777e1461026d578063dd62ed3e1461021d578063ef8b30f7146102185763f2fde38b1461018f575f80fd5b34610214576020366003190112610214576101a8610aa1565b6101b0610f50565b6001600160a01b03168015610201575f80546001600160a01b03198116831782556001600160a01b0316907f8be0079c531659141344cd1fd0a4f28419497f9722a3daafe3b4186f6b6457e09080a3005b631e4fbdf760e01b5f525f60045260245ffd5b5f80fd5b610b4e565b3461021457604036600319011261021457610236610aa1565b61023e610ab7565b6001600160a01b039182165f908152600360209081526040808320949093168252928352819020549051908152f35b346102145760203660031901126102145760206102a561028b610aa1565b6001600160a01b03165f9081526002602052604090205490565b604051908152f35b346102145760203660031901126102145760206102a56102cb610aa1565b610c10565b34610214575f366003190112610214576001546040516001600160a01b039091168152602090f35b610acd565b346102145761030b36610b14565b6001600160a01b0381165f908152600260205260409020549192909180821161034857508060209361033f6102a593610c6e565b93849133610f76565b91632e52afbb60e21b5f5260018060a01b031660045260245260445260645ffd5b346102145761037736610b14565b909161038282610c10565b8082116103a357506020928161039a6102a593610c9b565b93849233610f76565b91633fa733bb60e21b5f5260018060a01b031660045260245260445260645ffd5b346102145760203660031901126102145760206102a5600435610c40565b34610214576040366003190112610214576104086103fe610aa1565b6024359033610d99565b602060405160018152f35b34610214575f366003190112610214576040515f6006548060011c9060018116801561050d575b6020831081146104f9578285529081156104d55750600114610477575b6104738361046781850382610af2565b60405191829182610a59565b0390f35b91905060065f527ff652222313e28459528d920b65115c16c04f3efc82aaedc97be59f3f377c0d3f915f905b8082106104bb57509091508101602001610467610457565b9192600181602092548385880101520191019092916104a3565b60ff191660208086019190915291151560051b840190910191506104679050610457565b634e487b7160e01b5f52602260045260245ffd5b91607f169161043a565b346102145760403660031901126102145760206004356102a5610538610ab7565b9161054281610c40565b809333610e59565b3461021457602036600319011261021457610563610aa1565b61056b610f50565b600180546001600160a01b0319166001600160a01b0392909216919091179055005b34610214575f366003190112610214575f546040516001600160a01b039091168152602090f35b346102145760203660031901126102145760043567ffffffffffffffff8111610214573660238201121561021457806004013567ffffffffffffffff81116106b0576040519061060e601f8201601f191660200183610af2565b8082526020820192366024838301011161021457815f92602460209301863783010152610639610f50565b604081805181010312610214576040516040810181811067ffffffffffffffff8211176106b057604061067360209561067d938352610bfc565b9384845201610bfc565b9201829052600780546001600160a01b039283166001600160a01b03199182161790915560088054929093169116179055005b634e487b7160e01b5f52604160045260245ffd5b34610214575f36600319011261021457600754600854604080516001600160a01b039384168152919092166020820152f35b34610214575f3660031901126102145761070e610f50565b5f80546001600160a01b0319811682556001600160a01b03167f8be0079c531659141344cd1fd0a4f28419497f9722a3daafe3b4186f6b6457e08280a3005b346102145760403660031901126102145760206004356102a561076e610ab7565b61077783610cc9565b92839133610e59565b610a83565b34610214575f366003190112610214576020600a54604051908152f35b34610214575f366003190112610214576040517f00000000000000000000000000000000000000000000000000000000000000006001600160a01b03168152602090f35b34610214575f3660031901126102145760ff7f00000000000000000000000000000000000000000000000000000000000000001660ff811161082d57602090604051908152f35b634e487b7160e01b5f52601160045260245ffd5b346102145760603660031901126102145761040861085d610aa1565b610865610ab7565b60443591610874833383610cf6565b610d99565b34610214575f366003190112610214576009546040516001600160a01b039091168152602090f35b34610214575f366003190112610214576020600454604051908152f35b346102145760203660031901126102145760206102a5600435610c9b565b34610214576040366003190112610214576108f5610aa1565b602435903315610971576001600160a01b031690811561095e57335f52600360205260405f20825f526020528060405f20556040519081527f8c5be1e5ebec7d5bd14f71427d1e84f3dd0314c0f7b2291e5b200ac8c7c3b92560203392a3602060405160018152f35b634a1406b160e11b5f525f60045260245ffd5b63e602df0560e01b5f525f60045260245ffd5b34610214575f366003190112610214576040515f6005548060011c90600181168015610a35575b6020831081146104f9578285529081156104d557506001146109d7576104738361046781850382610af2565b91905060055f527f036b6384b5eca791c62761152d0c79bb0604c104a5fb6f4eb0703f3154bb3db0915f905b808210610a1b57509091508101602001610467610457565b919260018160209254838588010152019101909291610a03565b91607f16916109ab565b34610214575f3660031901126102145760206102a5610b6c565b602060409281835280519182918282860152018484015e5f828201840152601f01601f1916010190565b346102145760203660031901126102145760206102a5600435610c6e565b600435906001600160a01b038216820361021457565b602435906001600160a01b038216820361021457565b3461021457602036600319011261021457610ae6610aa1565b5060206040515f198152f35b90601f8019910116810190811067ffffffffffffffff8211176106b057604052565b606090600319011261021457600435906024356001600160a01b038116810361021457906044356001600160a01b03811681036102145790565b346102145760203660031901126102145760206102a5600435610cc9565b6040516370a0823160e01b81523060048201526020816024817f00000000000000000000000000000000000000000000000000000000000000006001600160a01b03165afa908115610bf1575f91610bc2575090565b90506020813d602011610be9575b81610bdd60209383610af2565b81010312610214575190565b3d9150610bd0565b6040513d5f823e3d90fd5b51906001600160a01b038216820361021457565b6001600160a01b03165f90815260026020526040902054610c3090610c6e565b90565b9190820180921161082d57565b610c48610b6c565b906001820180921161082d576004546001810180911161082d57610c309260019261108b565b610c76610b6c565b906001820180921161082d576004546001810180911161082d57610c30925f9261108b565b600454906001820180921161082d57610cb2610b6c565b6001810180911161082d57610c309260019261108b565b600454906001820180921161082d57610ce0610b6c565b6001810180911161082d57610c30925f9261108b565b6001600160a01b039081165f818152600360209081526040808320948616835293905291909120549291905f198410610d30575b50505050565b828410610d76578015610971576001600160a01b0382161561095e575f52600360205260405f209060018060a01b03165f5260205260405f20910390555f808080610d2a565b508290637dc7a0d960e11b5f5260018060a01b031660045260245260445260645ffd5b6001600160a01b0316908115610e46576001600160a01b0316918215610e3357815f52600260205260405f2054818110610e1a57817fddf252ad1be2c89b69c2b068fc378daa952ba7f163c4a11628f55a4df523b3ef92602092855f52600284520360405f2055845f526002825260405f20818154019055604051908152a3565b8263391434e360e21b5f5260045260245260445260645ffd5b63ec442f0560e01b5f525f60045260245ffd5b634b637e8f60e11b5f525f60045260245ffd5b6040516323b872dd60e01b60208201526001600160a01b039091166024820181905230604483015260648083018590528252929190610ec390610e9d608482610af2565b7f000000000000000000000000000000000000000000000000000000000000000061119b565b6001600160a01b0316928315610e33577fdcbc1c05240f31ff3ad067ef1ee35ce4997762752e3a095284754544f4c709d79181610f04604093600454610c33565b600455855f526002602052825f20818154019055855f7fddf252ad1be2c89b69c2b068fc378daa952ba7f163c4a11628f55a4df523b3ef60208651858152a382519182526020820152a3565b5f546001600160a01b03163303610f6357565b63118cdaa760e01b5f523360045260245ffd5b6001600160a01b0380841695929490821693909291829087860361107a575b5050508415610e4657845f52600260205260405f20548181106110615791816040927ffbde797d201c681b91056529119e0b02407c7bb96a4a2c75c01fc9667232c8db94885f52600260205203835f205580600454036004555f877fddf252ad1be2c89b69c2b068fc378daa952ba7f163c4a11628f55a4df523b3ef60208651858152a3825163a9059cbb60e01b60208201526001600160a01b0390961660248701819052604480880184905287529561105490610e9d606482610af2565b82519182526020820152a4565b8563391434e360e21b5f5260045260245260445260645ffd5b61108392610cf6565b5f8181610f95565b92916110988183866110fd565b9260048110156110e95760018091161491826110be575b5050610c309250151590610c33565b90809250156110d557610c30930915155f806110af565b634e487b7160e01b5f52601260045260245ffd5b634e487b7160e01b5f52602160045260245ffd5b91818302915f198185099383808610950394808603951461118d57848311156111755790829109815f0382168092046002816003021880820260020302808202600203028082026002030280820260020302808202600203028091026002030293600183805f03040190848311900302920304170290565b82634e487b715f52156003026011186020526024601cfd5b5050809250156110d5570490565b905f602091828151910182855af115610bf1575f513d6111ea57506001600160a01b0381163b155b6111ca5750565b635274afe760e01b5f9081526001600160a01b0391909116600452602490fd5b600114156111c356fea264697066735822122092317043bdb6f7678cca917c6fa988ca1cab645c945a4e8616901f53dffd212b64736f6c634300081c0033",
    "sourcePath": "/mnt/extra/Projects/timewave/valence-workflow/solidity/src/libraries/ValenceVault.sol",
    "compiler": {
        "name": "solc",
        "version": "0.8.28+commit.7893614a"
    },
    "functionHashes": {
        "allowance(address,address)": "dd62ed3e",
        "approve(address,uint256)": "095ea7b3",
        "asset()": "38d52e0f",
        "assetsInPosition()": "3b524cb2",
        "balanceOf(address)": "70a08231",
        "config()": "79502c55",
        "convertToAssets(uint256)": "07a2d13a",
        "convertToShares(uint256)": "c6e6f592",
        "decimals()": "313ce567",
        "deposit(uint256,address)": "6e553f65",
        "maxDeposit(address)": "402d267d",
        "maxMint(address)": "c63d75b6",
        "maxRedeem(address)": "d905777e",
        "maxWithdraw(address)": "ce96cb77",
        "mint(uint256,address)": "94bf804d",
        "name()": "06fdde03",
        "owner()": "8da5cb5b",
        "previewDeposit(uint256)": "ef8b30f7",
        "previewMint(uint256)": "b3d7f6b9",
        "previewRedeem(uint256)": "4cdad506",
        "previewWithdraw(uint256)": "0a28a477",
        "processor()": "ce1b1d43",
        "redeem(uint256,address,address)": "ba087652",
        "renounceOwnership()": "715018a6",
        "strategist()": "1fe4a686",
        "symbol()": "95d89b41",
        "totalAssets()": "01e1d114",
        "totalSupply()": "18160ddd",
        "transfer(address,uint256)": "a9059cbb",
        "transferFrom(address,address,uint256)": "23b872dd",
        "transferOwnership(address)": "f2fde38b",
        "updateConfig(bytes)": "8cc6acce",
        "updateProcessor(address)": "8e8c6848",
        "withdraw(uint256,address,address)": "b460af94"
    },
    "gasEstimates": {
        "creation": {
            "codeDepositCost": "929800",
            "executionCost": "infinite",
            "totalCost": "infinite"
        },
        "external": {
            "allowance(address,address)": "3247",
            "approve(address,uint256)": "24361",
            "asset()": "infinite",
            "assetsInPosition()": "2468",
            "balanceOf(address)": "2728",
            "config()": "4751",
            "convertToAssets(uint256)": "infinite",
            "convertToShares(uint256)": "infinite",
            "decimals()": "infinite",
            "deposit(uint256,address)": "infinite",
            "maxDeposit(address)": "477",
            "maxMint(address)": "807",
            "maxRedeem(address)": "3080",
            "maxWithdraw(address)": "infinite",
            "mint(uint256,address)": "infinite",
            "name()": "infinite",
            "owner()": "2667",
            "previewDeposit(uint256)": "infinite",
            "previewMint(uint256)": "infinite",
            "previewRedeem(uint256)": "infinite",
            "previewWithdraw(uint256)": "infinite",
            "processor()": "2888",
            "redeem(uint256,address,address)": "infinite",
            "renounceOwnership()": "28372",
            "strategist()": "2404",
            "symbol()": "infinite",
            "totalAssets()": "infinite",
            "totalSupply()": "2358",
            "transfer(address,uint256)": "51233",
            "transferFrom(address,address,uint256)": "75674",
            "transferOwnership(address)": "28885",
            "updateConfig(bytes)": "infinite",
            "updateProcessor(address)": "27044",
            "withdraw(uint256,address,address)": "infinite"
        }
    }
}