{
    "contractName": "ValenceVault",
    "abi": [
        {
            "inputs": [
                {
                    "internalType": "address",
                    "name": "_owner",
                    "type": "address"
                },
                {
                    "internalType": "bytes",
                    "name": "_config",
                    "type": "bytes"
                },
                {
                    "internalType": "address",
                    "name": "underlying",
                    "type": "address"
                },
                {
                    "internalType": "string",
                    "name": "vaultTokenName",
                    "type": "string"
                },
                {
                    "internalType": "string",
                    "name": "vaultTokenSymbol",
                    "type": "string"
                }
            ],
            "stateMutability": "nonpayable",
            "type": "constructor"
        },
        {
            "inputs": [
                {
                    "internalType": "address",
                    "name": "spender",
                    "type": "address"
                },
                {
                    "internalType": "uint256",
                    "name": "allowance",
                    "type": "uint256"
                },
                {
                    "internalType": "uint256",
                    "name": "needed",
                    "type": "uint256"
                }
            ],
            "name": "ERC20InsufficientAllowance",
            "type": "error"
        },
        {
            "inputs": [
                {
                    "internalType": "address",
                    "name": "sender",
                    "type": "address"
                },
                {
                    "internalType": "uint256",
                    "name": "balance",
                    "type": "uint256"
                },
                {
                    "internalType": "uint256",
                    "name": "needed",
                    "type": "uint256"
                }
            ],
            "name": "ERC20InsufficientBalance",
            "type": "error"
        },
        {
            "inputs": [
                {
                    "internalType": "address",
                    "name": "approver",
                    "type": "address"
                }
            ],
            "name": "ERC20InvalidApprover",
            "type": "error"
        },
        {
            "inputs": [
                {
                    "internalType": "address",
                    "name": "receiver",
                    "type": "address"
                }
            ],
            "name": "ERC20InvalidReceiver",
            "type": "error"
        },
        {
            "inputs": [
                {
                    "internalType": "address",
                    "name": "sender",
                    "type": "address"
                }
            ],
            "name": "ERC20InvalidSender",
            "type": "error"
        },
        {
            "inputs": [
                {
                    "internalType": "address",
                    "name": "spender",
                    "type": "address"
                }
            ],
            "name": "ERC20InvalidSpender",
            "type": "error"
        },
        {
            "inputs": [
                {
                    "internalType": "address",
                    "name": "receiver",
                    "type": "address"
                },
                {
                    "internalType": "uint256",
                    "name": "assets",
                    "type": "uint256"
                },
                {
                    "internalType": "uint256",
                    "name": "max",
                    "type": "uint256"
                }
            ],
            "name": "ERC4626ExceededMaxDeposit",
            "type": "error"
        },
        {
            "inputs": [
                {
                    "internalType": "address",
                    "name": "receiver",
                    "type": "address"
                },
                {
                    "internalType": "uint256",
                    "name": "shares",
                    "type": "uint256"
                },
                {
                    "internalType": "uint256",
                    "name": "max",
                    "type": "uint256"
                }
            ],
            "name": "ERC4626ExceededMaxMint",
            "type": "error"
        },
        {
            "inputs": [
                {
                    "internalType": "address",
                    "name": "owner",
                    "type": "address"
                },
                {
                    "internalType": "uint256",
                    "name": "shares",
                    "type": "uint256"
                },
                {
                    "internalType": "uint256",
                    "name": "max",
                    "type": "uint256"
                }
            ],
            "name": "ERC4626ExceededMaxRedeem",
            "type": "error"
        },
        {
            "inputs": [
                {
                    "internalType": "address",
                    "name": "owner",
                    "type": "address"
                },
                {
                    "internalType": "uint256",
                    "name": "assets",
                    "type": "uint256"
                },
                {
                    "internalType": "uint256",
                    "name": "max",
                    "type": "uint256"
                }
            ],
            "name": "ERC4626ExceededMaxWithdraw",
            "type": "error"
        },
        {
            "inputs": [],
            "name": "FeeExceedsUint128",
            "type": "error"
        },
        {
            "inputs": [
                {
                    "internalType": "uint256",
                    "name": "required",
                    "type": "uint256"
                },
                {
                    "internalType": "uint256",
                    "name": "available",
                    "type": "uint256"
                }
            ],
            "name": "InsufficientAllowance",
            "type": "error"
        },
        {
            "inputs": [],
            "name": "InvalidAmount",
            "type": "error"
        },
        {
            "inputs": [],
            "name": "InvalidDepositAccount",
            "type": "error"
        },
        {
            "inputs": [],
            "name": "InvalidFeeConfiguration",
            "type": "error"
        },
        {
            "inputs": [],
            "name": "InvalidFeeDistribution",
            "type": "error"
        },
        {
            "inputs": [],
            "name": "InvalidMaxLoss",
            "type": "error"
        },
        {
            "inputs": [],
            "name": "InvalidMaxWithdrawFee",
            "type": "error"
        },
        {
            "inputs": [],
            "name": "InvalidOwner",
            "type": "error"
        },
        {
            "inputs": [],
            "name": "InvalidPlatformAccount",
            "type": "error"
        },
        {
            "inputs": [],
            "name": "InvalidRate",
            "type": "error"
        },
        {
            "inputs": [],
            "name": "InvalidReceiver",
            "type": "error"
        },
        {
            "inputs": [
                {
                    "internalType": "uint256",
                    "name": "sent",
                    "type": "uint256"
                },
                {
                    "internalType": "uint256",
                    "name": "required",
                    "type": "uint256"
                }
            ],
            "name": "InvalidSolverFee",
            "type": "error"
        },
        {
            "inputs": [],
            "name": "InvalidStrategist",
            "type": "error"
        },
        {
            "inputs": [],
            "name": "InvalidStrategistAccount",
            "type": "error"
        },
        {
            "inputs": [],
            "name": "InvalidUpdateSameBlock",
            "type": "error"
        },
        {
            "inputs": [],
            "name": "InvalidWithdrawAccount",
            "type": "error"
        },
        {
            "inputs": [],
            "name": "InvalidWithdrawFee",
            "type": "error"
        },
        {
            "inputs": [],
            "name": "InvalidWithdrawLockupPeriod",
            "type": "error"
        },
        {
            "inputs": [],
            "name": "OnlyOwnerOrStrategistAllowed",
            "type": "error"
        },
        {
            "inputs": [],
            "name": "OnlyStrategistAllowed",
            "type": "error"
        },
        {
            "inputs": [
                {
                    "internalType": "address",
                    "name": "owner",
                    "type": "address"
                }
            ],
            "name": "OwnableInvalidOwner",
            "type": "error"
        },
        {
            "inputs": [
                {
                    "internalType": "address",
                    "name": "account",
                    "type": "address"
                }
            ],
            "name": "OwnableUnauthorizedAccount",
            "type": "error"
        },
        {
            "inputs": [],
            "name": "ReentrancyGuardReentrantCall",
            "type": "error"
        },
        {
            "inputs": [
                {
                    "internalType": "address",
                    "name": "token",
                    "type": "address"
                }
            ],
            "name": "SafeERC20FailedOperation",
            "type": "error"
        },
        {
            "inputs": [],
            "name": "SolverFeeTransferFailed",
            "type": "error"
        },
        {
            "inputs": [],
            "name": "SolverNotAllowed",
            "type": "error"
        },
        {
            "inputs": [],
            "name": "UnexpectedETH",
            "type": "error"
        },
        {
            "inputs": [],
            "name": "VaultIsPaused",
            "type": "error"
        },
        {
            "inputs": [],
            "name": "WithdrawAlreadyExists",
            "type": "error"
        },
        {
            "inputs": [],
            "name": "WithdrawNotClaimable",
            "type": "error"
        },
        {
            "inputs": [],
            "name": "WithdrawRequestNotFound",
            "type": "error"
        },
        {
            "inputs": [],
            "name": "ZeroAssets",
            "type": "error"
        },
        {
            "inputs": [],
            "name": "ZeroShares",
            "type": "error"
        },
        {
            "anonymous": false,
            "inputs": [
                {
                    "indexed": true,
                    "internalType": "address",
                    "name": "owner",
                    "type": "address"
                },
                {
                    "indexed": true,
                    "internalType": "address",
                    "name": "spender",
                    "type": "address"
                },
                {
                    "indexed": false,
                    "internalType": "uint256",
                    "name": "value",
                    "type": "uint256"
                }
            ],
            "name": "Approval",
            "type": "event"
        },
        {
            "anonymous": false,
            "inputs": [
                {
                    "indexed": true,
                    "internalType": "address",
                    "name": "updater",
                    "type": "address"
                },
                {
                    "components": [
                        {
                            "internalType": "contract BaseAccount",
                            "name": "depositAccount",
                            "type": "address"
                        },
                        {
                            "internalType": "contract BaseAccount",
                            "name": "withdrawAccount",
                            "type": "address"
                        },
                        {
                            "internalType": "address",
                            "name": "strategist",
                            "type": "address"
                        },
                        {
                            "components": [
                                {
                                    "internalType": "uint32",
                                    "name": "depositFeeBps",
                                    "type": "uint32"
                                },
                                {
                                    "internalType": "uint32",
                                    "name": "platformFeeBps",
                                    "type": "uint32"
                                },
                                {
                                    "internalType": "uint32",
                                    "name": "performanceFeeBps",
                                    "type": "uint32"
                                },
                                {
                                    "internalType": "uint64",
                                    "name": "solverCompletionFee",
                                    "type": "uint64"
                                }
                            ],
                            "internalType": "struct ValenceVault.FeeConfig",
                            "name": "fees",
                            "type": "tuple"
                        },
                        {
                            "components": [
                                {
                                    "internalType": "address",
                                    "name": "strategistAccount",
                                    "type": "address"
                                },
                                {
                                    "internalType": "address",
                                    "name": "platformAccount",
                                    "type": "address"
                                },
                                {
                                    "internalType": "uint32",
                                    "name": "strategistRatioBps",
                                    "type": "uint32"
                                }
                            ],
                            "internalType": "struct ValenceVault.FeeDistributionConfig",
                            "name": "feeDistribution",
                            "type": "tuple"
                        },
                        {
                            "internalType": "uint128",
                            "name": "depositCap",
                            "type": "uint128"
                        },
                        {
                            "internalType": "uint64",
                            "name": "withdrawLockupPeriod",
                            "type": "uint64"
                        },
                        {
                            "internalType": "uint32",
                            "name": "maxWithdrawFee",
                            "type": "uint32"
                        }
                    ],
                    "indexed": false,
                    "internalType": "struct ValenceVault.VaultConfig",
                    "name": "newConfig",
                    "type": "tuple"
                }
            ],
            "name": "ConfigUpdated",
            "type": "event"
        },
        {
            "anonymous": false,
            "inputs": [
                {
                    "indexed": true,
                    "internalType": "address",
                    "name": "sender",
                    "type": "address"
                },
                {
                    "indexed": true,
                    "internalType": "address",
                    "name": "owner",
                    "type": "address"
                },
                {
                    "indexed": false,
                    "internalType": "uint256",
                    "name": "assets",
                    "type": "uint256"
                },
                {
                    "indexed": false,
                    "internalType": "uint256",
                    "name": "shares",
                    "type": "uint256"
                }
            ],
            "name": "Deposit",
            "type": "event"
        },
        {
            "anonymous": false,
            "inputs": [
                {
                    "indexed": false,
                    "internalType": "uint256",
                    "name": "netAmount",
                    "type": "uint256"
                },
                {
                    "indexed": false,
                    "internalType": "uint256",
                    "name": "timestamp",
                    "type": "uint256"
                }
            ],
            "name": "DepositWithdrawNetting",
            "type": "event"
        },
        {
            "anonymous": false,
            "inputs": [
                {
                    "indexed": true,
                    "internalType": "address",
                    "name": "strategistAccount",
                    "type": "address"
                },
                {
                    "indexed": true,
                    "internalType": "address",
                    "name": "platformAccount",
                    "type": "address"
                },
                {
                    "indexed": false,
                    "internalType": "uint256",
                    "name": "strategistShares",
                    "type": "uint256"
                },
                {
                    "indexed": false,
                    "internalType": "uint256",
                    "name": "platformShares",
                    "type": "uint256"
                }
            ],
            "name": "FeesDistributed",
            "type": "event"
        },
        {
            "anonymous": false,
            "inputs": [
                {
                    "indexed": false,
                    "internalType": "uint256",
                    "name": "platformFee",
                    "type": "uint256"
                },
                {
                    "indexed": false,
                    "internalType": "uint256",
                    "name": "performanceFee",
                    "type": "uint256"
                }
            ],
            "name": "FeesUpdated",
            "type": "event"
        },
        {
            "anonymous": false,
            "inputs": [
                {
                    "indexed": false,
                    "internalType": "uint256",
                    "name": "newRate",
                    "type": "uint256"
                }
            ],
            "name": "MaxHistoricalRateUpdated",
            "type": "event"
        },
        {
            "anonymous": false,
            "inputs": [
                {
                    "indexed": true,
                    "internalType": "address",
                    "name": "previousOwner",
                    "type": "address"
                },
                {
                    "indexed": true,
                    "internalType": "address",
                    "name": "newOwner",
                    "type": "address"
                }
            ],
            "name": "OwnershipTransferred",
            "type": "event"
        },
        {
            "anonymous": false,
            "inputs": [
                {
                    "indexed": false,
                    "internalType": "bool",
                    "name": "paused",
                    "type": "bool"
                }
            ],
            "name": "PausedStateChanged",
            "type": "event"
        },
        {
            "anonymous": false,
            "inputs": [
                {
                    "indexed": false,
                    "internalType": "uint256",
                    "name": "newRate",
                    "type": "uint256"
                }
            ],
            "name": "RateUpdated",
            "type": "event"
        },
        {
            "anonymous": false,
            "inputs": [
                {
                    "indexed": true,
                    "internalType": "address",
                    "name": "from",
                    "type": "address"
                },
                {
                    "indexed": true,
                    "internalType": "address",
                    "name": "to",
                    "type": "address"
                },
                {
                    "indexed": false,
                    "internalType": "uint256",
                    "name": "value",
                    "type": "uint256"
                }
            ],
            "name": "Transfer",
            "type": "event"
        },
        {
            "anonymous": false,
            "inputs": [
                {
                    "indexed": true,
                    "internalType": "uint256",
                    "name": "updateId",
                    "type": "uint256"
                },
                {
                    "indexed": false,
                    "internalType": "uint256",
                    "name": "withdrawRate",
                    "type": "uint256"
                },
                {
                    "indexed": false,
                    "internalType": "uint256",
                    "name": "totalAssetsToWithdraw",
                    "type": "uint256"
                }
            ],
            "name": "UpdateProcessed",
            "type": "event"
        },
        {
            "anonymous": false,
            "inputs": [
                {
                    "indexed": true,
                    "internalType": "address",
                    "name": "sender",
                    "type": "address"
                },
                {
                    "indexed": true,
                    "internalType": "address",
                    "name": "receiver",
                    "type": "address"
                },
                {
                    "indexed": true,
                    "internalType": "address",
                    "name": "owner",
                    "type": "address"
                },
                {
                    "indexed": false,
                    "internalType": "uint256",
                    "name": "assets",
                    "type": "uint256"
                },
                {
                    "indexed": false,
                    "internalType": "uint256",
                    "name": "shares",
                    "type": "uint256"
                }
            ],
            "name": "Withdraw",
            "type": "event"
        },
        {
            "anonymous": false,
            "inputs": [
                {
                    "indexed": true,
                    "internalType": "address",
                    "name": "owner",
                    "type": "address"
                },
                {
                    "indexed": false,
                    "internalType": "uint256",
                    "name": "shares",
                    "type": "uint256"
                },
                {
                    "indexed": false,
                    "internalType": "uint256",
                    "name": "currentLoss",
                    "type": "uint256"
                },
                {
                    "indexed": false,
                    "internalType": "uint256",
                    "name": "maxAllowedLoss",
                    "type": "uint256"
                }
            ],
            "name": "WithdrawCancelled",
            "type": "event"
        },
        {
            "anonymous": false,
            "inputs": [
                {
                    "indexed": true,
                    "internalType": "address",
                    "name": "owner",
                    "type": "address"
                },
                {
                    "indexed": true,
                    "internalType": "address",
                    "name": "receiver",
                    "type": "address"
                },
                {
                    "indexed": false,
                    "internalType": "uint256",
                    "name": "assets",
                    "type": "uint256"
                },
                {
                    "indexed": false,
                    "internalType": "uint256",
                    "name": "shares",
                    "type": "uint256"
                },
                {
                    "indexed": true,
                    "internalType": "address",
                    "name": "executor",
                    "type": "address"
                }
            ],
            "name": "WithdrawCompleted",
            "type": "event"
        },
        {
            "anonymous": false,
            "inputs": [
                {
                    "indexed": true,
                    "internalType": "address",
                    "name": "owner",
                    "type": "address"
                },
                {
                    "indexed": false,
                    "internalType": "string",
                    "name": "reason",
                    "type": "string"
                }
            ],
            "name": "WithdrawCompletionSkipped",
            "type": "event"
        },
        {
            "anonymous": false,
            "inputs": [
                {
                    "indexed": false,
                    "internalType": "uint256",
                    "name": "newFee",
                    "type": "uint256"
                }
            ],
            "name": "WithdrawFeeUpdated",
            "type": "event"
        },
        {
            "anonymous": false,
            "inputs": [
                {
                    "indexed": true,
                    "internalType": "address",
                    "name": "owner",
                    "type": "address"
                },
                {
                    "indexed": true,
                    "internalType": "address",
                    "name": "receiver",
                    "type": "address"
                },
                {
                    "indexed": false,
                    "internalType": "uint256",
                    "name": "shares",
                    "type": "uint256"
                },
                {
                    "indexed": false,
                    "internalType": "uint256",
                    "name": "maxLossBps",
                    "type": "uint256"
                },
                {
                    "indexed": false,
                    "internalType": "bool",
                    "name": "solverEnabled",
                    "type": "bool"
                },
                {
                    "indexed": false,
                    "internalType": "uint64",
                    "name": "updateId",
                    "type": "uint64"
                }
            ],
            "name": "WithdrawRequested",
            "type": "event"
        },
        {
            "inputs": [
                {
                    "internalType": "address",
                    "name": "owner",
                    "type": "address"
                },
                {
                    "internalType": "address",
                    "name": "spender",
                    "type": "address"
                }
            ],
            "name": "allowance",
            "outputs": [
                {
                    "internalType": "uint256",
                    "name": "",
                    "type": "uint256"
                }
            ],
            "stateMutability": "view",
            "type": "function"
        },
        {
            "inputs": [
                {
                    "internalType": "address",
                    "name": "spender",
                    "type": "address"
                },
                {
                    "internalType": "uint256",
                    "name": "value",
                    "type": "uint256"
                }
            ],
            "name": "approve",
            "outputs": [
                {
                    "internalType": "bool",
                    "name": "",
                    "type": "bool"
                }
            ],
            "stateMutability": "nonpayable",
            "type": "function"
        },
        {
            "inputs": [],
            "name": "asset",
            "outputs": [
                {
                    "internalType": "address",
                    "name": "",
                    "type": "address"
                }
            ],
            "stateMutability": "view",
            "type": "function"
        },
        {
            "inputs": [
                {
                    "internalType": "address",
                    "name": "account",
                    "type": "address"
                }
            ],
            "name": "balanceOf",
            "outputs": [
                {
                    "internalType": "uint256",
                    "name": "",
                    "type": "uint256"
                }
            ],
            "stateMutability": "view",
            "type": "function"
        },
        {
            "inputs": [
                {
                    "internalType": "uint256",
                    "name": "assets",
                    "type": "uint256"
                }
            ],
            "name": "calculateDepositFee",
            "outputs": [
                {
                    "internalType": "uint128",
                    "name": "",
                    "type": "uint128"
                }
            ],
            "stateMutability": "view",
            "type": "function"
        },
        {
            "inputs": [
                {
                    "internalType": "uint256",
                    "name": "shares",
                    "type": "uint256"
                }
            ],
            "name": "calculateMintFee",
            "outputs": [
                {
                    "internalType": "uint256",
                    "name": "",
                    "type": "uint256"
                },
                {
                    "internalType": "uint128",
                    "name": "",
                    "type": "uint128"
                }
            ],
            "stateMutability": "view",
            "type": "function"
        },
        {
            "inputs": [
                {
                    "internalType": "uint256",
                    "name": "newRate",
                    "type": "uint256"
                },
                {
                    "internalType": "uint256",
                    "name": "currentAssets",
                    "type": "uint256"
                },
                {
                    "internalType": "uint32",
                    "name": "performanceFeeBps",
                    "type": "uint32"
                }
            ],
            "name": "calculatePerformanceFees",
            "outputs": [
                {
                    "internalType": "uint128",
                    "name": "",
                    "type": "uint128"
                }
            ],
            "stateMutability": "view",
            "type": "function"
        },
        {
            "inputs": [
                {
                    "internalType": "uint256",
                    "name": "newRate",
                    "type": "uint256"
                },
                {
                    "internalType": "uint256",
                    "name": "currentAssets",
                    "type": "uint256"
                },
                {
                    "internalType": "uint256",
                    "name": "currentShares",
                    "type": "uint256"
                },
                {
                    "internalType": "uint32",
                    "name": "platformFeeBps",
                    "type": "uint32"
                }
            ],
            "name": "calculatePlatformFees",
            "outputs": [
                {
                    "internalType": "uint128",
                    "name": "",
                    "type": "uint128"
                }
            ],
            "stateMutability": "view",
            "type": "function"
        },
        {
            "inputs": [
                {
                    "internalType": "address",
                    "name": "owner",
                    "type": "address"
                }
            ],
            "name": "completeWithdraw",
            "outputs": [],
            "stateMutability": "nonpayable",
            "type": "function"
        },
        {
            "inputs": [
                {
                    "internalType": "address[]",
                    "name": "owners",
                    "type": "address[]"
                }
            ],
            "name": "completeWithdraws",
            "outputs": [],
            "stateMutability": "nonpayable",
            "type": "function"
        },
        {
            "inputs": [],
            "name": "config",
            "outputs": [
                {
                    "internalType": "contract BaseAccount",
                    "name": "depositAccount",
                    "type": "address"
                },
                {
                    "internalType": "contract BaseAccount",
                    "name": "withdrawAccount",
                    "type": "address"
                },
                {
                    "internalType": "address",
                    "name": "strategist",
                    "type": "address"
                },
                {
                    "components": [
                        {
                            "internalType": "uint32",
                            "name": "depositFeeBps",
                            "type": "uint32"
                        },
                        {
                            "internalType": "uint32",
                            "name": "platformFeeBps",
                            "type": "uint32"
                        },
                        {
                            "internalType": "uint32",
                            "name": "performanceFeeBps",
                            "type": "uint32"
                        },
                        {
                            "internalType": "uint64",
                            "name": "solverCompletionFee",
                            "type": "uint64"
                        }
                    ],
                    "internalType": "struct ValenceVault.FeeConfig",
                    "name": "fees",
                    "type": "tuple"
                },
                {
                    "components": [
                        {
                            "internalType": "address",
                            "name": "strategistAccount",
                            "type": "address"
                        },
                        {
                            "internalType": "address",
                            "name": "platformAccount",
                            "type": "address"
                        },
                        {
                            "internalType": "uint32",
                            "name": "strategistRatioBps",
                            "type": "uint32"
                        }
                    ],
                    "internalType": "struct ValenceVault.FeeDistributionConfig",
                    "name": "feeDistribution",
                    "type": "tuple"
                },
                {
                    "internalType": "uint128",
                    "name": "depositCap",
                    "type": "uint128"
                },
                {
                    "internalType": "uint64",
                    "name": "withdrawLockupPeriod",
                    "type": "uint64"
                },
                {
                    "internalType": "uint32",
                    "name": "maxWithdrawFee",
                    "type": "uint32"
                }
            ],
            "stateMutability": "view",
            "type": "function"
        },
        {
            "inputs": [
                {
                    "internalType": "uint256",
                    "name": "shares",
                    "type": "uint256"
                }
            ],
            "name": "convertToAssets",
            "outputs": [
                {
                    "internalType": "uint256",
                    "name": "",
                    "type": "uint256"
                }
            ],
            "stateMutability": "view",
            "type": "function"
        },
        {
            "inputs": [
                {
                    "internalType": "uint256",
                    "name": "assets",
                    "type": "uint256"
                }
            ],
            "name": "convertToShares",
            "outputs": [
                {
                    "internalType": "uint256",
                    "name": "",
                    "type": "uint256"
                }
            ],
            "stateMutability": "view",
            "type": "function"
        },
        {
            "inputs": [],
            "name": "decimals",
            "outputs": [
                {
                    "internalType": "uint8",
                    "name": "",
                    "type": "uint8"
                }
            ],
            "stateMutability": "view",
            "type": "function"
        },
        {
            "inputs": [
                {
                    "internalType": "uint256",
                    "name": "assets",
                    "type": "uint256"
                },
                {
                    "internalType": "address",
                    "name": "receiver",
                    "type": "address"
                }
            ],
            "name": "deposit",
            "outputs": [
                {
                    "internalType": "uint256",
                    "name": "",
                    "type": "uint256"
                }
            ],
            "stateMutability": "nonpayable",
            "type": "function"
        },
        {
            "inputs": [],
            "name": "feesOwedInAsset",
            "outputs": [
                {
                    "internalType": "uint128",
                    "name": "",
                    "type": "uint128"
                }
            ],
            "stateMutability": "view",
            "type": "function"
        },
        {
            "inputs": [
                {
                    "internalType": "address",
                    "name": "owner",
                    "type": "address"
                }
            ],
            "name": "hasActiveWithdraw",
            "outputs": [
                {
                    "internalType": "bool",
                    "name": "",
                    "type": "bool"
                }
            ],
            "stateMutability": "view",
            "type": "function"
        },
        {
            "inputs": [],
            "name": "lastUpdateTimestamp",
            "outputs": [
                {
                    "internalType": "uint64",
                    "name": "",
                    "type": "uint64"
                }
            ],
            "stateMutability": "view",
            "type": "function"
        },
        {
            "inputs": [],
            "name": "lastUpdateTotalShares",
            "outputs": [
                {
                    "internalType": "uint256",
                    "name": "",
                    "type": "uint256"
                }
            ],
            "stateMutability": "view",
            "type": "function"
        },
        {
            "inputs": [
                {
                    "internalType": "address",
                    "name": "",
                    "type": "address"
                }
            ],
            "name": "maxDeposit",
            "outputs": [
                {
                    "internalType": "uint256",
                    "name": "",
                    "type": "uint256"
                }
            ],
            "stateMutability": "view",
            "type": "function"
        },
        {
            "inputs": [],
            "name": "maxHistoricalRate",
            "outputs": [
                {
                    "internalType": "uint32",
                    "name": "",
                    "type": "uint32"
                }
            ],
            "stateMutability": "view",
            "type": "function"
        },
        {
            "inputs": [
                {
                    "internalType": "address",
                    "name": "",
                    "type": "address"
                }
            ],
            "name": "maxMint",
            "outputs": [
                {
                    "internalType": "uint256",
                    "name": "",
                    "type": "uint256"
                }
            ],
            "stateMutability": "view",
            "type": "function"
        },
        {
            "inputs": [
                {
                    "internalType": "address",
                    "name": "owner",
                    "type": "address"
                }
            ],
            "name": "maxRedeem",
            "outputs": [
                {
                    "internalType": "uint256",
                    "name": "",
                    "type": "uint256"
                }
            ],
            "stateMutability": "view",
            "type": "function"
        },
        {
            "inputs": [
                {
                    "internalType": "address",
                    "name": "owner",
                    "type": "address"
                }
            ],
            "name": "maxWithdraw",
            "outputs": [
                {
                    "internalType": "uint256",
                    "name": "",
                    "type": "uint256"
                }
            ],
            "stateMutability": "view",
            "type": "function"
        },
        {
            "inputs": [
                {
                    "internalType": "uint256",
                    "name": "shares",
                    "type": "uint256"
                },
                {
                    "internalType": "address",
                    "name": "receiver",
                    "type": "address"
                }
            ],
            "name": "mint",
            "outputs": [
                {
                    "internalType": "uint256",
                    "name": "",
                    "type": "uint256"
                }
            ],
            "stateMutability": "nonpayable",
            "type": "function"
        },
        {
            "inputs": [],
            "name": "name",
            "outputs": [
                {
                    "internalType": "string",
                    "name": "",
                    "type": "string"
                }
            ],
            "stateMutability": "view",
            "type": "function"
        },
        {
            "inputs": [],
            "name": "owner",
            "outputs": [
                {
                    "internalType": "address",
                    "name": "",
                    "type": "address"
                }
            ],
            "stateMutability": "view",
            "type": "function"
        },
        {
            "inputs": [],
            "name": "packedValues",
            "outputs": [
                {
                    "internalType": "uint64",
                    "name": "positionWithdrawFee",
                    "type": "uint64"
                },
                {
                    "internalType": "uint64",
                    "name": "currentUpdateId",
                    "type": "uint64"
                },
                {
                    "internalType": "uint64",
                    "name": "nextWithdrawRequestId",
                    "type": "uint64"
                },
                {
                    "internalType": "bool",
                    "name": "paused",
                    "type": "bool"
                }
            ],
            "stateMutability": "view",
            "type": "function"
        },
        {
            "inputs": [],
            "name": "pause",
            "outputs": [],
            "stateMutability": "nonpayable",
            "type": "function"
        },
        {
            "inputs": [
                {
                    "internalType": "uint256",
                    "name": "assets",
                    "type": "uint256"
                }
            ],
            "name": "previewDeposit",
            "outputs": [
                {
                    "internalType": "uint256",
                    "name": "",
                    "type": "uint256"
                }
            ],
            "stateMutability": "view",
            "type": "function"
        },
        {
            "inputs": [
                {
                    "internalType": "uint256",
                    "name": "shares",
                    "type": "uint256"
                }
            ],
            "name": "previewMint",
            "outputs": [
                {
                    "internalType": "uint256",
                    "name": "",
                    "type": "uint256"
                }
            ],
            "stateMutability": "view",
            "type": "function"
        },
        {
            "inputs": [
                {
                    "internalType": "uint256",
                    "name": "shares",
                    "type": "uint256"
                }
            ],
            "name": "previewRedeem",
            "outputs": [
                {
                    "internalType": "uint256",
                    "name": "",
                    "type": "uint256"
                }
            ],
            "stateMutability": "view",
            "type": "function"
        },
        {
            "inputs": [
                {
                    "internalType": "uint256",
                    "name": "assets",
                    "type": "uint256"
                }
            ],
            "name": "previewWithdraw",
            "outputs": [
                {
                    "internalType": "uint256",
                    "name": "",
                    "type": "uint256"
                }
            ],
            "stateMutability": "view",
            "type": "function"
        },
        {
            "inputs": [
                {
                    "internalType": "uint256",
                    "name": "shares",
                    "type": "uint256"
                },
                {
                    "internalType": "address",
                    "name": "receiver",
                    "type": "address"
                },
                {
                    "internalType": "address",
                    "name": "owner",
                    "type": "address"
                },
                {
                    "internalType": "uint32",
                    "name": "maxLossBps",
                    "type": "uint32"
                },
                {
                    "internalType": "bool",
                    "name": "allowSolverCompletion",
                    "type": "bool"
                }
            ],
            "name": "redeem",
            "outputs": [],
            "stateMutability": "payable",
            "type": "function"
        },
        {
            "inputs": [
                {
                    "internalType": "uint256",
                    "name": "shares",
                    "type": "uint256"
                },
                {
                    "internalType": "address",
                    "name": "receiver",
                    "type": "address"
                },
                {
                    "internalType": "address",
                    "name": "owner",
                    "type": "address"
                }
            ],
            "name": "redeem",
            "outputs": [
                {
                    "internalType": "uint256",
                    "name": "",
                    "type": "uint256"
                }
            ],
            "stateMutability": "nonpayable",
            "type": "function"
        },
        {
            "inputs": [],
            "name": "redemptionRate",
            "outputs": [
                {
                    "internalType": "uint32",
                    "name": "",
                    "type": "uint32"
                }
            ],
            "stateMutability": "view",
            "type": "function"
        },
        {
            "inputs": [],
            "name": "renounceOwnership",
            "outputs": [],
            "stateMutability": "nonpayable",
            "type": "function"
        },
        {
            "inputs": [],
            "name": "symbol",
            "outputs": [
                {
                    "internalType": "string",
                    "name": "",
                    "type": "string"
                }
            ],
            "stateMutability": "view",
            "type": "function"
        },
        {
            "inputs": [],
            "name": "totalAssets",
            "outputs": [
                {
                    "internalType": "uint256",
                    "name": "",
                    "type": "uint256"
                }
            ],
            "stateMutability": "view",
            "type": "function"
        },
        {
            "inputs": [],
            "name": "totalAssetsToWithdrawNextUpdate",
            "outputs": [
                {
                    "internalType": "uint128",
                    "name": "",
                    "type": "uint128"
                }
            ],
            "stateMutability": "view",
            "type": "function"
        },
        {
            "inputs": [],
            "name": "totalSupply",
            "outputs": [
                {
                    "internalType": "uint256",
                    "name": "",
                    "type": "uint256"
                }
            ],
            "stateMutability": "view",
            "type": "function"
        },
        {
            "inputs": [
                {
                    "internalType": "address",
                    "name": "to",
                    "type": "address"
                },
                {
                    "internalType": "uint256",
                    "name": "value",
                    "type": "uint256"
                }
            ],
            "name": "transfer",
            "outputs": [
                {
                    "internalType": "bool",
                    "name": "",
                    "type": "bool"
                }
            ],
            "stateMutability": "nonpayable",
            "type": "function"
        },
        {
            "inputs": [
                {
                    "internalType": "address",
                    "name": "from",
                    "type": "address"
                },
                {
                    "internalType": "address",
                    "name": "to",
                    "type": "address"
                },
                {
                    "internalType": "uint256",
                    "name": "value",
                    "type": "uint256"
                }
            ],
            "name": "transferFrom",
            "outputs": [
                {
                    "internalType": "bool",
                    "name": "",
                    "type": "bool"
                }
            ],
            "stateMutability": "nonpayable",
            "type": "function"
        },
        {
            "inputs": [
                {
                    "internalType": "address",
                    "name": "newOwner",
                    "type": "address"
                }
            ],
            "name": "transferOwnership",
            "outputs": [],
            "stateMutability": "nonpayable",
            "type": "function"
        },
        {
            "inputs": [],
            "name": "unpause",
            "outputs": [],
            "stateMutability": "nonpayable",
            "type": "function"
        },
        {
            "inputs": [
                {
                    "internalType": "uint32",
                    "name": "newRate",
                    "type": "uint32"
                },
                {
                    "internalType": "uint32",
                    "name": "newWithdrawFee",
                    "type": "uint32"
                },
                {
                    "internalType": "uint256",
                    "name": "nettingAmount",
                    "type": "uint256"
                }
            ],
            "name": "update",
            "outputs": [],
            "stateMutability": "nonpayable",
            "type": "function"
        },
        {
            "inputs": [
                {
                    "internalType": "bytes",
                    "name": "_config",
                    "type": "bytes"
                }
            ],
            "name": "updateConfig",
            "outputs": [],
            "stateMutability": "nonpayable",
            "type": "function"
        },
        {
            "inputs": [
                {
                    "internalType": "uint64",
                    "name": "",
                    "type": "uint64"
                }
            ],
            "name": "updateInfos",
            "outputs": [
                {
                    "internalType": "uint32",
                    "name": "withdrawRate",
                    "type": "uint32"
                },
                {
                    "internalType": "uint32",
                    "name": "withdrawFee",
                    "type": "uint32"
                },
                {
                    "internalType": "uint64",
                    "name": "timestamp",
                    "type": "uint64"
                }
            ],
            "stateMutability": "view",
            "type": "function"
        },
        {
            "inputs": [
                {
                    "internalType": "address",
                    "name": "",
                    "type": "address"
                }
            ],
            "name": "userWithdrawRequest",
            "outputs": [
                {
                    "internalType": "address",
                    "name": "owner",
                    "type": "address"
                },
                {
                    "internalType": "uint64",
                    "name": "claimTime",
                    "type": "uint64"
                },
                {
                    "internalType": "uint32",
                    "name": "maxLossBps",
                    "type": "uint32"
                },
                {
                    "internalType": "address",
                    "name": "receiver",
                    "type": "address"
                },
                {
                    "internalType": "uint64",
                    "name": "updateId",
                    "type": "uint64"
                },
                {
                    "internalType": "uint64",
                    "name": "solverFee",
                    "type": "uint64"
                },
                {
                    "internalType": "uint128",
                    "name": "sharesAmount",
                    "type": "uint128"
                }
            ],
            "stateMutability": "view",
            "type": "function"
        },
        {
            "inputs": [
                {
                    "internalType": "uint256",
                    "name": "assets",
                    "type": "uint256"
                },
                {
                    "internalType": "address",
                    "name": "receiver",
                    "type": "address"
                },
                {
                    "internalType": "address",
                    "name": "owner",
                    "type": "address"
                },
                {
                    "internalType": "uint32",
                    "name": "maxLossBps",
                    "type": "uint32"
                },
                {
                    "internalType": "bool",
                    "name": "allowSolverCompletion",
                    "type": "bool"
                }
            ],
            "name": "withdraw",
            "outputs": [],
            "stateMutability": "payable",
            "type": "function"
        },
        {
            "inputs": [
                {
                    "internalType": "uint256",
                    "name": "assets",
                    "type": "uint256"
                },
                {
                    "internalType": "address",
                    "name": "receiver",
                    "type": "address"
                },
                {
                    "internalType": "address",
                    "name": "owner",
                    "type": "address"
                }
            ],
            "name": "withdraw",
            "outputs": [
                {
                    "internalType": "uint256",
                    "name": "",
                    "type": "uint256"
                }
            ],
            "stateMutability": "nonpayable",
            "type": "function"
        }
    ],
    "bytecode": "60c0806040523461050e5761432a803803809161001c8285610719565b8339810160a08282031261050e576100338261073c565b60208301516001600160401b03811161050e57830182601f8201121561050e57828160206100639351910161076b565b916100706040850161073c565b60608501519094906001600160401b03811161050e57826100929183016107a1565b60808201519092906001600160401b03811161050e576100b292016107a1565b815190946001600160a01b0316916001600160401b0382116105125760035490600182811c9216801561070f575b60208310146106125781601f8493116106a1575b50602090601f831160011461063b575f92610630575b50508160011b915f199060031b1c1916176003555b83516001600160401b03811161051257600454600181811c91168015610626575b602082101461061257601f81116105af575b50602094601f821160011461054c579481929394955f92610541575b50508160011b915f199060031b1c1916176004555b61018c816107e3565b9015610539575b60a0526080526001600160a01b031690811561052657600580546001600160a01b03198116841790915560405192906001600160a01b03167f8be0079c531659141344cd1fd0a4f28419497f9722a3daafe3b4186f6b6457e05f80a360016006558080518101036101a0811261050e5761010083016001600160401b03811184821017610512576040526102296020830161073c565b83526102376040830161073c565b906020840191825261024b6060840161073c565b60408501908152906080605f1982011261050e576040519060808201906001600160401b038211838310176105125760609160405261028c608087016107be565b835261029a60a087016107be565b60208401526102ab60c087016107be565b60408401526102bc60e087016107cf565b8383015286820192835260df19011261050e57604051606081016001600160401b03811182821017610512576040526102f8610100860161073c565b8152610307610120860161073c565b916020820192835261031c61014087016107be565b60408301908152608088018390526101608701516001600160801b038116969195919087810361050e5760a08a015261036b6101a061035e6101808b016107cf565b998a60c08d0152016107be565b60e08a018190529851600780546001600160a01b03199081166001600160a01b03938416179091559151600880548416918316919091179055915160098054831691841691909117905591518051600a8054602080850151604080870151606097880151948a1663ffffffff97909716969096179190921b67ffffffff00000000161793811b6bffffffff00000000000000001693909317931b73ffffffffffffffff00000000000000000000000016929092179091559251600b8054909316908216179091559151600c805494516001600160c01b0319909516919093161760a09390931b63ffffffff60a01b16929092179055600d805460809490941b600160801b600160c01b03166001600160e01b0319909416929092179290921760c09390931b63ffffffff60c01b1692909217909155600f80546001600160401b0319908116652710000027101790915560118054909116426001600160401b03161790555f60105551613aa39081610887823960805181818161177d015281816119d901528181612d5d01528181612e5901526130ed015260a05181611adb0152f35b5f80fd5b634e487b7160e01b5f52604160045260245ffd5b631e4fbdf760e01b5f525f60045260245ffd5b506012610193565b015190505f8061016e565b601f1982169560045f52805f20915f5b8881106105975750836001959697981061057f575b505050811b01600455610183565b01515f1960f88460031b161c191690555f8080610571565b9192602060018192868501518155019401920161055c565b60045f527f8a35acfbc15ff81a39ae7d344fd709f28e8600b4aa8c65c6b64bfe7fe36bd19b601f830160051c81019160208410610608575b601f0160051c01905b8181106105fd5750610152565b5f81556001016105f0565b90915081906105e7565b634e487b7160e01b5f52602260045260245ffd5b90607f1690610140565b015190505f8061010a565b60035f9081528281209350601f198516905b8181106106895750908460019594939210610671575b505050811b0160035561011f565b01515f1960f88460031b161c191690555f8080610663565b9293602060018192878601518155019501930161064d565b60035f529091507fc2575a0e9e593c00f959f8c92f12db2869c3395a3b0502d05e2516446f71f85b601f840160051c81019160208510610705575b90601f859493920160051c01905b8181106106f757506100f4565b5f81558493506001016106ea565b90915081906106dc565b91607f16916100e0565b601f909101601f19168101906001600160401b0382119082101761051257604052565b51906001600160a01b038216820361050e57565b6001600160401b03811161051257601f01601f191660200190565b92919261077782610750565b916107856040519384610719565b82948184528183011161050e578281602093845f96015e010152565b9080601f8301121561050e5781516107bb9260200161076b565b90565b519063ffffffff8216820361050e57565b51906001600160401b038216820361050e57565b5f8091604051602081019063313ce56760e01b825260048152610807602482610719565b51916001600160a01b03165afa3d1561087e573d9061082582610750565b916108336040519384610719565b82523d5f602084013e5b80610872575b61084f575b505f905f90565b60208180518101031261050e576020015160ff8111610848579060ff6001921690565b50602081511015610843565b60609061083d56fe60806040526004361015610011575f80fd5b5f3560e01c806301e1d11414611e4d578063033384ce14611dae57806306fdde0314611cf357806307a2d13a146112b8578063095ea7b314611c4b5780630a28a47714611c2457806314bcec9f14611bfe57806318160ddd14611be15780631e154ca414611bbb57806323b872dd14611b83578063247d284b14611b655780632b6055a714611b0e578063313ce56714611ac7578063314a416314611a3d5780633203fce714611a0857806338d52e0f146119c45780633f4ba83a1461194d578063402d267d146119295780634039e47a146112bd5780634cdad506146112b85780635120b17e14611268578063540385a3146112455780635726a936146112205780635a5947a2146111865780635c095e54146111515780636e553f651461107057806370a08231146104a5578063715018a6146110155780637641ba6c14610fb357806379502c5514610eb15780638456cb5914610e225780638cc6acce146109075780638da5cb5b146108df57806394bf804d1461081c57806395d89b4114610710578063a9059cbb146106df578063b3d7f6b9146106b8578063b460af9414610654578063b82004d014610611578063ba0876521461059c578063be062acc14610573578063bf3b826b1461052c578063c63d75b614610508578063c6e6f592146102d4578063ce96cb77146104e5578063d905777e146104a5578063dd62ed3e14610455578063dd7d729c14610438578063de6ca51a146102d9578063ef8b30f7146102d45763f2fde38b1461024a575f80fd5b346102d05760203660031901126102d057610263611e74565b61026b612dab565b6001600160a01b031680156102bd57600580546001600160a01b0319811683179091556001600160a01b03167f8be0079c531659141344cd1fd0a4f28419497f9722a3daafe3b4186f6b6457e05f80a3005b631e4fbdf760e01b5f525f60045260245ffd5b5f80fd5b6120c8565b346102d05760203660031901126102d0576004356001600160401b0381116102d057366023820112156102d05780600401356001600160401b0381116102d0576024820191602436918360051b0101116102d0576103356125e0565b60ff600e5460c01c1661042957905f915f915b81831061038857838061035d575b6001600655005b5f80808093335af161036d61232c565b50156103795780610356565b632e4c440f60e11b5f5260045ffd5b9091926103a66103a161039c8686866123cc565b6123f0565b613484565b8051156103c85760019160406103be92015190612404565b935b019190610348565b93600191947fac58917a15d99f0f71d411c3f205fd07c17c6a8846d4f5532f9cf81854dd27ca610421606061040161039c868a8a6123cc565b9301519260405191829160208352878060a01b0316946020830190611ea0565b0390a26103c0565b6336039cdb60e11b5f5260045ffd5b346102d0575f3660031901126102d0576020601054604051908152f35b346102d05760403660031901126102d05761046e611e74565b610476611e8a565b6001600160a01b039182165f908152600160209081526040808320949093168252928352819020549051908152f35b346102d05760203660031901126102d05760206104dd6104c3611e74565b6001600160a01b03165f9081526020819052604090205490565b604051908152f35b346102d05760203660031901126102d05760206104dd610503611e74565b6123a7565b346102d05760203660031901126102d057610521611e74565b5060206104dd61235b565b346102d05760203660031901126102d057610545611e74565b61054d6125e0565b60ff600e5460c01c1661042957610565604091612ea5565b01518061035d576001600655005b346102d0575f3660031901126102d05760206001600160801b0360115460401c16604051908152f35b346102d0576105aa3661208e565b90916105c68260018060a01b03165f525f60205260405f205490565b8082116105f057506104dd906020936105e763ffffffff600f5416836125aa565b93849133612dd2565b91632e52afbb60e21b5f5260018060a01b031660045260245260445260645ffd5b346102d05760603660031901126102d05760443563ffffffff811681036102d0576106436020916024356004356122d2565b6001600160801b0360405191168152f35b346102d0576106623661208e565b909161066d826123a7565b80821161069757506020926104dd9161068e63ffffffff600f541682612571565b93849233612dd2565b91633fa733bb60e21b5f5260018060a01b031660045260245260445260645ffd5b346102d05760203660031901126102d05760206104dd63ffffffff600f54166004356125c4565b346102d05760403660031901126102d0576107056106fb611e74565b60243590336124b4565b602060405160018152f35b346102d0575f3660031901126102d0576040515f6004548060011c90600181168015610812575b6020831081146107fe578285529081156107da575060011461077c575b6107788361076481850382611fd0565b604051918291602083526020830190611ea0565b0390f35b91905060045f527f8a35acfbc15ff81a39ae7d344fd709f28e8600b4aa8c65c6b64bfe7fe36bd19b915f905b8082106107c057509091508101602001610764610754565b9192600181602092548385880101520191019092916107a8565b60ff191660208086019190915291151560051b840190910191506107649050610754565b634e487b7160e01b5f52602260045260245ffd5b91607f1691610737565b346102d05760403660031901126102d057600435610838611e8a565b9060ff600e5460c01c166104295761084e61235b565b8082116108be576020836104dd8461086581612234565b93846001600160801b0383961661087e575b5033612cec565b600160401b600160c01b036108a2601154926001600160801b038460401c16612214565b60401b1690600160401b600160c01b0319161760115586610877565b9163284ff66760e01b5f5260018060a01b031660045260245260445260645ffd5b346102d0575f3660031901126102d0576005546040516001600160a01b039091168152602090f35b346102d05760203660031901126102d0576004356001600160401b0381116102d057366023820112156102d057806004013561094281612073565b906109506040519283611fd0565b808252602082019236602483830101116102d057815f9260246020930186378301015261097b612dab565b808051810103906101a082126102d0576109a06040519361099b85611f4f565b612299565b83526109ae60408201612299565b92602081019384526109c260608301612299565b60408201908152916080605f198501126102d0576060604051946109e586611f7f565b6109f1608084016122ad565b86526109ff60a084016122ad565b6020870152610a1060c084016122ad565b6040870152610a2160e084016122be565b8683015283820195865260df1901126102d05760405193610a4185611f9a565b610a4e6101008301612299565b8552610a5d6101208301612299565b6020860152610a6f61014083016122ad565b6040860152608083019485526101608201516001600160801b03811681036102d05760a08401908152610ab96101a0610aab61018086016122be565b9460c08701958652016122ad565b60e0850190815284519095906001600160a01b031615610e135787516001600160a01b031615610e045780516001600160a01b031615610df557825161271063ffffffff82511611908115610dde575b8115610dc7575b50610db85761271063ffffffff6040895101511611610da9578651602001516001600160a01b031615610d9a578651516001600160a01b031615610d8b5761271063ffffffff87511611610d7c576001600160401b0384511615610d6d579351600780546001600160a01b03199081166001600160a01b039384169081179092558951600880548316918516919091179055865160098054831691851691909117905584518051600a805460208085015160408087015160609788015194891663ffffffff9788161792841b67ffffffff00000000169290921791811b6bffffffff0000000000000000169190911792861b67ffffffffffffffff60601b16929092179092558c518051600b80549097169089161790955584820151600c8054968301516001600160c01b03199097169189169190911760a096871b63ffffffff60a01b161790558751600d80548c518f516001600160e01b03199092166001600160801b0394851617608091821b67ffffffffffffffff60801b161760c092831b63ffffffff60c01b161790925583519889529f518916888501529b519097168682015297518051831686850152908101518216998501999099529588015186169183019190915295909501516001600160401b039081169886019890985293969195919391610d2c905180516001600160a01b0390811660e08b01526020820151166101008a01526040015163ffffffff16610120890152565b5116610140860152511661016084015251166101808201527ff3a0dfb90c47eabb7cd983dab150e2b3be88142dbe430d01cb3b149b49a174276101a03392a2005b633176725f60e11b5f5260045ffd5b63bfce468360e01b5f5260045ffd5b6373b24c3f60e01b5f5260045ffd5b63e6737da360e01b5f5260045ffd5b63d138b13f60e01b5f5260045ffd5b63369276d760e11b5f5260045ffd5b6127109150604063ffffffff910151161189610b10565b905061271063ffffffff6020830151161190610b09565b6361f986b960e11b5f5260045ffd5b6328ad045560e21b5f5260045ffd5b63266fdceb60e21b5f5260045ffd5b346102d0575f3660031901126102d0576005546001600160a01b031633141580610e9c575b610e8d57600e805460ff60c01b1916600160c01b179055604051600181527f9e3a5e37224532dea67b89face185703738a228a6e8a23dee546960180d3be6490602090a1005b63b31dde8b60e01b5f5260045ffd5b506009546001600160a01b0316331415610e47565b346102d0575f3660031901126102d0576007546008546009546101a0926001600160a01b039081169263ffffffff9290821691610f849116610f54610ef4611ff1565b610efc61203b565b92600d54956040519889526020890152604088015260608701906001600160401b036060809263ffffffff815116855263ffffffff602082015116602086015263ffffffff6040820151166040860152015116910152565b80516001600160a01b0390811660e08701526020820151166101008601526040015163ffffffff16610120850152565b6001600160801b0381166101408401526001600160401b038160801c1661016084015260c01c16610180820152f35b346102d05760203660031901126102d0576004356001600160401b0381168091036102d0575f526014602052606060405f20546001600160401b036040519163ffffffff8116835263ffffffff8160201c16602084015260401c166040820152f35b346102d0575f3660031901126102d05761102d612dab565b600580546001600160a01b031981169091555f906001600160a01b03167f8be0079c531659141344cd1fd0a4f28419497f9722a3daafe3b4186f6b6457e08280a3005b346102d05760403660031901126102d05760043561108c611e8a565b9060ff600e5460c01c16610429576110a26121d3565b80821161113057506104dd6020926110e76110bc846120f0565b6001600160801b038116906110d18287612137565b916110f0575b5063ffffffff600f5416906125b7565b92839133612cec565b600160401b600160c01b03611114601154926001600160801b038460401c16612214565b60401b1690600160401b600160c01b03191617601155866110d7565b91633c8097d960e11b5f5260018060a01b031660045260245260445260645ffd5b346102d05760203660031901126102d05760406001600160801b03611177600435612234565b83519182529091166020820152f35b61118f36611ef7565b9261119b9291926125e0565b60ff600e5460c01c16610429576111ba63ffffffff8416868484612600565b6001600160a01b0382165f90815260208190526040902054948581116111f75761035695506111f163ffffffff600f5416826125aa565b90612667565b632e52afbb60e21b5f9081526001600160a01b0384166004526024919091526044869052606490fd5b346102d0575f3660031901126102d057602063ffffffff600f54821c16604051908152f35b346102d0575f3660031901126102d057602063ffffffff600f5416604051908152f35b346102d05760203660031901126102d05760206112ae611286611e74565b60018060a01b03165f5260136020526001600160801b03600260405f20015460401c16151590565b6040519015158152f35b611ec4565b346102d05760603660031901126102d05760043563ffffffff81168082036102d0576024359063ffffffff82168092036102d05760095460443593906001600160a01b0316330361191a5760115493426001600160401b0386161461190b5782156118fc5760405161132e81611f4f565b6007546001600160a01b0390811682526008548116602083015260095416604082015260e061135b611ff1565b916060810192835261136b61203b565b608082015263ffffffff600d546001600160801b03811660a08401526001600160401b038160801c1660c084015260c01c16918291015285116118ed576113bd60025463ffffffff600f5416906125aa565b956002549687156118de5780156118cf576113f89063ffffffff60406113ec82602088510151168c858c612144565b955101511690876122d2565b916001600160801b0381169081158015906118bd575b611844575b5050505061141f612b65565b6040519161142c83611f7f565b600e54916001600160401b038316845260208401966001600160401b038460401c16885260408501916001600160401b038560801c16835260ff606087019560c01c161515855280611721575b508663ffffffff600f5416039363ffffffff851161170d576001600160401b03895116926001600160401b03841461170d577fe65c987b2e4668e09ba867026921588005b2b2063607a1e7e7d91683c8f91b7b9960209989976001600160401b03600163ffffffff9801168352816001600160401b0342169a886040519361150085611f9a565b16928381528c8f8201848152604083019182526001600160401b038851165f526020601490528b60405f209351168c198454161783555167ffffffff000000008084549260201b16169067ffffffff0000000019161782555167ffffffffffffffff60401b8083549260401b16169067ffffffffffffffff60401b19161790556001600160401b038551167f958cbba38e91e70a6bbeaa4da6ab0e16c15bc9fcbae057a72a9117c31efd83fd60406012549581519081526001600160801b0387166020820152a27f9a1f74aeeb037eb3d45b22a56376dadd6ba6ded25ec3727e520415f6c76768a98e604051848152a1526fffffffffffffffffffffffffffffffff1916601255600e80549251935194516001600160c81b031990931678ffffffffffffffffffffffffffffffffff0000000000000000199092169190911760409390931b67ffffffffffffffff60401b169290921760809390931b67ffffffffffffffff60801b169290921791151560c01b60ff60c01b16919091179055600f8054831981168617918290556010929092556011805467ffffffffffffffff191690961790955593861c1682116116bf575b505050604051908152a1005b67ffffffff0000000090851b16916001600160401b0319161717600f557f4598e3a72921b6330ecba2176f7a2b3d6e6e3f477031e90a252d42ff38ea12ec82604051838152a18381816116b3565b634e487b7160e01b5f52601160045260245ffd5b60085460405163a9059cbb60e01b60208201526001600160a01b039091166024820152604481018290525f919082906117d19061176b81606481015b03601f198101835282611fd0565b600754604051635b0e93fb60e11b81527f00000000000000000000000000000000000000000000000000000000000000006001600160a01b0390811660048301526024820188905260606044830152909687949290911692849283916064830190611ea0565b03925af1908115611839577f8d9b68a8904b973ddc0ce7a828ce8fd786f2ea78289d1826ecee8e524e66093e92604092611819575b508151908152426020820152a188611479565b611834903d805f833e61182c8183611fd0565b810190612c72565b611806565b6040513d5f823e3d90fd5b83604093600160401b600160c01b036118936118897f5c6323bf1c2d7aaea2c091a4751c1c87af7f2864650c336507a77d0557af37a1986001600160801b0396612214565b8584891c16612214565b861b1690600160401b600160c01b031916176011558351928352166020820152a185808080611413565b506001600160801b038416151561140e565b630cb65c7760e21b5f5260045ffd5b639811e0c760e01b5f5260045ffd5b639ed580f560e01b5f5260045ffd5b636a43f8d160e01b5f5260045ffd5b6335c6cc7b60e21b5f5260045ffd5b6339858cf760e11b5f5260045ffd5b346102d05760203660031901126102d057611942611e74565b5060206104dd6121d3565b346102d0575f3660031901126102d0576005546001600160a01b0316331415806119af575b610e8d5760ff60c01b19600e5416600e557f9e3a5e37224532dea67b89face185703738a228a6e8a23dee546960180d3be6460206040515f8152a1005b506009546001600160a01b0316331415611972565b346102d0575f3660031901126102d0576040517f00000000000000000000000000000000000000000000000000000000000000006001600160a01b03168152602090f35b346102d05760803660031901126102d05760643563ffffffff811681036102d057610643602091604435602435600435612144565b611a4636611ef7565b92611a529291926125e0565b60ff600e5460c01c1661042957611a7163ffffffff8416868484612600565b611a8363ffffffff600f541686612571565b94611a8d836123a7565b95868211611a9f576103569650612667565b633fa733bb60e21b5f9081526001600160a01b03851660045260248390526044889052606490fd5b346102d0575f3660031901126102d05760ff7f00000000000000000000000000000000000000000000000000000000000000001660ff811161170d57602090604051908152f35b346102d0575f3660031901126102d0576080600e5460ff604051916001600160401b03811683526001600160401b038160401c1660208401526001600160401b0381851c16604084015260c01c1615156060820152f35b346102d05760203660031901126102d05760206106436004356120f0565b346102d05760603660031901126102d057610705611b9f611e74565b611ba7611e8a565b60443591611bb6833383612411565b6124b4565b346102d0575f3660031901126102d05760206001600160801b0360125416604051908152f35b346102d0575f3660031901126102d0576020600254604051908152f35b346102d0575f3660031901126102d05760206001600160401b0360115416604051908152f35b346102d05760203660031901126102d05760206104dd63ffffffff600f5416600435612571565b346102d05760403660031901126102d057611c64611e74565b602435903315611ce0576001600160a01b0316908115611ccd57335f52600160205260405f20825f526020528060405f20556040519081527f8c5be1e5ebec7d5bd14f71427d1e84f3dd0314c0f7b2291e5b200ac8c7c3b92560203392a3602060405160018152f35b634a1406b160e11b5f525f60045260245ffd5b63e602df0560e01b5f525f60045260245ffd5b346102d0575f3660031901126102d0576040515f6003548060011c90600181168015611da4575b6020831081146107fe578285529081156107da5750600114611d46576107788361076481850382611fd0565b91905060035f527fc2575a0e9e593c00f959f8c92f12db2869c3395a3b0502d05e2516446f71f85b915f905b808210611d8a57509091508101602001610764610754565b919260018160209254838588010152019101909291611d72565b91607f1691611d1a565b346102d05760203660031901126102d0576001600160a01b03611dcf611e74565b165f52601360205260e060405f206001600160801b038154916001600160401b0360026001830154920154916040519460018060a01b0381168652828160a01c166020870152861c604086015260018060a01b038116606086015260a01c1660808401526001600160401b03811660a084015260401c1660c0820152f35b346102d0575f3660031901126102d05760206104dd60025463ffffffff600f5416906125aa565b600435906001600160a01b03821682036102d057565b602435906001600160a01b03821682036102d057565b805180835260209291819084018484015e5f828201840152601f01601f1916010190565b346102d05760203660031901126102d057611eec61271063ffffffff600f5416600435612ac8565b604051908152602090f35b60a09060031901126102d057600435906024356001600160a01b03811681036102d057906044356001600160a01b03811681036102d0579060643563ffffffff811681036102d0579060843580151581036102d05790565b61010081019081106001600160401b03821117611f6b57604052565b634e487b7160e01b5f52604160045260245ffd5b608081019081106001600160401b03821117611f6b57604052565b606081019081106001600160401b03821117611f6b57604052565b60e081019081106001600160401b03821117611f6b57604052565b90601f801991011681019081106001600160401b03821117611f6b57604052565b60405190611ffe82611f7f565b8160606001600160401b03600a5463ffffffff8116845263ffffffff8160201c16602085015263ffffffff8160401c166040850152821c16910152565b6040519061204882611f9a565b600b546001600160a01b039081168352600c54908116602084015260a01c63ffffffff166040830152565b6001600160401b038111611f6b57601f01601f191660200190565b60609060031901126102d057600435906024356001600160a01b03811681036102d057906044356001600160a01b03811681036102d05790565b346102d05760203660031901126102d057611eec63ffffffff600f5416612710600435612ac8565b63ffffffff600a5416801561213157612108916125c4565b6001600160801b038111612122576001600160801b031690565b637ce9126360e11b5f5260045ffd5b50505f90565b9190820391821161170d57565b90919263ffffffff169081156121cb57836121839161210895916010549081106121c3575b50600f5463ffffffff1690818111156121bb5750906129ce565b918083116121b1575b506121ac906121a66001600160401b036011541642612137565b926129ce565b612a51565b91506121ac61218c565b9050906129ce565b91505f612169565b505050505f90565b6001600160801b03600d5416801561220e576121fa60025463ffffffff600f5416906125aa565b818110156121315761220b91612137565b90565b505f1990565b906001600160801b03809116911601906001600160801b03821161170d57565b6122479063ffffffff600f5416906125c4565b9063ffffffff600a541680156122945761271003612710811161170d576122716122789184612571565b9283612137565b916001600160801b03831161212257916001600160801b031690565b505f90565b51906001600160a01b03821682036102d057565b519063ffffffff821682036102d057565b51906001600160401b03821682036102d057565b909163ffffffff169081158015612317575b612310576121089261230561230b9263ffffffff600f5460201c1690612137565b906129ce565b6129ce565b5050505f90565b5063ffffffff600f5460201c168111156122e4565b3d15612356573d9061233d82612073565b9161234b6040519384611fd0565b82523d5f602084013e565b606090565b6001600160801b03600d5416801561220e5761238260025463ffffffff600f5416906125aa565b90808210156121315761220b9161239891612137565b63ffffffff600f5416906125b7565b60018060a01b03165f525f60205261220b60405f205463ffffffff600f5416906125aa565b91908110156123dc5760051b0190565b634e487b7160e01b5f52603260045260245ffd5b356001600160a01b03811681036102d05790565b9190820180921161170d57565b6001600160a01b039081165f818152600160209081526040808320948616835293905291909120549291905f19841061244b575b50505050565b828410612491578015611ce0576001600160a01b03821615611ccd575f52600160205260405f209060018060a01b03165f5260205260405f20910390555f808080612445565b508290637dc7a0d960e11b5f5260018060a01b031660045260245260445260645ffd5b6001600160a01b031690811561255e576001600160a01b031691821561254b57815f525f60205260405f205481811061253257817fddf252ad1be2c89b69c2b068fc378daa952ba7f163c4a11628f55a4df523b3ef92602092855f525f84520360405f2055845f525f825260405f20818154019055604051908152a3565b8263391434e360e21b5f5260045260245260445260645ffd5b63ec442f0560e01b5f525f60045260245ffd5b634b637e8f60e11b5f525f60045260245ffd5b9061257f8161271084612ac8565b9080156125965761271061220b9309151590612404565b634e487b7160e01b5f52601260045260245ffd5b61220b9161271091612ac8565b9061271061220b92612ac8565b61271061220b926125d6828285612ac8565b9209151590612404565b6002600654146125f1576002600655565b633ee5aeb560e01b5f5260045ffd5b6001600160a01b031615612658576001600160a01b031615612649571561263a576127101061262b57565b63ef374dc760e01b5f5260045ffd5b63162908e360e11b5f5260045ffd5b6349e27cff60e01b5f5260045ffd5b631e4ec46b60e01b5f5260045ffd5b9293919490946126998560018060a01b03165f5260136020526001600160801b03600260405f20015460401c16151590565b6129b5576001600160a01b038516948433879003612966575b6126bb91613934565b60016001600160401b03600e5460401c1601956001600160401b03871161170d576001600160801b036126f5816012549316828416612214565b16906001600160801b031916176012556001600160401b0361271e81600d5460801c1642612404565b16821561295f576001600160401b03600a5460601c16905b60405161274281611fb5565b8781526020810191825263ffffffff60408201961693848752606082019060018060a01b0316998a82526001600160401b03608084019116978882526001600160401b0360a085019616865260c08401946001600160801b038b168652885f146128ff576001600160401b038751168034036128e957509361289660809a9896946001600160401b0380958f957fb1c8ca544959b748f5e7cca81fe3458fc32104becdef8680a12b76b09f6fd9a39f9d9b9983612840916002995b5f9081526013602052604090209851895491516001600160e01b03199092166001600160a01b039190911617911660a01b67ffffffffffffffff60a01b16178755565b5185546001600160e01b031660e09190911b6001600160e01b031990811691909117865592516001860180549251929094166001600160a01b039190911617911660a01b67ffffffffffffffff60a01b16179055565b019251166001600160401b031983541617825551600160401b600160c01b038083549260401b161690600160401b600160c01b0319161790556040519384526020840152151560408301526060820152a3565b632a91a70360e11b5f523460045260245260445ffd5b9190999795939896949298346129505761289660809a6001600160401b036002948f9e7fb1c8ca544959b748f5e7cca81fe3458fc32104becdef8680a12b76b09f6fd9a39f838099612840926127fd565b634012205560e01b5f5260045ffd5b5f90612736565b505f86815260016020908152604080832033845290915290205485811061299f5750846126bb91612998823383612411565b91506126b2565b8563054365bb60e31b5f5260045260245260445ffd5b6386aa2a4360e01b5f5260045ffd5b8115612596570490565b9190915f838202915f1985820991838084109303928084039314612a4457826127101115612a3257507fbc01a36e2eb1c432ca57a786c226809d495182a9930be0ded288ce703afb7e919394612710910990828211900360fc1b910360041c170290565b634e487b71905260116020526024601cfd5b5050506127109192500490565b9190915f838202915f1985820991838084109303928084039314612ab957826301e133801115612a3257507f98f5be4dd1e14769fbd6666224dc1eb80dd2e0a3d2c8b328f57e76b7ae10395793946301e13380910990828211900360f91b910360071c170290565b5050506301e133809192500490565b91818302915f1981850993838086109503948086039514612b585784831115612b405790829109815f0382168092046002816003021880820260020302808202600203028082026002030280820260020302808202600203028091026002030293600183805f03040190848311900302920304170290565b82634e487b715f52156003026011186020526024601cfd5b50509061220b92506129c4565b612b6d61203b565b6001600160801b0360115460401c16908115612c6e577ff227c93b6b816f85ef75ee32431495d61932665acd4193a40431a42f1502701a6040612be0612bc6612bbf63ffffffff8487015116876125aa565b8096612137565b94612bda63ffffffff600f541680926125b7565b956125b7565b9380612c53575b84612c35575b6011805477ffffffffffffffffffffffffffffffff00000000000000001916905583516020948501518351928352948201959095526001600160a01b039384169490931692a3565b6020840151612c4e9086906001600160a01b03166139b8565b612bed565b8351612c699082906001600160a01b03166139b8565b612be7565b5050565b6020818303126102d0578051906001600160401b0382116102d0570181601f820112156102d057805190612ca582612073565b92612cb36040519485611fd0565b828452602083830101116102d057815f9260208093018386015e8301015290565b63ffffffff16612710039063ffffffff821161170d57565b91927fdcbc1c05240f31ff3ad067ef1ee35ce4997762752e3a095284754544f4c709d791604091612d8a60018060a01b0360075416958451906323b872dd60e01b602083015260018060a01b031696876024830152604482015287606482015260648152612d5b608482611fd0565b7f00000000000000000000000000000000000000000000000000000000000000006001600160a01b0316613a15565b612d9481836139b8565b825195865260208601526001600160a01b031693a3565b6005546001600160a01b03163303612dbf57565b63118cdaa760e01b5f523360045260245ffd5b6001600160a01b0380841695908216937ffbde797d201c681b91056529119e0b02407c7bb96a4a2c75c01fc9667232c8db93604093909291612e2191839190828b8a03612e94575b5050613934565b825163a9059cbb60e01b60208201526001600160a01b038316602482015260448101879052612e7d90612e57816064810161175d565b7f0000000000000000000000000000000000000000000000000000000000000000613a15565b825195865260208601526001600160a01b031693a4565b612e9e9183612411565b5f82612e1a565b604051612eb181611f7f565b5f81525f60208201525f60408201526060808201525060018060a01b038116805f52601360205260405f209160405191612eea83611fb5565b835460018060a01b038116845260208401926001600160401b038260a01c168452604085019160e01c825260018601546002606087019760018060a01b03831689526001600160401b03608089019360a01c1683520154946001600160801b0360a08801966001600160401b038116885260401c169660c08101978089521561347557516001600160a01b031633141580613463575b6133f657516001600160401b0316421061338b576001600160401b039051165f52601460205260405f209160405192612fb884611f9a565b549063ffffffff82168085526001600160401b03602086019363ffffffff8160201c16855260401c16604086015263ffffffff600f5416908082105f1461336b57506001600160401b03600e541690036001600160401b03811161170d576001600160401b0316936130318563ffffffff835116612137565b612710810290808204612710149015171561170d5763ffffffff613057925116906129c4565b9163ffffffff825116831161328c575050505061307e906001600160801b038551166125aa565b925b5f828152601360209081526040808320838155600181018490556002018390558751905163a9059cbb60e01b928101929092526001600160a01b03166024820152604481018690528190613141906130db816064810161175d565b600854604051635b0e93fb60e11b81527f00000000000000000000000000000000000000000000000000000000000000006001600160a01b0390811660048301526024820187905260606044830152909586949290911692849283916064830190611ea0565b03925af19081613274575b506131ec57505050505060016131af5760405161316881611f7f565b5f81525f60208201525f6040820152604051613185604082611fd0565b6015815274105cdcd95d081d1c985b9cd9995c8819985a5b1959605a1b6020820152606082015290565b60405162461bcd60e51b8152602060048201526015602482015274105cdcd95d081d1c985b9cd9995c8819985a5b1959605a1b6044820152606490fd5b6001600160801b036001600160401b03949560018060a01b03905116915116916040519286845260208401527f85a5fa2cb1192a41687940688a923d4fc9ddd045e40bc486ed33c554182b483b60403394a451166040519161324d83611f7f565b6001835260208301526040820152604051613269602082611fd0565b5f8152606082015290565b613287903d805f833e61182c8183611fd0565b61314c565b63ffffffff93959850606096506132eb919294506132e490846132dd816001600160801b037f8a6803caa183ccb5fc1996809a7790f6b60d61f2bc403317748b627fd9937dc79c5116935116612cd4565b16906125aa565b80956139b8565b865f5260136020525f600260408220828155826001820155015551169060405192835260208301526040820152a260405161332581611f7f565b5f81525f60208201525f6040820152604051613342604082611fd0565b60148152734c6f73732065786365656473206d6178696d756d60601b6020820152606082015290565b935050505061338591506001600160801b038551166125aa565b92613080565b5050505050505060016133e7576040516133a481611f7f565b5f81525f60208201525f60408201526040516133c1604082611fd0565b6011815270139bdd0818db185a5b58589b19481e595d607a1b6020820152606082015290565b6348a96ca560e01b5f5260045ffd5b505050505050505060016134545760405161341081611f7f565b5f81525f60208201525f604082015260405161342d604082611fd0565b601281527114dbdb1d995c881b9bdd08185b1b1bddd95960721b6020820152606082015290565b631a97fcb560e31b5f5260045ffd5b506001600160401b0386511615612f80565b632bb8b38560e11b5f5260045ffd5b5f60405161349181611f7f565b5f81525f60208201525f60408201526060808201525060018060a01b038216805f52601360205260405f2092604051916134ca83611fb5565b845460018060a01b038116845260208401926001600160401b038260a01c168452604085019160e01c825260018701546002606087019860018060a01b0383168a526001600160401b03608089019360a01c1683520154946001600160801b0360a08801966001600160401b038116885260401c169660c0810197808952156138db57516001600160a01b0316331415806138c9575b61389f57516001600160401b03164210613876576001600160401b039051168652601460205260408620916040519261359884611f9a565b549063ffffffff82168085526001600160401b03602086019363ffffffff8160201c16855260401c16604086015263ffffffff600f5416908082105f1461385657506001600160401b03600e541690036001600160401b038111613842576001600160401b0316936136118563ffffffff835116612137565b90612710820291808304612710149015171561382e579063ffffffff613639925116906129c4565b9163ffffffff82511683116137855750505050613660906001600160801b038551166125aa565b925b8185526013602090815260408087205f808255600182018190556002909101558751905163a9059cbb60e01b928101929092526001600160a01b0316602482015260448101859052859081906136bf906130db816064810161175d565b03925af1908161376d575b506136e5575050505090506131af5760405161316881611f7f565b6001600160801b036001600160401b03949660018060a01b03905116915116916040519287845260208401527f85a5fa2cb1192a41687940688a923d4fc9ddd045e40bc486ed33c554182b483b60403394a451166040519261374684611f7f565b600184526020840152604083015260405190613763602083611fd0565b8152606082015290565b613780903d8089833e61182c8183611fd0565b6136ca565b63ffffffff9395989950606096506137d7919294506132e490846132dd816001600160801b037f8a6803caa183ccb5fc1996809a7790f6b60d61f2bc403317748b627fd9937dc79c5116935116612cd4565b86885260136020525f600260408a20828155826001820155015551169060405192835260208301526040820152a26040519061381282611f7f565b8082528060208301526040820152604051613342604082611fd0565b634e487b7160e01b8a52601160045260248afd5b634e487b7160e01b89526011600452602489fd5b935050505061387091506001600160801b038551166125aa565b92613662565b50505050505080915061389057506040516133a481611f7f565b6348a96ca560e01b8152600490fd5b505050505050508091506138ba575060405161341081611f7f565b631a97fcb560e31b8152600490fd5b506001600160401b0386511615613560565b505050505050505050506040516138f181611f7f565b5f81525f60208201525f604082015260405161390e604082611fd0565b601181527014995c5d595cdd081b9bdd08199bdd5b99607a1b6020820152606082015290565b9091906001600160a01b0316801561255e57805f525f60205260405f205483811061399e576020845f94957fddf252ad1be2c89b69c2b068fc378daa952ba7f163c4a11628f55a4df523b3ef938587528684520360408620558060025403600255604051908152a3565b915063391434e360e21b5f5260045260245260445260645ffd5b6001600160a01b031690811561254b577fddf252ad1be2c89b69c2b068fc378daa952ba7f163c4a11628f55a4df523b3ef6020826139f95f94600254612404565b60025584845283825260408420818154019055604051908152a3565b905f602091828151910182855af115611839575f513d613a6457506001600160a01b0381163b155b613a445750565b635274afe760e01b5f9081526001600160a01b0391909116600452602490fd5b60011415613a3d56fea26469706673582212204a1ff936893942b36c81793ec5d6a0b35b2ebc088d40c0d112726bb7eb9d908064736f6c634300081c0033",
    "sourcePath": "/mnt/extra/Projects/timewave/valence-workflow/solidity/src/libraries/ValenceVault.sol",
    "compiler": {
        "name": "solc",
        "version": "0.8.28+commit.7893614a"
    },
    "functionHashes": {
        "allowance(address,address)": "dd62ed3e",
        "approve(address,uint256)": "095ea7b3",
        "asset()": "38d52e0f",
        "balanceOf(address)": "70a08231",
        "calculateDepositFee(uint256)": "247d284b",
        "calculateMintFee(uint256)": "5c095e54",
        "calculatePerformanceFees(uint256,uint256,uint32)": "b82004d0",
        "calculatePlatformFees(uint256,uint256,uint256,uint32)": "3203fce7",
        "completeWithdraw(address)": "bf3b826b",
        "completeWithdraws(address[])": "de6ca51a",
        "config()": "79502c55",
        "convertToAssets(uint256)": "07a2d13a",
        "convertToShares(uint256)": "c6e6f592",
        "decimals()": "313ce567",
        "deposit(uint256,address)": "6e553f65",
        "feesOwedInAsset()": "be062acc",
        "hasActiveWithdraw(address)": "5120b17e",
        "lastUpdateTimestamp()": "14bcec9f",
        "lastUpdateTotalShares()": "dd7d729c",
        "maxDeposit(address)": "402d267d",
        "maxHistoricalRate()": "5726a936",
        "maxMint(address)": "c63d75b6",
        "maxRedeem(address)": "d905777e",
        "maxWithdraw(address)": "ce96cb77",
        "mint(uint256,address)": "94bf804d",
        "name()": "06fdde03",
        "owner()": "8da5cb5b",
        "packedValues()": "2b6055a7",
        "pause()": "8456cb59",
        "previewDeposit(uint256)": "ef8b30f7",
        "previewMint(uint256)": "b3d7f6b9",
        "previewRedeem(uint256)": "4cdad506",
        "previewWithdraw(uint256)": "0a28a477",
        "redeem(uint256,address,address)": "ba087652",
        "redeem(uint256,address,address,uint32,bool)": "5a5947a2",
        "redemptionRate()": "540385a3",
        "renounceOwnership()": "715018a6",
        "symbol()": "95d89b41",
        "totalAssets()": "01e1d114",
        "totalAssetsToWithdrawNextUpdate()": "1e154ca4",
        "totalSupply()": "18160ddd",
        "transfer(address,uint256)": "a9059cbb",
        "transferFrom(address,address,uint256)": "23b872dd",
        "transferOwnership(address)": "f2fde38b",
        "unpause()": "3f4ba83a",
        "update(uint32,uint32,uint256)": "4039e47a",
        "updateConfig(bytes)": "8cc6acce",
        "updateInfos(uint64)": "7641ba6c",
        "userWithdrawRequest(address)": "033384ce",
        "withdraw(uint256,address,address)": "b460af94",
        "withdraw(uint256,address,address,uint32,bool)": "314a4163"
    },
    "gasEstimates": {
        "creation": {
            "codeDepositCost": "3002200",
            "executionCost": "infinite",
            "totalCost": "infinite"
        },
        "external": {
            "allowance(address,address)": "3577",
            "approve(address,uint256)": "24383",
            "asset()": "infinite",
            "balanceOf(address)": "2995",
            "calculateDepositFee(uint256)": "3118",
            "calculateMintFee(uint256)": "infinite",
            "calculatePerformanceFees(uint256,uint256,uint32)": "infinite",
            "calculatePlatformFees(uint256,uint256,uint256,uint32)": "infinite",
            "completeWithdraw(address)": "infinite",
            "completeWithdraws(address[])": "infinite",
            "config()": "16416",
            "convertToAssets(uint256)": "2743",
            "convertToShares(uint256)": "3623",
            "decimals()": "infinite",
            "deposit(uint256,address)": "infinite",
            "feesOwedInAsset()": "3152",
            "hasActiveWithdraw(address)": "2895",
            "lastUpdateTimestamp()": "2398",
            "lastUpdateTotalShares()": "3282",
            "maxDeposit(address)": "infinite",
            "maxHistoricalRate()": "2744",
            "maxMint(address)": "infinite",
            "maxRedeem(address)": "3413",
            "maxWithdraw(address)": "infinite",
            "mint(uint256,address)": "infinite",
            "name()": "infinite",
            "owner()": "2976",
            "packedValues()": "2628",
            "pause()": "30358",
            "previewDeposit(uint256)": "3755",
            "previewMint(uint256)": "3571",
            "previewRedeem(uint256)": "3095",
            "previewWithdraw(uint256)": "2911",
            "redeem(uint256,address,address)": "infinite",
            "redeem(uint256,address,address,uint32,bool)": "289437",
            "redemptionRate()": "2716",
            "renounceOwnership()": "28646",
            "symbol()": "infinite",
            "totalAssets()": "4794",
            "totalAssetsToWithdrawNextUpdate()": "2442",
            "totalSupply()": "2402",
            "transfer(address,uint256)": "51516",
            "transferFrom(address,address,uint256)": "75715",
            "transferOwnership(address)": "29260",
            "unpause()": "30028",
            "update(uint32,uint32,uint256)": "infinite",
            "updateConfig(bytes)": "infinite",
            "updateInfos(uint64)": "3050",
            "userWithdrawRequest(address)": "6869",
            "withdraw(uint256,address,address)": "infinite",
            "withdraw(uint256,address,address,uint32,bool)": "infinite"
        },
        "internal": {
            "_convertToAssets(uint256,enum Math.Rounding)": "infinite",
            "_convertToShares(uint256,enum Math.Rounding)": "infinite",
            "_deposit(address,address,uint256,uint256)": "infinite",
            "_distributeFees()": "infinite",
            "_handleWithdraws(uint32,uint256)": "infinite",
            "_processWithdraw(address,bool)": "infinite",
            "_validateWithdrawParams(address,address,uint256,uint256)": "127",
            "_withdraw(uint256,uint256,address,address,uint32,bool)": "infinite"
        }
    }
}